8=FIX.4.4|9=135|35=A|34=1|49=f2c11b00bf3d41fca072225f328ce98e|52=20260416-01:12:00.000|56=SERVER|1=main|98=0|108=30|141=Y|553=Group13|554=yCr8g4w0tLuT|10=105|8=FIX.4.4|9=100|35=0|34=2|49=f2c11b00bf3d41fca072225f328ce98e|52=20260416-01:12:30.000|56=SERVER|1=main|553=Group13|10=001|8=FIX.4.4|9=100|35=0|34=3|49=f2c11b00bf3d41fca072225f328ce98e|52=20260416-01:13:00.000|56=SERVER|1=main|553=Group13|10=000|8=FIX.4.4|9=100|35=0|34=4|49=f2c11b00bf3d41fca072225f328ce98e|52=20260416-01:13:30.000|56=SERVER|1=main|553=Group13|10=004|8=FIX.4.4|9=100|35=0|34=5|49=f2c11b00bf3d41fca072225f328ce98e|52=20260416-01:14:00.000|56=SERVER|1=main|553=Group13|10=003|8=FIX.4.4|9=100|35=0|34=6|49=f2c11b00bf3d41fca072225f328ce98e|52=20260416-01:14:30.000|56=SERVER|1=main|553=Group13|10=007|8=FIX.4.4|9=100|35=0|34=7|49=f2c11b00bf3d41fca072225f328ce98e|52=20260416-01:15:00.000|56=SERVER|1=main|553=Group13|10=006|8=FIX.4.4|9=100|35=0|34=8|49=f2c11b00bf3d41fca072225f328ce98e|52=20260416-01:15:30.000|56=SERVER|1=main|553=Group13|10=010|8=FIX.4.4|9=100|35=0|34=9|49=f2c11b00bf3d41fca072225f328ce98e|52=20260416-01:16:00.000|56=SERVER|1=main|553=Group13|10=009|8=FIX.4.4|9=101|35=0|34=10|49=f2c11b00bf3d41fca072225f328ce98e|52=20260416-01:16:30.000|56=SERVER|1=main|553=Group13|10=053|8=FIX.4.4|9=101|35=0|34=11|49=f2c11b00bf3d41fca072225f328ce98e|52=20260416-01:17:00.000|56=SERVER|1=main|553=Group13|10=052|8=FIX.4.4|9=101|35=0|34=12|49=f2c11b00bf3d41fca072225f328ce98e|52=20260416-01:17:30.000|56=SERVER|1=main|553=Group13|10=056|8=FIX.4.4|9=101|35=0|34=13|49=f2c11b00bf3d41fca072225f328ce98e|52=20260416-01:18:00.000|56=SERVER|1=main|553=Group13|10=055|8=FIX.4.4|9=101|35=0|34=14|49=f2c11b00bf3d41fca072225f328ce98e|52=20260416-01:18:30.000|56=SERVER|1=main|553=Group13|10=059|8=FIX.4.4|9=101|35=0|34=15|49=f2c11b00bf3d41fca072225f328ce98e|52=20260416-01:19:00.000|56=SERVER|1=main|553=Group13|10=058|8=FIX.4.4|9=101|35=0|34=16|49=f2c11b00bf3d41fca072225f328ce98e|52=20260416-01:19:30.000|56=SERVER|1=main|553=Group13|10=062|8=FIX.4.4|9=101|35=0|34=17|49=f2c11b00bf3d41fca072225f328ce98e|52=20260416-01:20:00.000|56=SERVER|1=main|553=Group13|10=052|8=FIX.4.4|9=101|35=0|34=18|49=f2c11b00bf3d41fca072225f328ce98e|52=20260416-01:20:30.000|56=SERVER|1=main|553=Group13|10=056|8=FIX.4.4|9=101|35=0|34=19|49=f2c11b00bf3d41fca072225f328ce98e|52=20260416-01:21:00.000|56=SERVER|1=main|553=Group13|10=055|8=FIX.4.4|9=101|35=0|34=20|49=f2c11b00bf3d41fca072225f328ce98e|52=20260416-01:21:30.000|56=SERVER|1=main|553=Group13|10=050|8=FIX.4.4|9=101|35=0|34=21|49=f2c11b00bf3d41fca072225f328ce98e|52=20260416-01:22:00.000|56=SERVER|1=main|553=Group13|10=049|8=FIX.4.4|9=101|35=0|34=22|49=f2c11b00bf3d41fca072225f328ce98e|52=20260416-01:22:30.000|56=SERVER|1=main|553=Group13|10=053|8=FIX.4.4|9=101|35=0|34=23|49=f2c11b00bf3d41fca072225f328ce98e|52=20260416-01:23:00.000|56=SERVER|1=main|553=Group13|10=052|8=FIX.4.4|9=101|35=0|34=24|49=f2c11b00bf3d41fca072225f328ce98e|52=20260416-01:23:30.000|56=SERVER|1=main|553=Group13|10=056|8=FIX.4.4|9=101|35=0|34=25|49=f2c11b00bf3d41fca072225f328ce98e|52=20260416-01:24:00.000|56=SERVER|1=main|553=Group13|10=055|8=FIX.4.4|9=101|35=0|34=26|49=f2c11b00bf3d41fca072225f328ce98e|52=20260416-01:24:30.000|56=SERVER|1=main|553=Group13|10=059|8=FIX.4.4|9=101|35=0|34=27|49=f2c11b00bf3d41fca072225f328ce98e|52=20260416-01:25:00.000|56=SERVER|1=main|553=Group13|10=058|8=FIX.4.4|9=101|35=0|34=28|49=f2c11b00bf3d41fca072225f328ce98e|52=20260416-01:25:30.000|56=SERVER|1=main|553=Group13|10=062|8=FIX.4.4|9=101|35=0|34=29|49=f2c11b00bf3d41fca072225f328ce98e|52=20260416-01:26:00.000|56=SERVER|1=main|553=Group13|10=061|8=FIX.4.4|9=101|35=0|34=30|49=f2c11b00bf3d41fca072225f328ce98e|52=20260416-01:26:30.000|56=SERVER|1=main|553=Group13|10=056|8=FIX.4.4|9=101|35=0|34=31|49=f2c11b00bf3d41fca072225f328ce98e|52=20260416-01:27:00.000|56=SERVER|1=main|553=Group13|10=055|8=FIX.4.4|9=101|35=0|34=32|49=f2c11b00bf3d41fca072225f328ce98e|52=20260416-01:27:30.000|56=SERVER|1=main|553=Group13|10=059|8=FIX.4.4|9=101|35=0|34=33|49=f2c11b00bf3d41fca072225f328ce98e|52=20260416-01:28:00.000|56=SERVER|1=main|553=Group13|10=058|8=FIX.4.4|9=101|35=0|34=34|49=f2c11b00bf3d41fca072225f328ce98e|52=20260416-01:28:30.000|56=SERVER|1=main|553=Group13|10=062|8=FIX.4.4|9=101|35=0|34=35|49=f2c11b00bf3d41fca072225f328ce98e|52=20260416-01:29:00.000|56=SERVER|1=main|553=Group13|10=061|8=FIX.4.4|9=101|35=0|34=36|49=f2c11b00bf3d41fca072225f328ce98e|52=20260416-01:29:30.000|56=SERVER|1=main|553=Group13|10=065|8=FIX.4.4|9=101|35=0|34=37|49=f2c11b00bf3d41fca072225f328ce98e|52=20260416-01:30:00.000|56=SERVER|1=main|553=Group13|10=055|8=FIX.4.4|9=101|35=0|34=38|49=f2c11b00bf3d41fca072225f328ce98e|52=20260416-01:30:30.000|56=SERVER|1=main|553=Group13|10=059|8=FIX.4.4|9=101|35=0|34=39|49=f2c11b00bf3d41fca072225f328ce98e|52=20260416-01:31:00.000|56=SERVER|1=main|553=Group13|10=058|8=FIX.4.4|9=101|35=0|34=40|49=f2c11b00bf3d41fca072225f328ce98e|52=20260416-01:31:30.000|56=SERVER|1=main|553=Group13|10=053|8=FIX.4.4|9=101|35=0|34=41|49=f2c11b00bf3d41fca072225f328ce98e|52=20260416-01:32:00.000|56=SERVER|1=main|553=Group13|10=052|8=FIX.4.4|9=101|35=0|34=42|49=f2c11b00bf3d41fca072225f328ce98e|52=20260416-01:32:30.000|56=SERVER|1=main|553=Group13|10=056|8=FIX.4.4|9=101|35=0|34=43|49=f2c11b00bf3d41fca072225f328ce98e|52=20260416-01:33:00.000|56=SERVER|1=main|553=Group13|10=055|8=FIX.4.4|9=101|35=0|34=44|49=f2c11b00bf3d41fca072225f328ce98e|52=20260416-01:33:30.000|56=SERVER|1=main|553=Group13|10=059|8=FIX.4.4|9=101|35=0|34=45|49=f2c11b00bf3d41fca072225f328ce98e|52=20260416-01:34:00.000|56=SERVER|1=main|553=Group13|10=058|8=FIX.4.4|9=101|35=0|34=46|49=f2c11b00bf3d41fca072225f328ce98e|52=20260416-01:34:30.000|56=SERVER|1=main|553=Group13|10=062|8=FIX.4.4|9=101|35=0|34=47|49=f2c11b00bf3d41fca072225f328ce98e|52=20260416-01:35:00.000|56=SERVER|1=main|553=Group13|10=061|8=FIX.4.4|9=101|35=0|34=48|49=f2c11b00bf3d41fca072225f328ce98e|52=20260416-01:35:30.000|56=SERVER|1=main|553=Group13|10=065|8=FIX.4.4|9=101|35=0|34=49|49=f2c11b00bf3d41fca072225f328ce98e|52=20260416-01:36:00.000|56=SERVER|1=main|553=Group13|10=064|8=FIX.4.4|9=101|35=0|34=50|49=f2c11b00bf3d41fca072225f328ce98e|52=20260416-01:36:30.000|56=SERVER|1=main|553=Group13|10=059|8=FIX.4.4|9=101|35=0|34=51|49=f2c11b00bf3d41fca072225f328ce98e|52=20260416-01:37:00.000|56=SERVER|1=main|553=Group13|10=058|8=FIX.4.4|9=101|35=0|34=52|49=f2c11b00bf3d41fca072225f328ce98e|52=20260416-01:37:30.000|56=SERVER|1=main|553=Group13|10=062|8=FIX.4.4|9=101|35=0|34=53|49=f2c11b00bf3d41fca072225f328ce98e|52=20260416-01:38:00.000|56=SERVER|1=main|553=Group13|10=061|8=FIX.4.4|9=101|35=0|34=54|49=f2c11b00bf3d41fca072225f328ce98e|52=20260416-01:38:30.000|56=SERVER|1=main|553=Group13|10=065|8=FIX.4.4|9=101|35=0|34=55|49=f2c11b00bf3d41fca072225f328ce98e|52=20260416-01:39:00.000|56=SERVER|1=main|553=Group13|10=064|8=FIX.4.4|9=101|35=0|34=56|49=f2c11b00bf3d41fca072225f328ce98e|52=20260416-01:39:30.000|56=SERVER|1=main|553=Group13|10=068|8=FIX.4.4|9=101|35=0|34=57|49=f2c11b00bf3d41fca072225f328ce98e|52=20260416-01:40:00.000|56=SERVER|1=main|553=Group13|10=058|8=FIX.4.4|9=101|35=0|34=58|49=f2c11b00bf3d41fca072225f328ce98e|52=20260416-01:40:30.000|56=SERVER|1=main|553=Group13|10=062|8=FIX.4.4|9=101|35=0|34=59|49=f2c11b00bf3d41fca072225f328ce98e|52=20260416-01:41:00.000|56=SERVER|1=main|553=Group13|10=061|8=FIX.4.4|9=101|35=0|34=60|49=f2c11b00bf3d41fca072225f328ce98e|52=20260416-01:41:30.000|56=SERVER|1=main|553=Group13|10=056|8=FIX.4.4|9=101|35=0|34=61|49=f2c11b00bf3d41fca072225f328ce98e|52=20260416-01:42:00.000|56=SERVER|1=main|553=Group13|10=055|8=FIX.4.4|9=101|35=0|34=62|49=f2c11b00bf3d41fca072225f328ce98e|52=20260416-01:42:30.000|56=SERVER|1=main|553=Group13|10=059|8=FIX.4.4|9=101|35=0|34=63|49=f2c11b00bf3d41fca072225f328ce98e|52=20260416-01:43:00.000|56=SERVER|1=main|553=Group13|10=058|8=FIX.4.4|9=101|35=0|34=64|49=f2c11b00bf3d41fca072225f328ce98e|52=20260416-01:43:30.000|56=SERVER|1=main|553=Group13|10=062|8=FIX.4.4|9=101|35=0|34=65|49=f2c11b00bf3d41fca072225f328ce98e|52=20260416-01:44:00.000|56=SERVER|1=main|553=Group13|10=061|8=FIX.4.4|9=101|35=0|34=66|49=f2c11b00bf3d41fca072225f328ce98e|52=20260416-01:44:30.000|56=SERVER|1=main|553=Group13|10=065|8=FIX.4.4|9=101|35=0|34=67|49=f2c11b00bf3d41fca072225f328ce98e|52=20260416-01:45:00.000|56=SERVER|1=main|553=Group13|10=064|8=FIX.4.4|9=101|35=0|34=68|49=f2c11b00bf3d41fca072225f328ce98e|52=20260416-01:45:30.000|56=SERVER|1=main|553=Group13|10=068|8=FIX.4.4|9=101|35=0|34=69|49=f2c11b00bf3d41fca072225f328ce98e|52=20260416-01:46:00.000|56=SERVER|1=main|553=Group13|10=067|8=FIX.4.4|9=101|35=0|34=70|49=f2c11b00bf3d41fca072225f328ce98e|52=20260416-01:46:30.000|56=SERVER|1=main|553=Group13|10=062|8=FIX.4.4|9=101|35=0|34=71|49=f2c11b00bf3d41fca072225f328ce98e|52=20260416-01:47:00.000|56=SERVER|1=main|553=Group13|10=061|8=FIX.4.4|9=101|35=0|34=72|49=f2c11b00bf3d41fca072225f328ce98e|52=20260416-01:47:30.000|56=SERVER|1=main|553=Group13|10=065|8=FIX.4.4|9=101|35=0|34=73|49=f2c11b00bf3d41fca072225f328ce98e|52=20260416-01:48:00.000|56=SERVER|1=main|553=Group13|10=064|8=FIX.4.4|9=101|35=0|34=74|49=f2c11b00bf3d41fca072225f328ce98e|52=20260416-01:48:30.000|56=SERVER|1=main|553=Group13|10=068|8=FIX.4.4|9=101|35=0|34=75|49=f2c11b00bf3d41fca072225f328ce98e|52=20260416-01:49:00.000|56=SERVER|1=main|553=Group13|10=067|8=FIX.4.4|9=101|35=0|34=76|49=f2c11b00bf3d41fca072225f328ce98e|52=20260416-01:49:30.000|56=SERVER|1=main|553=Group13|10=071|8=FIX.4.4|9=101|35=0|34=77|49=f2c11b00bf3d41fca072225f328ce98e|52=20260416-01:50:00.000|56=SERVER|1=main|553=Group13|10=061|8=FIX.4.4|9=101|35=0|34=78|49=f2c11b00bf3d41fca072225f328ce98e|52=20260416-01:50:30.000|56=SERVER|1=main|553=Group13|10=065|8=FIX.4.4|9=101|35=0|34=79|49=f2c11b00bf3d41fca072225f328ce98e|52=20260416-01:51:00.000|56=SERVER|1=main|553=Group13|10=064|8=FIX.4.4|9=101|35=0|34=80|49=f2c11b00bf3d41fca072225f328ce98e|52=20260416-01:51:30.000|56=SERVER|1=main|553=Group13|10=059|8=FIX.4.4|9=101|35=0|34=81|49=f2c11b00bf3d41fca072225f328ce98e|52=20260416-01:52:00.000|56=SERVER|1=main|553=Group13|10=058|8=FIX.4.4|9=101|35=0|34=82|49=f2c11b00bf3d41fca072225f328ce98e|52=20260416-01:52:30.000|56=SERVER|1=main|553=Group13|10=062|8=FIX.4.4|9=101|35=0|34=83|49=f2c11b00bf3d41fca072225f328ce98e|52=20260416-01:53:00.000|56=SERVER|1=main|553=Group13|10=061|8=FIX.4.4|9=101|35=0|34=84|49=f2c11b00bf3d41fca072225f328ce98e|52=20260416-01:53:30.000|56=SERVER|1=main|553=Group13|10=065|8=FIX.4.4|9=101|35=0|34=85|49=f2c11b00bf3d41fca072225f328ce98e|52=20260416-01:54:00.000|56=SERVER|1=main|553=Group13|10=064|8=FIX.4.4|9=101|35=0|34=86|49=f2c11b00bf3d41fca072225f328ce98e|52=20260416-01:54:30.000|56=SERVER|1=main|553=Group13|10=068|8=FIX.4.4|9=101|35=0|34=87|49=f2c11b00bf3d41fca072225f328ce98e|52=20260416-01:55:00.000|56=SERVER|1=main|553=Group13|10=067|8=FIX.4.4|9=101|35=0|34=88|49=f2c11b00bf3d41fca072225f328ce98e|52=20260416-01:55:30.000|56=SERVER|1=main|553=Group13|10=071|8=FIX.4.4|9=101|35=0|34=89|49=f2c11b00bf3d41fca072225f328ce98e|52=20260416-01:56:00.000|56=SERVER|1=main|553=Group13|10=070|8=FIX.4.4|9=101|35=0|34=90|49=f2c11b00bf3d41fca072225f328ce98e|52=20260416-01:56:30.000|56=SERVER|1=main|553=Group13|10=065|8=FIX.4.4|9=101|35=0|34=91|49=f2c11b00bf3d41fca072225f328ce98e|52=20260416-01:57:00.000|56=SERVER|1=main|553=Group13|10=064|8=FIX.4.4|9=101|35=0|34=92|49=f2c11b00bf3d41fca072225f328ce98e|52=20260416-01:57:30.000|56=SERVER|1=main|553=Group13|10=068|8=FIX.4.4|9=101|35=0|34=93|49=f2c11b00bf3d41fca072225f328ce98e|52=20260416-01:58:00.000|56=SERVER|1=main|553=Group13|10=067|8=FIX.4.4|9=101|35=0|34=94|49=f2c11b00bf3d41fca072225f328ce98e|52=20260416-01:58:30.000|56=SERVER|1=main|553=Group13|10=071|8=FIX.4.4|9=101|35=0|34=95|49=f2c11b00bf3d41fca072225f328ce98e|52=20260416-01:59:00.000|56=SERVER|1=main|553=Group13|10=070|8=FIX.4.4|9=101|35=0|34=96|49=f2c11b00bf3d41fca072225f328ce98e|52=20260416-01:59:30.000|56=SERVER|1=main|553=Group13|10=074|8=FIX.4.4|9=101|35=0|34=97|49=f2c11b00bf3d41fca072225f328ce98e|52=20260416-02:00:00.000|56=SERVER|1=main|553=Group13|10=059|8=FIX.4.4|9=101|35=0|34=98|49=f2c11b00bf3d41fca072225f328ce98e|52=20260416-02:00:30.000|56=SERVER|1=main|553=Group13|10=063|8=FIX.4.4|9=101|35=0|34=99|49=f2c11b00bf3d41fca072225f328ce98e|52=20260416-02:01:00.000|56=SERVER|1=main|553=Group13|10=062|8=FIX.4.4|9=102|35=0|34=100|49=f2c11b00bf3d41fca072225f328ce98e|52=20260416-02:01:30.000|56=SERVER|1=main|553=Group13|10=097|8=FIX.4.4|9=102|35=0|34=101|49=f2c11b00bf3d41fca072225f328ce98e|52=20260416-02:02:00.000|56=SERVER|1=main|553=Group13|10=096|8=FIX.4.4|9=102|35=0|34=102|49=f2c11b00bf3d41fca072225f328ce98e|52=20260416-02:02:30.000|56=SERVER|1=main|553=Group13|10=100|8=FIX.4.4|9=102|35=0|34=103|49=f2c11b00bf3d41fca072225f328ce98e|52=20260416-02:03:00.000|56=SERVER|1=main|553=Group13|10=099|8=FIX.4.4|9=102|35=0|34=104|49=f2c11b00bf3d41fca072225f328ce98e|52=20260416-02:03:30.000|56=SERVER|1=main|553=Group13|10=103|8=FIX.4.4|9=102|35=0|34=105|49=f2c11b00bf3d41fca072225f328ce98e|52=20260416-02:04:00.000|56=SERVER|1=main|553=Group13|10=102|8=FIX.4.4|9=102|35=0|34=106|49=f2c11b00bf3d41fca072225f328ce98e|52=20260416-02:04:30.000|56=SERVER|1=main|553=Group13|10=106|8=FIX.4.4|9=102|35=0|34=107|49=f2c11b00bf3d41fca072225f328ce98e|52=20260416-02:05:00.000|56=SERVER|1=main|553=Group13|10=105|8=FIX.4.4|9=102|35=0|34=108|49=f2c11b00bf3d41fca072225f328ce98e|52=20260416-02:05:30.000|56=SERVER|1=main|553=Group13|10=109|8=FIX.4.4|9=102|35=0|34=109|49=f2c11b00bf3d41fca072225f328ce98e|52=20260416-02:06:00.000|56=SERVER|1=main|553=Group13|10=108|8=FIX.4.4|9=102|35=0|34=110|49=f2c11b00bf3d41fca072225f328ce98e|52=20260416-02:06:30.000|56=SERVER|1=main|553=Group13|10=103|8=FIX.4.4|9=102|35=0|34=111|49=f2c11b00bf3d41fca072225f328ce98e|52=20260416-02:07:00.000|56=SERVER|1=main|553=Group13|10=102|8=FIX.4.4|9=102|35=0|34=112|49=f2c11b00bf3d41fca072225f328ce98e|52=20260416-02:07:30.000|56=SERVER|1=main|553=Group13|10=106|8=FIX.4.4|9=102|35=0|34=113|49=f2c11b00bf3d41fca072225f328ce98e|52=20260416-02:08:00.000|56=SERVER|1=main|553=Group13|10=105|8=FIX.4.4|9=102|35=0|34=114|49=f2c11b00bf3d41fca072225f328ce98e|52=20260416-02:08:30.000|56=SERVER|1=main|553=Group13|10=109|8=FIX.4.4|9=102|35=0|34=115|49=f2c11b00bf3d41fca072225f328ce98e|52=20260416-02:09:00.000|56=SERVER|1=main|553=Group13|10=108|8=FIX.4.4|9=102|35=0|34=116|49=f2c11b00bf3d41fca072225f328ce98e|52=20260416-02:09:30.000|56=SERVER|1=main|553=Group13|10=112|8=FIX.4.4|9=102|35=0|34=117|49=f2c11b00bf3d41fca072225f328ce98e|52=20260416-02:10:00.000|56=SERVER|1=main|553=Group13|10=102|8=FIX.4.4|9=102|35=0|34=118|49=f2c11b00bf3d41fca072225f328ce98e|52=20260416-02:10:30.000|56=SERVER|1=main|553=Group13|10=106|8=FIX.4.4|9=102|35=0|34=119|49=f2c11b00bf3d41fca072225f328ce98e|52=20260416-02:11:00.000|56=SERVER|1=main|553=Group13|10=105|8=FIX.4.4|9=102|35=0|34=120|49=f2c11b00bf3d41fca072225f328ce98e|52=20260416-02:11:30.000|56=SERVER|1=main|553=Group13|10=100|8=FIX.4.4|9=102|35=0|34=121|49=f2c11b00bf3d41fca072225f328ce98e|52=20260416-02:12:00.000|56=SERVER|1=main|553=Group13|10=099|8=FIX.4.4|9=102|35=0|34=122|49=f2c11b00bf3d41fca072225f328ce98e|52=20260416-02:12:30.000|56=SERVER|1=main|553=Group13|10=103|8=FIX.4.4|9=102|35=0|34=123|49=f2c11b00bf3d41fca072225f328ce98e|52=20260416-02:13:00.000|56=SERVER|1=main|553=Group13|10=102|8=FIX.4.4|9=102|35=0|34=124|49=f2c11b00bf3d41fca072225f328ce98e|52=20260416-02:13:30.000|56=SERVER|1=main|553=Group13|10=106|8=FIX.4.4|9=102|35=0|34=125|49=f2c11b00bf3d41fca072225f328ce98e|52=20260416-02:14:00.000|56=SERVER|1=main|553=Group13|10=105|