8=FIX.4.4|9=135|35=A|34=1|49=f2c11b00bf3d41fca072225f328ce98e|52=20260505-04:21:36.000|56=SERVER|1=main|98=0|108=30|141=Y|553=Group13|554=yCr8g4w0tLuT|10=116|8=FIX.4.4|9=186|35=D|34=2|49=f2c11b00bf3d41fca072225f328ce98e|52=20260505-04:21:38.000|56=SERVER|1=main|11=8eb6e125|38=1|40=2|44=2012.9|54=2|55=VN30F2605|59=1|60=20260505-04:21:38|207=HNXDS|553=Group13|10=094|