[2026-04-01 08:33:10] [DEBUG] [TO ADMIN] 8=FIX.4.4|9=100|35=5|34=4|49=f2c11b00bf3d41fca072225f328ce98e|52=20260401-01:33:10.000|56=SERVER|1=main|553=Group13|10=003|
[2026-04-01 08:33:10] [INFO] Session created: FIX.4.4:f2c11b00bf3d41fca072225f328ce98e->SERVER
[2026-04-01 08:33:10] [DEBUG] FIXSessionManager initialized config=/var/folders/3v/rnx_2jlj5kg92m637d62559r0000gn/T/paperbroker_6ab1ald8.cfg username=Group13
[2026-04-01 08:33:10] [DEBUG] RestSession initialized with base_url: https://papertrade.algotrade.vn/accounting
[2026-04-01 08:33:10] [DEBUG] Registered handler for event 'fix:logon'. Total handlers: 1
[2026-04-01 08:33:10] [DEBUG] Registered handler for event 'fix:execution_report'. Total handlers: 2
[2026-04-01 08:33:10] [DEBUG] Registered handler for event 'fix:order:filled'. Total handlers: 3
[2026-04-01 08:33:10] [DEBUG] POST https://papertrade.algotrade.vn/accounting/api/fix-account-info/get-fix-id payload_keys=['username', 'password']
[2026-04-01 08:33:11] [DEBUG] POST https://papertrade.algotrade.vn/accounting/api/fix-account-info/get-fix-id succeeded status_code=200
[2026-04-01 08:33:11] [INFO] event=fix_id_resolved username=Group13 fixAccountID=f72030f52dc94e38b4c32ee0d7f9a03b
[2026-04-01 08:33:11] [DEBUG] POST https://papertrade.algotrade.vn/accounting/api/portfolio-by-sub/basic payload_keys=['fixAccountID', 'subAccountID']
[2026-04-01 08:33:11] [DEBUG] POST https://papertrade.algotrade.vn/accounting/api/portfolio-by-sub/basic succeeded status_code=200
[2026-04-01 08:33:11] [INFO] event=portfolio_resolved fixAccountID=f72030f52dc94e38b4c32ee0d7f9a03b subAccountID=main instrument_count=1
[2026-04-01 08:33:11] [INFO] Starting FIX session...
[2026-04-01 08:33:11] [DEBUG] [TO ADMIN] 8=FIX.4.4|9=135|35=A|34=1|49=f2c11b00bf3d41fca072225f328ce98e|52=20260401-01:33:11.000|56=SERVER|1=main|98=0|108=30|141=Y|553=Group13|554=yCr8g4w0tLuT|10=104|
[2026-04-01 08:33:12] [DEBUG] [FROM ADMIN] 8=FIX.4.4|9=99|35=A|34=1|49=SERVER|52=20260401-01:33:12.352|56=f2c11b00bf3d41fca072225f328ce98e|98=0|108=30|141=Y|10=223|
[2026-04-01 08:33:12] [INFO] Logon success: FIX.4.4:f2c11b00bf3d41fca072225f328ce98e->SERVER
[2026-04-01 08:33:12] [INFO] Order manager session set: FIX.4.4:f2c11b00bf3d41fca072225f328ce98e->SERVER
[2026-04-01 08:33:12] [DEBUG] Emitting event 'fix:logon' to 1 handler(s)
[2026-04-01 08:33:12] [DEBUG] POST https://papertrade.algotrade.vn/accounting/api/portfolio-by-sub/basic payload_keys=['fixAccountID', 'subAccountID']
[2026-04-01 08:33:12] [DEBUG] POST https://papertrade.algotrade.vn/accounting/api/portfolio-by-sub/basic succeeded status_code=200
[2026-04-01 08:33:12] [INFO] event=portfolio_resolved fixAccountID=f72030f52dc94e38b4c32ee0d7f9a03b subAccountID=main instrument_count=1
[2026-04-01 08:33:13] [DEBUG] POST https://papertrade.algotrade.vn/accounting/api/portfolio-by-sub/basic payload_keys=['fixAccountID', 'subAccountID']
[2026-04-01 08:33:14] [DEBUG] POST https://papertrade.algotrade.vn/accounting/api/portfolio-by-sub/basic succeeded status_code=200
[2026-04-01 08:33:14] [INFO] event=portfolio_resolved fixAccountID=f72030f52dc94e38b4c32ee0d7f9a03b subAccountID=main instrument_count=1
[2026-04-01 08:33:41] [DEBUG] [TO ADMIN] 8=FIX.4.4|9=100|35=0|34=2|49=f2c11b00bf3d41fca072225f328ce98e|52=20260401-01:33:41.000|56=SERVER|1=main|553=Group13|10=000|
[2026-04-01 08:33:42] [DEBUG] [FROM ADMIN] 8=FIX.4.4|9=81|35=0|34=2|49=SERVER|52=20260401-01:33:42.718|56=f2c11b00bf3d41fca072225f328ce98e|10=137|
[2026-04-01 08:34:11] [DEBUG] [TO ADMIN] 8=FIX.4.4|9=100|35=0|34=3|49=f2c11b00bf3d41fca072225f328ce98e|52=20260401-01:34:11.000|56=SERVER|1=main|553=Group13|10=255|
[2026-04-01 08:34:12] [DEBUG] [FROM ADMIN] 8=FIX.4.4|9=81|35=0|34=3|49=SERVER|52=20260401-01:34:12.718|56=f2c11b00bf3d41fca072225f328ce98e|10=136|
[2026-04-01 08:34:24] [DEBUG] [TO APP] 8=FIX.4.4|9=186|35=D|34=4|49=f2c11b00bf3d41fca072225f328ce98e|52=20260401-01:34:24.000|56=SERVER|1=main|11=5cd3ea8d|38=3|40=2|44=1824.4|54=1|55=VN30F2604|59=1|60=20260401-01:34:24|207=HNXDS|553=Group13|10=178|
[2026-04-01 08:34:24] [INFO] [ORDER] Sent new order: 5cd3ea8d
[2026-04-01 08:34:24] [DEBUG] No handlers registered for event 'fix:order:submit'
[2026-04-01 08:34:24] [DEBUG] POST https://papertrade.algotrade.vn/accounting/api/portfolio-by-sub/basic payload_keys=['fixAccountID', 'subAccountID']
[2026-04-01 08:34:24] [INFO] [FROM APP] 8=FIX.4.4|9=355|35=8|34=4|49=SERVER|52=20260401-01:34:24.210|56=f2c11b00bf3d41fca072225f328ce98e|1=main|6=0|11=5cd3ea8d|14=0|17=113b2fa3-5053-4c3a-861a-f70bf0f5e77c|37=20f7237e-6886-4c31-a817-f3f01188a457|38=3|39=8|40=2|44=1824.4|54=1|55=VN30F2604|58=Order rejected: outside trading hours (09:00 - 14:30 Vietnam time).|59=1|60=20260401-01:34:24.209|150=8|151=3|207=HNXDS|10=100|
[2026-04-01 08:34:24] [WARNING] [REJECTED] Order 5cd3ea8d was rejected: Order rejected: outside trading hours (09:00 - 14:30 Vietnam time).
[2026-04-01 08:34:24] [DEBUG] No handlers registered for event 'fix:order:update'
[2026-04-01 08:34:24] [DEBUG] No handlers registered for event 'fix:order:rejected'
[2026-04-01 08:34:24] [DEBUG] POST https://papertrade.algotrade.vn/accounting/api/portfolio-by-sub/basic succeeded status_code=200
[2026-04-01 08:34:24] [INFO] event=portfolio_resolved fixAccountID=f72030f52dc94e38b4c32ee0d7f9a03b subAccountID=main instrument_count=1
[2026-04-01 08:34:54] [DEBUG] [TO ADMIN] 8=FIX.4.4|9=100|35=0|34=5|49=f2c11b00bf3d41fca072225f328ce98e|52=20260401-01:34:54.000|56=SERVER|1=main|553=Group13|10=008|
[2026-04-01 08:34:54] [DEBUG] [FROM ADMIN] 8=FIX.4.4|9=81|35=0|34=5|49=SERVER|52=20260401-01:34:54.718|56=f2c11b00bf3d41fca072225f328ce98e|10=144|
[2026-04-01 08:35:19] [DEBUG] POST https://papertrade.algotrade.vn/accounting/api/portfolio-by-sub/basic payload_keys=['fixAccountID', 'subAccountID']
[2026-04-01 08:35:19] [DEBUG] POST https://papertrade.algotrade.vn/accounting/api/portfolio-by-sub/basic succeeded status_code=200
[2026-04-01 08:35:19] [INFO] event=portfolio_resolved fixAccountID=f72030f52dc94e38b4c32ee0d7f9a03b subAccountID=main instrument_count=1
[2026-04-01 08:35:24] [DEBUG] [TO ADMIN] 8=FIX.4.4|9=100|35=0|34=6|49=f2c11b00bf3d41fca072225f328ce98e|52=20260401-01:35:24.000|56=SERVER|1=main|553=Group13|10=007|
[2026-04-01 08:35:24] [DEBUG] [FROM ADMIN] 8=FIX.4.4|9=81|35=0|34=6|49=SERVER|52=20260401-01:35:24.718|56=f2c11b00bf3d41fca072225f328ce98e|10=143|
[2026-04-01 08:35:54] [DEBUG] [TO ADMIN] 8=FIX.4.4|9=100|35=0|34=7|49=f2c11b00bf3d41fca072225f328ce98e|52=20260401-01:35:54.000|56=SERVER|1=main|553=Group13|10=011|
[2026-04-01 08:35:54] [DEBUG] [FROM ADMIN] 8=FIX.4.4|9=81|35=0|34=7|49=SERVER|52=20260401-01:35:54.718|56=f2c11b00bf3d41fca072225f328ce98e|10=147|
[2026-04-01 08:36:05] [DEBUG] POST https://papertrade.algotrade.vn/accounting/api/portfolio-by-sub/basic payload_keys=['fixAccountID', 'subAccountID']
[2026-04-01 08:36:05] [DEBUG] POST https://papertrade.algotrade.vn/accounting/api/portfolio-by-sub/basic succeeded status_code=200
[2026-04-01 08:36:05] [INFO] event=portfolio_resolved fixAccountID=f72030f52dc94e38b4c32ee0d7f9a03b subAccountID=main instrument_count=1
[2026-04-01 08:36:24] [DEBUG] [TO ADMIN] 8=FIX.4.4|9=100|35=0|34=8|49=f2c11b00bf3d41fca072225f328ce98e|52=20260401-01:36:24.000|56=SERVER|1=main|553=Group13|10=010|
[2026-04-01 08:36:24] [DEBUG] [FROM ADMIN] 8=FIX.4.4|9=81|35=0|34=8|49=SERVER|52=20260401-01:36:24.718|56=f2c11b00bf3d41fca072225f328ce98e|10=146|
[2026-04-01 08:36:54] [DEBUG] [TO ADMIN] 8=FIX.4.4|9=100|35=0|34=9|49=f2c11b00bf3d41fca072225f328ce98e|52=20260401-01:36:54.000|56=SERVER|1=main|553=Group13|10=014|
[2026-04-01 08:36:54] [DEBUG] [FROM ADMIN] 8=FIX.4.4|9=81|35=0|34=9|49=SERVER|52=20260401-01:36:54.718|56=f2c11b00bf3d41fca072225f328ce98e|10=150|
[2026-04-01 08:37:13] [DEBUG] POST https://papertrade.algotrade.vn/accounting/api/portfolio-by-sub/basic payload_keys=['fixAccountID', 'subAccountID']
[2026-04-01 08:37:13] [DEBUG] POST https://papertrade.algotrade.vn/accounting/api/portfolio-by-sub/basic succeeded status_code=200
[2026-04-01 08:37:13] [INFO] event=portfolio_resolved fixAccountID=f72030f52dc94e38b4c32ee0d7f9a03b subAccountID=main instrument_count=1
[2026-04-01 08:37:24] [DEBUG] [TO ADMIN] 8=FIX.4.4|9=101|35=0|34=10|49=f2c11b00bf3d41fca072225f328ce98e|52=20260401-01:37:24.000|56=SERVER|1=main|553=Group13|10=053|
[2026-04-01 08:37:24] [DEBUG] [FROM ADMIN] 8=FIX.4.4|9=82|35=0|34=10|49=SERVER|52=20260401-01:37:24.718|56=f2c11b00bf3d41fca072225f328ce98e|10=189|
[2026-04-01 08:37:54] [DEBUG] [TO ADMIN] 8=FIX.4.4|9=101|35=0|34=11|49=f2c11b00bf3d41fca072225f328ce98e|52=20260401-01:37:54.000|56=SERVER|1=main|553=Group13|10=057|
[2026-04-01 08:37:54] [DEBUG] [FROM ADMIN] 8=FIX.4.4|9=82|35=0|34=11|49=SERVER|52=20260401-01:37:54.718|56=f2c11b00bf3d41fca072225f328ce98e|10=193|
[2026-04-01 08:38:09] [DEBUG] POST https://papertrade.algotrade.vn/accounting/api/portfolio-by-sub/basic payload_keys=['fixAccountID', 'subAccountID']
[2026-04-01 08:38:09] [DEBUG] POST https://papertrade.algotrade.vn/accounting/api/portfolio-by-sub/basic succeeded status_code=200
[2026-04-01 08:38:09] [INFO] event=portfolio_resolved fixAccountID=f72030f52dc94e38b4c32ee0d7f9a03b subAccountID=main instrument_count=1
[2026-04-01 08:38:24] [DEBUG] [TO ADMIN] 8=FIX.4.4|9=101|35=0|34=12|49=f2c11b00bf3d41fca072225f328ce98e|52=20260401-01:38:24.000|56=SERVER|1=main|553=Group13|10=056|
[2026-04-01 08:38:24] [DEBUG] [FROM ADMIN] 8=FIX.4.4|9=82|35=0|34=12|49=SERVER|52=20260401-01:38:24.718|56=f2c11b00bf3d41fca072225f328ce98e|10=192|
[2026-04-01 08:38:54] [DEBUG] [TO ADMIN] 8=FIX.4.4|9=101|35=0|34=13|49=f2c11b00bf3d41fca072225f328ce98e|52=20260401-01:38:54.000|56=SERVER|1=main|553=Group13|10=060|
[2026-04-01 08:38:54] [DEBUG] [FROM ADMIN] 8=FIX.4.4|9=82|35=0|34=13|49=SERVER|52=20260401-01:38:54.718|56=f2c11b00bf3d41fca072225f328ce98e|10=196|
[2026-04-01 08:39:09] [DEBUG] POST https://papertrade.algotrade.vn/accounting/api/portfolio-by-sub/basic payload_keys=['fixAccountID', 'subAccountID']
[2026-04-01 08:39:10] [DEBUG] POST https://papertrade.algotrade.vn/accounting/api/portfolio-by-sub/basic succeeded status_code=200
[2026-04-01 08:39:10] [INFO] event=portfolio_resolved fixAccountID=f72030f52dc94e38b4c32ee0d7f9a03b subAccountID=main instrument_count=1
[2026-04-01 08:39:24] [DEBUG] [TO ADMIN] 8=FIX.4.4|9=101|35=0|34=14|49=f2c11b00bf3d41fca072225f328ce98e|52=20260401-01:39:24.000|56=SERVER|1=main|553=Group13|10=059|
[2026-04-01 08:39:24] [DEBUG] [FROM ADMIN] 8=FIX.4.4|9=82|35=0|34=14|49=SERVER|52=20260401-01:39:24.714|56=f2c11b00bf3d41fca072225f328ce98e|10=191|
[2026-04-01 08:39:54] [DEBUG] [FROM ADMIN] 8=FIX.4.4|9=82|35=0|34=15|49=SERVER|52=20260401-01:39:54.718|56=f2c11b00bf3d41fca072225f328ce98e|10=199|
[2026-04-01 08:39:54] [DEBUG] [TO ADMIN] 8=FIX.4.4|9=101|35=0|34=15|49=f2c11b00bf3d41fca072225f328ce98e|52=20260401-01:39:54.000|56=SERVER|1=main|553=Group13|10=063|
[2026-04-01 08:40:10] [DEBUG] POST https://papertrade.algotrade.vn/accounting/api/portfolio-by-sub/basic payload_keys=['fixAccountID', 'subAccountID']
[2026-04-01 08:40:11] [DEBUG] POST https://papertrade.algotrade.vn/accounting/api/portfolio-by-sub/basic succeeded status_code=200
[2026-04-01 08:40:11] [INFO] event=portfolio_resolved fixAccountID=f72030f52dc94e38b4c32ee0d7f9a03b subAccountID=main instrument_count=1
[2026-04-01 08:40:24] [DEBUG] [TO ADMIN] 8=FIX.4.4|9=101|35=0|34=16|49=f2c11b00bf3d41fca072225f328ce98e|52=20260401-01:40:24.000|56=SERVER|1=main|553=Group13|10=053|
[2026-04-01 08:40:24] [DEBUG] [FROM ADMIN] 8=FIX.4.4|9=82|35=0|34=16|49=SERVER|52=20260401-01:40:24.718|56=f2c11b00bf3d41fca072225f328ce98e|10=189|
[2026-04-01 08:40:54] [DEBUG] [TO ADMIN] 8=FIX.4.4|9=101|35=0|34=17|49=f2c11b00bf3d41fca072225f328ce98e|52=20260401-01:40:54.000|56=SERVER|1=main|553=Group13|10=057|
[2026-04-01 08:40:54] [DEBUG] [FROM ADMIN] 8=FIX.4.4|9=82|35=0|34=17|49=SERVER|52=20260401-01:40:54.718|56=f2c11b00bf3d41fca072225f328ce98e|10=193|
[2026-04-01 08:41:05] [DEBUG] POST https://papertrade.algotrade.vn/accounting/api/portfolio-by-sub/basic payload_keys=['fixAccountID', 'subAccountID']
[2026-04-01 08:41:05] [DEBUG] POST https://papertrade.algotrade.vn/accounting/api/portfolio-by-sub/basic succeeded status_code=200
[2026-04-01 08:41:05] [INFO] event=portfolio_resolved fixAccountID=f72030f52dc94e38b4c32ee0d7f9a03b subAccountID=main instrument_count=1
[2026-04-01 08:41:24] [DEBUG] [TO ADMIN] 8=FIX.4.4|9=101|35=0|34=18|49=f2c11b00bf3d41fca072225f328ce98e|52=20260401-01:41:24.000|56=SERVER|1=main|553=Group13|10=056|
[2026-04-01 08:41:24] [DEBUG] [FROM ADMIN] 8=FIX.4.4|9=82|35=0|34=18|49=SERVER|52=20260401-01:41:24.718|56=f2c11b00bf3d41fca072225f328ce98e|10=192|
[2026-04-01 08:41:54] [DEBUG] [TO ADMIN] 8=FIX.4.4|9=101|35=0|34=19|49=f2c11b00bf3d41fca072225f328ce98e|52=20260401-01:41:54.000|56=SERVER|1=main|553=Group13|10=060|
[2026-04-01 08:41:54] [DEBUG] [FROM ADMIN] 8=FIX.4.4|9=82|35=0|34=19|49=SERVER|52=20260401-01:41:54.718|56=f2c11b00bf3d41fca072225f328ce98e|10=196|
[2026-04-01 08:42:10] [DEBUG] POST https://papertrade.algotrade.vn/accounting/api/portfolio-by-sub/basic payload_keys=['fixAccountID', 'subAccountID']
[2026-04-01 08:42:10] [DEBUG] POST https://papertrade.algotrade.vn/accounting/api/portfolio-by-sub/basic succeeded status_code=200
[2026-04-01 08:42:10] [INFO] event=portfolio_resolved fixAccountID=f72030f52dc94e38b4c32ee0d7f9a03b subAccountID=main instrument_count=1
[2026-04-01 08:42:24] [DEBUG] [TO ADMIN] 8=FIX.4.4|9=101|35=0|34=20|49=f2c11b00bf3d41fca072225f328ce98e|52=20260401-01:42:24.000|56=SERVER|1=main|553=Group13|10=050|
[2026-04-01 08:42:24] [DEBUG] [FROM ADMIN] 8=FIX.4.4|9=82|35=0|34=20|49=SERVER|52=20260401-01:42:24.718|56=f2c11b00bf3d41fca072225f328ce98e|10=186|
[2026-04-01 08:42:54] [DEBUG] [TO ADMIN] 8=FIX.4.4|9=101|35=0|34=21|49=f2c11b00bf3d41fca072225f328ce98e|52=20260401-01:42:54.000|56=SERVER|1=main|553=Group13|10=054|
[2026-04-01 08:42:54] [DEBUG] [FROM ADMIN] 8=FIX.4.4|9=82|35=0|34=21|49=SERVER|52=20260401-01:42:54.718|56=f2c11b00bf3d41fca072225f328ce98e|10=190|
[2026-04-01 08:43:18] [DEBUG] POST https://papertrade.algotrade.vn/accounting/api/portfolio-by-sub/basic payload_keys=['fixAccountID', 'subAccountID']
[2026-04-01 08:43:18] [DEBUG] POST https://papertrade.algotrade.vn/accounting/api/portfolio-by-sub/basic succeeded status_code=200
[2026-04-01 08:43:18] [INFO] event=portfolio_resolved fixAccountID=f72030f52dc94e38b4c32ee0d7f9a03b subAccountID=main instrument_count=1
[2026-04-01 08:43:24] [DEBUG] [TO ADMIN] 8=FIX.4.4|9=101|35=0|34=22|49=f2c11b00bf3d41fca072225f328ce98e|52=20260401-01:43:24.000|56=SERVER|1=main|553=Group13|10=053|
[2026-04-01 08:43:24] [DEBUG] [FROM ADMIN] 8=FIX.4.4|9=82|35=0|34=22|49=SERVER|52=20260401-01:43:24.718|56=f2c11b00bf3d41fca072225f328ce98e|10=189|
[2026-04-01 08:43:54] [DEBUG] [TO ADMIN] 8=FIX.4.4|9=101|35=0|34=23|49=f2c11b00bf3d41fca072225f328ce98e|52=20260401-01:43:54.000|56=SERVER|1=main|553=Group13|10=057|
[2026-04-01 08:43:54] [DEBUG] [FROM ADMIN] 8=FIX.4.4|9=82|35=0|34=23|49=SERVER|52=20260401-01:43:54.718|56=f2c11b00bf3d41fca072225f328ce98e|10=193|
[2026-04-01 08:44:14] [DEBUG] POST https://papertrade.algotrade.vn/accounting/api/portfolio-by-sub/basic payload_keys=['fixAccountID', 'subAccountID']
[2026-04-01 08:44:15] [DEBUG] POST https://papertrade.algotrade.vn/accounting/api/portfolio-by-sub/basic succeeded status_code=200
[2026-04-01 08:44:15] [INFO] event=portfolio_resolved fixAccountID=f72030f52dc94e38b4c32ee0d7f9a03b subAccountID=main instrument_count=1
[2026-04-01 08:44:24] [DEBUG] [FROM ADMIN] 8=FIX.4.4|9=82|35=0|34=24|49=SERVER|52=20260401-01:44:24.718|56=f2c11b00bf3d41fca072225f328ce98e|10=192|
[2026-04-01 08:44:24] [DEBUG] [TO ADMIN] 8=FIX.4.4|9=101|35=0|34=24|49=f2c11b00bf3d41fca072225f328ce98e|52=20260401-01:44:24.000|56=SERVER|1=main|553=Group13|10=056|
[2026-04-01 08:44:54] [DEBUG] [TO ADMIN] 8=FIX.4.4|9=101|35=0|34=25|49=f2c11b00bf3d41fca072225f328ce98e|52=20260401-01:44:54.000|56=SERVER|1=main|553=Group13|10=060|
[2026-04-01 08:44:54] [DEBUG] [FROM ADMIN] 8=FIX.4.4|9=82|35=0|34=25|49=SERVER|52=20260401-01:44:54.718|56=f2c11b00bf3d41fca072225f328ce98e|10=196|
[2026-04-01 08:45:11] [DEBUG] POST https://papertrade.algotrade.vn/accounting/api/portfolio-by-sub/basic payload_keys=['fixAccountID', 'subAccountID']
[2026-04-01 08:45:11] [DEBUG] POST https://papertrade.algotrade.vn/accounting/api/portfolio-by-sub/basic succeeded status_code=200
[2026-04-01 08:45:11] [INFO] event=portfolio_resolved fixAccountID=f72030f52dc94e38b4c32ee0d7f9a03b subAccountID=main instrument_count=1
[2026-04-01 08:45:24] [DEBUG] [TO ADMIN] 8=FIX.4.4|9=101|35=0|34=26|49=f2c11b00bf3d41fca072225f328ce98e|52=20260401-01:45:24.000|56=SERVER|1=main|553=Group13|10=059|
[2026-04-01 08:45:24] [DEBUG] [FROM ADMIN] 8=FIX.4.4|9=82|35=0|34=26|49=SERVER|52=20260401-01:45:24.718|56=f2c11b00bf3d41fca072225f328ce98e|10=195|
[2026-04-01 08:45:54] [DEBUG] [TO ADMIN] 8=FIX.4.4|9=101|35=0|34=27|49=f2c11b00bf3d41fca072225f328ce98e|52=20260401-01:45:54.000|56=SERVER|1=main|553=Group13|10=063|
[2026-04-01 08:45:54] [DEBUG] [FROM ADMIN] 8=FIX.4.4|9=82|35=0|34=27|49=SERVER|52=20260401-01:45:54.718|56=f2c11b00bf3d41fca072225f328ce98e|10=199|
[2026-04-01 08:46:02] [DEBUG] POST https://papertrade.algotrade.vn/accounting/api/portfolio-by-sub/basic payload_keys=['fixAccountID', 'subAccountID']
[2026-04-01 08:46:02] [DEBUG] POST https://papertrade.algotrade.vn/accounting/api/portfolio-by-sub/basic succeeded status_code=200
[2026-04-01 08:46:02] [INFO] event=portfolio_resolved fixAccountID=f72030f52dc94e38b4c32ee0d7f9a03b subAccountID=main instrument_count=1
[2026-04-01 08:46:24] [DEBUG] [TO ADMIN] 8=FIX.4.4|9=101|35=0|34=28|49=f2c11b00bf3d41fca072225f328ce98e|52=20260401-01:46:24.000|56=SERVER|1=main|553=Group13|10=062|
[2026-04-01 08:46:24] [DEBUG] [FROM ADMIN] 8=FIX.4.4|9=82|35=0|34=28|49=SERVER|52=20260401-01:46:24.718|56=f2c11b00bf3d41fca072225f328ce98e|10=198|
[2026-04-01 08:46:54] [DEBUG] [TO ADMIN] 8=FIX.4.4|9=101|35=0|34=29|49=f2c11b00bf3d41fca072225f328ce98e|52=20260401-01:46:54.000|56=SERVER|1=main|553=Group13|10=066|
[2026-04-01 08:46:54] [DEBUG] [FROM ADMIN] 8=FIX.4.4|9=82|35=0|34=29|49=SERVER|52=20260401-01:46:54.718|56=f2c11b00bf3d41fca072225f328ce98e|10=202|
[2026-04-01 08:47:10] [DEBUG] POST https://papertrade.algotrade.vn/accounting/api/portfolio-by-sub/basic payload_keys=['fixAccountID', 'subAccountID']
[2026-04-01 08:47:10] [DEBUG] POST https://papertrade.algotrade.vn/accounting/api/portfolio-by-sub/basic succeeded status_code=200
[2026-04-01 08:47:10] [INFO] event=portfolio_resolved fixAccountID=f72030f52dc94e38b4c32ee0d7f9a03b subAccountID=main instrument_count=1
[2026-04-01 08:47:24] [DEBUG] [TO ADMIN] 8=FIX.4.4|9=101|35=0|34=30|49=f2c11b00bf3d41fca072225f328ce98e|52=20260401-01:47:24.000|56=SERVER|1=main|553=Group13|10=056|
[2026-04-01 08:47:24] [DEBUG] [FROM ADMIN] 8=FIX.4.4|9=82|35=0|34=30|49=SERVER|52=20260401-01:47:24.718|56=f2c11b00bf3d41fca072225f328ce98e|10=192|
[2026-04-01 08:47:54] [DEBUG] [TO ADMIN] 8=FIX.4.4|9=101|35=0|34=31|49=f2c11b00bf3d41fca072225f328ce98e|52=20260401-01:47:54.000|56=SERVER|1=main|553=Group13|10=060|
[2026-04-01 08:47:54] [DEBUG] [FROM ADMIN] 8=FIX.4.4|9=82|35=0|34=31|49=SERVER|52=20260401-01:47:54.718|56=f2c11b00bf3d41fca072225f328ce98e|10=196|
[2026-04-01 08:48:05] [DEBUG] POST https://papertrade.algotrade.vn/accounting/api/portfolio-by-sub/basic payload_keys=['fixAccountID', 'subAccountID']
[2026-04-01 08:48:05] [DEBUG] POST https://papertrade.algotrade.vn/accounting/api/portfolio-by-sub/basic succeeded status_code=200
[2026-04-01 08:48:05] [INFO] event=portfolio_resolved fixAccountID=f72030f52dc94e38b4c32ee0d7f9a03b subAccountID=main instrument_count=1
[2026-04-01 08:48:24] [DEBUG] [TO ADMIN] 8=FIX.4.4|9=101|35=0|34=32|49=f2c11b00bf3d41fca072225f328ce98e|52=20260401-01:48:24.000|56=SERVER|1=main|553=Group13|10=059|
[2026-04-01 08:48:24] [DEBUG] [FROM ADMIN] 8=FIX.4.4|9=82|35=0|34=32|49=SERVER|52=20260401-01:48:24.718|56=f2c11b00bf3d41fca072225f328ce98e|10=195|
[2026-04-01 08:48:54] [DEBUG] [TO ADMIN] 8=FIX.4.4|9=101|35=0|34=33|49=f2c11b00bf3d41fca072225f328ce98e|52=20260401-01:48:54.000|56=SERVER|1=main|553=Group13|10=063|
[2026-04-01 08:48:54] [DEBUG] [FROM ADMIN] 8=FIX.4.4|9=82|35=0|34=33|49=SERVER|52=20260401-01:48:54.718|56=f2c11b00bf3d41fca072225f328ce98e|10=199|
[2026-04-01 08:49:17] [DEBUG] POST https://papertrade.algotrade.vn/accounting/api/portfolio-by-sub/basic payload_keys=['fixAccountID', 'subAccountID']
[2026-04-01 08:49:17] [DEBUG] POST https://papertrade.algotrade.vn/accounting/api/portfolio-by-sub/basic succeeded status_code=200
[2026-04-01 08:49:17] [INFO] event=portfolio_resolved fixAccountID=f72030f52dc94e38b4c32ee0d7f9a03b subAccountID=main instrument_count=1
[2026-04-01 08:49:24] [DEBUG] [TO ADMIN] 8=FIX.4.4|9=101|35=0|34=34|49=f2c11b00bf3d41fca072225f328ce98e|52=20260401-01:49:24.000|56=SERVER|1=main|553=Group13|10=062|
[2026-04-01 08:49:24] [DEBUG] [FROM ADMIN] 8=FIX.4.4|9=82|35=0|34=34|49=SERVER|52=20260401-01:49:24.718|56=f2c11b00bf3d41fca072225f328ce98e|10=198|
[2026-04-01 08:49:54] [DEBUG] [TO ADMIN] 8=FIX.4.4|9=101|35=0|34=35|49=f2c11b00bf3d41fca072225f328ce98e|52=20260401-01:49:54.000|56=SERVER|1=main|553=Group13|10=066|
[2026-04-01 08:49:54] [DEBUG] [FROM ADMIN] 8=FIX.4.4|9=82|35=0|34=35|49=SERVER|52=20260401-01:49:54.718|56=f2c11b00bf3d41fca072225f328ce98e|10=202|
[2026-04-01 08:50:15] [DEBUG] POST https://papertrade.algotrade.vn/accounting/api/portfolio-by-sub/basic payload_keys=['fixAccountID', 'subAccountID']
[2026-04-01 08:50:16] [DEBUG] POST https://papertrade.algotrade.vn/accounting/api/portfolio-by-sub/basic succeeded status_code=200
[2026-04-01 08:50:16] [INFO] event=portfolio_resolved fixAccountID=f72030f52dc94e38b4c32ee0d7f9a03b subAccountID=main instrument_count=1
[2026-04-01 08:50:24] [DEBUG] [TO ADMIN] 8=FIX.4.4|9=101|35=0|34=36|49=f2c11b00bf3d41fca072225f328ce98e|52=20260401-01:50:24.000|56=SERVER|1=main|553=Group13|10=056|
[2026-04-01 08:50:24] [DEBUG] [FROM ADMIN] 8=FIX.4.4|9=82|35=0|34=36|49=SERVER|52=20260401-01:50:24.718|56=f2c11b00bf3d41fca072225f328ce98e|10=192|
[2026-04-01 08:50:54] [DEBUG] [TO ADMIN] 8=FIX.4.4|9=101|35=0|34=37|49=f2c11b00bf3d41fca072225f328ce98e|52=20260401-01:50:54.000|56=SERVER|1=main|553=Group13|10=060|
[2026-04-01 08:50:54] [DEBUG] [FROM ADMIN] 8=FIX.4.4|9=82|35=0|34=37|49=SERVER|52=20260401-01:50:54.718|56=f2c11b00bf3d41fca072225f328ce98e|10=196|
[2026-04-01 08:51:06] [DEBUG] POST https://papertrade.algotrade.vn/accounting/api/portfolio-by-sub/basic payload_keys=['fixAccountID', 'subAccountID']
[2026-04-01 08:51:07] [DEBUG] POST https://papertrade.algotrade.vn/accounting/api/portfolio-by-sub/basic succeeded status_code=200
[2026-04-01 08:51:07] [INFO] event=portfolio_resolved fixAccountID=f72030f52dc94e38b4c32ee0d7f9a03b subAccountID=main instrument_count=1
[2026-04-01 08:51:24] [DEBUG] [TO ADMIN] 8=FIX.4.4|9=101|35=0|34=38|49=f2c11b00bf3d41fca072225f328ce98e|52=20260401-01:51:24.000|56=SERVER|1=main|553=Group13|10=059|
[2026-04-01 08:51:24] [DEBUG] [FROM ADMIN] 8=FIX.4.4|9=82|35=0|34=38|49=SERVER|52=20260401-01:51:24.718|56=f2c11b00bf3d41fca072225f328ce98e|10=195|
[2026-04-01 08:51:54] [DEBUG] [TO ADMIN] 8=FIX.4.4|9=101|35=0|34=39|49=f2c11b00bf3d41fca072225f328ce98e|52=20260401-01:51:54.000|56=SERVER|1=main|553=Group13|10=063|
[2026-04-01 08:51:54] [DEBUG] [FROM ADMIN] 8=FIX.4.4|9=82|35=0|34=39|49=SERVER|52=20260401-01:51:54.718|56=f2c11b00bf3d41fca072225f328ce98e|10=199|
[2026-04-01 08:52:15] [DEBUG] POST https://papertrade.algotrade.vn/accounting/api/portfolio-by-sub/basic payload_keys=['fixAccountID', 'subAccountID']
[2026-04-01 08:52:15] [DEBUG] POST https://papertrade.algotrade.vn/accounting/api/portfolio-by-sub/basic succeeded status_code=200
[2026-04-01 08:52:15] [INFO] event=portfolio_resolved fixAccountID=f72030f52dc94e38b4c32ee0d7f9a03b subAccountID=main instrument_count=1
[2026-04-01 08:52:24] [DEBUG] [TO ADMIN] 8=FIX.4.4|9=101|35=0|34=40|49=f2c11b00bf3d41fca072225f328ce98e|52=20260401-01:52:24.000|56=SERVER|1=main|553=Group13|10=053|
[2026-04-01 08:52:24] [DEBUG] [FROM ADMIN] 8=FIX.4.4|9=82|35=0|34=40|49=SERVER|52=20260401-01:52:24.718|56=f2c11b00bf3d41fca072225f328ce98e|10=189|
[2026-04-01 08:52:54] [DEBUG] [TO ADMIN] 8=FIX.4.4|9=101|35=0|34=41|49=f2c11b00bf3d41fca072225f328ce98e|52=20260401-01:52:54.000|56=SERVER|1=main|553=Group13|10=057|
[2026-04-01 08:52:54] [DEBUG] [FROM ADMIN] 8=FIX.4.4|9=82|35=0|34=41|49=SERVER|52=20260401-01:52:54.718|56=f2c11b00bf3d41fca072225f328ce98e|10=193|
[2026-04-01 08:53:10] [DEBUG] POST https://papertrade.algotrade.vn/accounting/api/portfolio-by-sub/basic payload_keys=['fixAccountID', 'subAccountID']
[2026-04-01 08:53:10] [DEBUG] POST https://papertrade.algotrade.vn/accounting/api/portfolio-by-sub/basic succeeded status_code=200
[2026-04-01 08:53:10] [INFO] event=portfolio_resolved fixAccountID=f72030f52dc94e38b4c32ee0d7f9a03b subAccountID=main instrument_count=1
[2026-04-01 08:53:24] [DEBUG] [TO ADMIN] 8=FIX.4.4|9=101|35=0|34=42|49=f2c11b00bf3d41fca072225f328ce98e|52=20260401-01:53:24.000|56=SERVER|1=main|553=Group13|10=056|
[2026-04-01 08:53:24] [DEBUG] [FROM ADMIN] 8=FIX.4.4|9=82|35=0|34=42|49=SERVER|52=20260401-01:53:24.718|56=f2c11b00bf3d41fca072225f328ce98e|10=192|
[2026-04-01 08:53:54] [DEBUG] [TO ADMIN] 8=FIX.4.4|9=101|35=0|34=43|49=f2c11b00bf3d41fca072225f328ce98e|52=20260401-01:53:54.000|56=SERVER|1=main|553=Group13|10=060|
[2026-04-01 08:53:54] [DEBUG] [FROM ADMIN] 8=FIX.4.4|9=82|35=0|34=43|49=SERVER|52=20260401-01:53:54.718|56=f2c11b00bf3d41fca072225f328ce98e|10=196|
[2026-04-01 08:54:05] [DEBUG] POST https://papertrade.algotrade.vn/accounting/api/portfolio-by-sub/basic payload_keys=['fixAccountID', 'subAccountID']
[2026-04-01 08:54:05] [DEBUG] POST https://papertrade.algotrade.vn/accounting/api/portfolio-by-sub/basic succeeded status_code=200
[2026-04-01 08:54:05] [INFO] event=portfolio_resolved fixAccountID=f72030f52dc94e38b4c32ee0d7f9a03b subAccountID=main instrument_count=1
[2026-04-01 08:54:24] [DEBUG] [TO ADMIN] 8=FIX.4.4|9=101|35=0|34=44|49=f2c11b00bf3d41fca072225f328ce98e|52=20260401-01:54:24.000|56=SERVER|1=main|553=Group13|10=059|
[2026-04-01 08:54:24] [DEBUG] [FROM ADMIN] 8=FIX.4.4|9=82|35=0|34=44|49=SERVER|52=20260401-01:54:24.718|56=f2c11b00bf3d41fca072225f328ce98e|10=195|
[2026-04-01 08:54:54] [DEBUG] [TO ADMIN] 8=FIX.4.4|9=101|35=0|34=45|49=f2c11b00bf3d41fca072225f328ce98e|52=20260401-01:54:54.000|56=SERVER|1=main|553=Group13|10=063|
[2026-04-01 08:54:54] [DEBUG] [FROM ADMIN] 8=FIX.4.4|9=82|35=0|34=45|49=SERVER|52=20260401-01:54:54.718|56=f2c11b00bf3d41fca072225f328ce98e|10=199|
[2026-04-01 08:55:06] [DEBUG] POST https://papertrade.algotrade.vn/accounting/api/portfolio-by-sub/basic payload_keys=['fixAccountID', 'subAccountID']
[2026-04-01 08:55:06] [DEBUG] POST https://papertrade.algotrade.vn/accounting/api/portfolio-by-sub/basic succeeded status_code=200
[2026-04-01 08:55:06] [INFO] event=portfolio_resolved fixAccountID=f72030f52dc94e38b4c32ee0d7f9a03b subAccountID=main instrument_count=1
[2026-04-01 08:55:24] [DEBUG] [TO ADMIN] 8=FIX.4.4|9=101|35=0|34=46|49=f2c11b00bf3d41fca072225f328ce98e|52=20260401-01:55:24.000|56=SERVER|1=main|553=Group13|10=062|
[2026-04-01 08:55:24] [DEBUG] [FROM ADMIN] 8=FIX.4.4|9=82|35=0|34=46|49=SERVER|52=20260401-01:55:24.718|56=f2c11b00bf3d41fca072225f328ce98e|10=198|
[2026-04-01 08:55:54] [DEBUG] [TO ADMIN] 8=FIX.4.4|9=101|35=0|34=47|49=f2c11b00bf3d41fca072225f328ce98e|52=20260401-01:55:54.000|56=SERVER|1=main|553=Group13|10=066|
[2026-04-01 08:55:54] [DEBUG] [FROM ADMIN] 8=FIX.4.4|9=82|35=0|34=47|49=SERVER|52=20260401-01:55:54.718|56=f2c11b00bf3d41fca072225f328ce98e|10=202|
[2026-04-01 08:56:02] [DEBUG] POST https://papertrade.algotrade.vn/accounting/api/portfolio-by-sub/basic payload_keys=['fixAccountID', 'subAccountID']
[2026-04-01 08:56:02] [DEBUG] POST https://papertrade.algotrade.vn/accounting/api/portfolio-by-sub/basic succeeded status_code=200
[2026-04-01 08:56:02] [INFO] event=portfolio_resolved fixAccountID=f72030f52dc94e38b4c32ee0d7f9a03b subAccountID=main instrument_count=1
[2026-04-01 08:56:24] [DEBUG] [TO ADMIN] 8=FIX.4.4|9=101|35=0|34=48|49=f2c11b00bf3d41fca072225f328ce98e|52=20260401-01:56:24.000|56=SERVER|1=main|553=Group13|10=065|
[2026-04-01 08:56:24] [DEBUG] [FROM ADMIN] 8=FIX.4.4|9=82|35=0|34=48|49=SERVER|52=20260401-01:56:24.718|56=f2c11b00bf3d41fca072225f328ce98e|10=201|
[2026-04-01 08:56:54] [DEBUG] [TO ADMIN] 8=FIX.4.4|9=101|35=0|34=49|49=f2c11b00bf3d41fca072225f328ce98e|52=20260401-01:56:54.000|56=SERVER|1=main|553=Group13|10=069|
[2026-04-01 08:56:54] [DEBUG] [FROM ADMIN] 8=FIX.4.4|9=82|35=0|34=49|49=SERVER|52=20260401-01:56:54.718|56=f2c11b00bf3d41fca072225f328ce98e|10=205|
[2026-04-01 08:57:05] [DEBUG] POST https://papertrade.algotrade.vn/accounting/api/portfolio-by-sub/basic payload_keys=['fixAccountID', 'subAccountID']
[2026-04-01 08:57:06] [DEBUG] POST https://papertrade.algotrade.vn/accounting/api/portfolio-by-sub/basic succeeded status_code=200
[2026-04-01 08:57:06] [INFO] event=portfolio_resolved fixAccountID=f72030f52dc94e38b4c32ee0d7f9a03b subAccountID=main instrument_count=1
[2026-04-01 08:57:24] [DEBUG] [TO ADMIN] 8=FIX.4.4|9=101|35=0|34=50|49=f2c11b00bf3d41fca072225f328ce98e|52=20260401-01:57:24.000|56=SERVER|1=main|553=Group13|10=059|
[2026-04-01 08:57:24] [DEBUG] [FROM ADMIN] 8=FIX.4.4|9=82|35=0|34=50|49=SERVER|52=20260401-01:57:24.718|56=f2c11b00bf3d41fca072225f328ce98e|10=195|
[2026-04-01 08:57:54] [DEBUG] [TO ADMIN] 8=FIX.4.4|9=101|35=0|34=51|49=f2c11b00bf3d41fca072225f328ce98e|52=20260401-01:57:54.000|56=SERVER|1=main|553=Group13|10=063|
[2026-04-01 08:57:54] [DEBUG] [FROM ADMIN] 8=FIX.4.4|9=82|35=0|34=51|49=SERVER|52=20260401-01:57:54.718|56=f2c11b00bf3d41fca072225f328ce98e|10=199|
[2026-04-01 08:58:07] [DEBUG] POST https://papertrade.algotrade.vn/accounting/api/portfolio-by-sub/basic payload_keys=['fixAccountID', 'subAccountID']
[2026-04-01 08:58:07] [DEBUG] POST https://papertrade.algotrade.vn/accounting/api/portfolio-by-sub/basic succeeded status_code=200
[2026-04-01 08:58:07] [INFO] event=portfolio_resolved fixAccountID=f72030f52dc94e38b4c32ee0d7f9a03b subAccountID=main instrument_count=1
[2026-04-01 08:58:24] [DEBUG] [TO ADMIN] 8=FIX.4.4|9=101|35=0|34=52|49=f2c11b00bf3d41fca072225f328ce98e|52=20260401-01:58:24.000|56=SERVER|1=main|553=Group13|10=062|
[2026-04-01 08:58:24] [DEBUG] [FROM ADMIN] 8=FIX.4.4|9=82|35=0|34=52|49=SERVER|52=20260401-01:58:24.718|56=f2c11b00bf3d41fca072225f328ce98e|10=198|
[2026-04-01 08:58:54] [DEBUG] [TO ADMIN] 8=FIX.4.4|9=101|35=0|34=53|49=f2c11b00bf3d41fca072225f328ce98e|52=20260401-01:58:54.000|56=SERVER|1=main|553=Group13|10=066|
[2026-04-01 08:58:54] [DEBUG] [FROM ADMIN] 8=FIX.4.4|9=82|35=0|34=53|49=SERVER|52=20260401-01:58:54.718|56=f2c11b00bf3d41fca072225f328ce98e|10=202|
[2026-04-01 08:59:03] [DEBUG] POST https://papertrade.algotrade.vn/accounting/api/portfolio-by-sub/basic payload_keys=['fixAccountID', 'subAccountID']
[2026-04-01 08:59:03] [DEBUG] POST https://papertrade.algotrade.vn/accounting/api/portfolio-by-sub/basic succeeded status_code=200
[2026-04-01 08:59:03] [INFO] event=portfolio_resolved fixAccountID=f72030f52dc94e38b4c32ee0d7f9a03b subAccountID=main instrument_count=1
[2026-04-01 08:59:24] [DEBUG] [TO ADMIN] 8=FIX.4.4|9=101|35=0|34=54|49=f2c11b00bf3d41fca072225f328ce98e|52=20260401-01:59:24.000|56=SERVER|1=main|553=Group13|10=065|
[2026-04-01 08:59:24] [DEBUG] [FROM ADMIN] 8=FIX.4.4|9=82|35=0|34=54|49=SERVER|52=20260401-01:59:24.718|56=f2c11b00bf3d41fca072225f328ce98e|10=201|
[2026-04-01 08:59:54] [DEBUG] [TO ADMIN] 8=FIX.4.4|9=101|35=0|34=55|49=f2c11b00bf3d41fca072225f328ce98e|52=20260401-01:59:54.000|56=SERVER|1=main|553=Group13|10=069|
[2026-04-01 08:59:54] [DEBUG] [FROM ADMIN] 8=FIX.4.4|9=82|35=0|34=55|49=SERVER|52=20260401-01:59:54.718|56=f2c11b00bf3d41fca072225f328ce98e|10=205|
[2026-04-01 09:00:02] [DEBUG] POST https://papertrade.algotrade.vn/accounting/api/portfolio-by-sub/basic payload_keys=['fixAccountID', 'subAccountID']
[2026-04-01 09:00:02] [DEBUG] POST https://papertrade.algotrade.vn/accounting/api/portfolio-by-sub/basic succeeded status_code=200
[2026-04-01 09:00:02] [INFO] event=portfolio_resolved fixAccountID=f72030f52dc94e38b4c32ee0d7f9a03b subAccountID=main instrument_count=1
[2026-04-01 09:00:24] [DEBUG] [TO ADMIN] 8=FIX.4.4|9=101|35=0|34=56|49=f2c11b00bf3d41fca072225f328ce98e|52=20260401-02:00:24.000|56=SERVER|1=main|553=Group13|10=054|
[2026-04-01 09:00:24] [DEBUG] [FROM ADMIN] 8=FIX.4.4|9=82|35=0|34=56|49=SERVER|52=20260401-02:00:24.718|56=f2c11b00bf3d41fca072225f328ce98e|10=190|
[2026-04-01 09:00:54] [DEBUG] [TO ADMIN] 8=FIX.4.4|9=101|35=0|34=57|49=f2c11b00bf3d41fca072225f328ce98e|52=20260401-02:00:54.000|56=SERVER|1=main|553=Group13|10=058|
[2026-04-01 09:00:54] [DEBUG] [FROM ADMIN] 8=FIX.4.4|9=82|35=0|34=57|49=SERVER|52=20260401-02:00:54.718|56=f2c11b00bf3d41fca072225f328ce98e|10=194|
[2026-04-01 09:01:06] [DEBUG] POST https://papertrade.algotrade.vn/accounting/api/portfolio-by-sub/basic payload_keys=['fixAccountID', 'subAccountID']
[2026-04-01 09:01:06] [DEBUG] POST https://papertrade.algotrade.vn/accounting/api/portfolio-by-sub/basic succeeded status_code=200
[2026-04-01 09:01:06] [INFO] event=portfolio_resolved fixAccountID=f72030f52dc94e38b4c32ee0d7f9a03b subAccountID=main instrument_count=1
[2026-04-01 09:01:24] [DEBUG] [TO ADMIN] 8=FIX.4.4|9=101|35=0|34=58|49=f2c11b00bf3d41fca072225f328ce98e|52=20260401-02:01:24.000|56=SERVER|1=main|553=Group13|10=057|
[2026-04-01 09:01:24] [DEBUG] [FROM ADMIN] 8=FIX.4.4|9=82|35=0|34=58|49=SERVER|52=20260401-02:01:24.718|56=f2c11b00bf3d41fca072225f328ce98e|10=193|
[2026-04-01 09:01:54] [DEBUG] [TO ADMIN] 8=FIX.4.4|9=101|35=0|34=59|49=f2c11b00bf3d41fca072225f328ce98e|52=20260401-02:01:54.000|56=SERVER|1=main|553=Group13|10=061|
[2026-04-01 09:01:54] [DEBUG] [FROM ADMIN] 8=FIX.4.4|9=82|35=0|34=59|49=SERVER|52=20260401-02:01:54.718|56=f2c11b00bf3d41fca072225f328ce98e|10=197|
[2026-04-01 09:02:03] [DEBUG] POST https://papertrade.algotrade.vn/accounting/api/portfolio-by-sub/basic payload_keys=['fixAccountID', 'subAccountID']
[2026-04-01 09:02:04] [DEBUG] POST https://papertrade.algotrade.vn/accounting/api/portfolio-by-sub/basic succeeded status_code=200
[2026-04-01 09:02:04] [INFO] event=portfolio_resolved fixAccountID=f72030f52dc94e38b4c32ee0d7f9a03b subAccountID=main instrument_count=1
[2026-04-01 09:02:24] [DEBUG] [TO ADMIN] 8=FIX.4.4|9=101|35=0|34=60|49=f2c11b00bf3d41fca072225f328ce98e|52=20260401-02:02:24.000|56=SERVER|1=main|553=Group13|10=051|
[2026-04-01 09:02:24] [DEBUG] [FROM ADMIN] 8=FIX.4.4|9=82|35=0|34=60|49=SERVER|52=20260401-02:02:24.718|56=f2c11b00bf3d41fca072225f328ce98e|10=187|
[2026-04-01 09:02:54] [DEBUG] [TO ADMIN] 8=FIX.4.4|9=101|35=0|34=61|49=f2c11b00bf3d41fca072225f328ce98e|52=20260401-02:02:54.000|56=SERVER|1=main|553=Group13|10=055|
[2026-04-01 09:02:54] [DEBUG] [FROM ADMIN] 8=FIX.4.4|9=82|35=0|34=61|49=SERVER|52=20260401-02:02:54.718|56=f2c11b00bf3d41fca072225f328ce98e|10=191|
[2026-04-01 09:03:02] [DEBUG] POST https://papertrade.algotrade.vn/accounting/api/portfolio-by-sub/basic payload_keys=['fixAccountID', 'subAccountID']
[2026-04-01 09:03:02] [DEBUG] POST https://papertrade.algotrade.vn/accounting/api/portfolio-by-sub/basic succeeded status_code=200
[2026-04-01 09:03:02] [INFO] event=portfolio_resolved fixAccountID=f72030f52dc94e38b4c32ee0d7f9a03b subAccountID=main instrument_count=1
[2026-04-01 09:03:24] [DEBUG] [TO ADMIN] 8=FIX.4.4|9=101|35=0|34=62|49=f2c11b00bf3d41fca072225f328ce98e|52=20260401-02:03:24.000|56=SERVER|1=main|553=Group13|10=054|
[2026-04-01 09:03:24] [DEBUG] [FROM ADMIN] 8=FIX.4.4|9=82|35=0|34=62|49=SERVER|52=20260401-02:03:24.718|56=f2c11b00bf3d41fca072225f328ce98e|10=190|
[2026-04-01 09:03:54] [DEBUG] [TO ADMIN] 8=FIX.4.4|9=101|35=0|34=63|49=f2c11b00bf3d41fca072225f328ce98e|52=20260401-02:03:54.000|56=SERVER|1=main|553=Group13|10=058|
[2026-04-01 09:03:54] [DEBUG] [FROM ADMIN] 8=FIX.4.4|9=82|35=0|34=63|49=SERVER|52=20260401-02:03:54.718|56=f2c11b00bf3d41fca072225f328ce98e|10=194|
[2026-04-01 09:04:02] [DEBUG] POST https://papertrade.algotrade.vn/accounting/api/portfolio-by-sub/basic payload_keys=['fixAccountID', 'subAccountID']
[2026-04-01 09:04:02] [DEBUG] POST https://papertrade.algotrade.vn/accounting/api/portfolio-by-sub/basic succeeded status_code=200
[2026-04-01 09:04:02] [INFO] event=portfolio_resolved fixAccountID=f72030f52dc94e38b4c32ee0d7f9a03b subAccountID=main instrument_count=1
[2026-04-01 09:04:24] [DEBUG] [TO ADMIN] 8=FIX.4.4|9=101|35=0|34=64|49=f2c11b00bf3d41fca072225f328ce98e|52=20260401-02:04:24.000|56=SERVER|1=main|553=Group13|10=057|
[2026-04-01 09:04:24] [DEBUG] [FROM ADMIN] 8=FIX.4.4|9=82|35=0|34=64|49=SERVER|52=20260401-02:04:24.718|56=f2c11b00bf3d41fca072225f328ce98e|10=193|
[2026-04-01 09:04:54] [DEBUG] [TO ADMIN] 8=FIX.4.4|9=101|35=0|34=65|49=f2c11b00bf3d41fca072225f328ce98e|52=20260401-02:04:54.000|56=SERVER|1=main|553=Group13|10=061|
[2026-04-01 09:04:54] [DEBUG] [FROM ADMIN] 8=FIX.4.4|9=82|35=0|34=65|49=SERVER|52=20260401-02:04:54.718|56=f2c11b00bf3d41fca072225f328ce98e|10=197|
[2026-04-01 09:05:04] [DEBUG] POST https://papertrade.algotrade.vn/accounting/api/portfolio-by-sub/basic payload_keys=['fixAccountID', 'subAccountID']
[2026-04-01 09:05:04] [DEBUG] POST https://papertrade.algotrade.vn/accounting/api/portfolio-by-sub/basic succeeded status_code=200
[2026-04-01 09:05:04] [INFO] event=portfolio_resolved fixAccountID=f72030f52dc94e38b4c32ee0d7f9a03b subAccountID=main instrument_count=1
[2026-04-01 09:05:24] [DEBUG] [TO ADMIN] 8=FIX.4.4|9=101|35=0|34=66|49=f2c11b00bf3d41fca072225f328ce98e|52=20260401-02:05:24.000|56=SERVER|1=main|553=Group13|10=060|
[2026-04-01 09:05:24] [DEBUG] [FROM ADMIN] 8=FIX.4.4|9=82|35=0|34=66|49=SERVER|52=20260401-02:05:24.718|56=f2c11b00bf3d41fca072225f328ce98e|10=196|
[2026-04-01 09:05:54] [DEBUG] [TO ADMIN] 8=FIX.4.4|9=101|35=0|34=67|49=f2c11b00bf3d41fca072225f328ce98e|52=20260401-02:05:54.000|56=SERVER|1=main|553=Group13|10=064|
[2026-04-01 09:05:54] [DEBUG] [FROM ADMIN] 8=FIX.4.4|9=82|35=0|34=67|49=SERVER|52=20260401-02:05:54.718|56=f2c11b00bf3d41fca072225f328ce98e|10=200|
[2026-04-01 09:06:05] [DEBUG] POST https://papertrade.algotrade.vn/accounting/api/portfolio-by-sub/basic payload_keys=['fixAccountID', 'subAccountID']
[2026-04-01 09:06:05] [DEBUG] POST https://papertrade.algotrade.vn/accounting/api/portfolio-by-sub/basic succeeded status_code=200
[2026-04-01 09:06:05] [INFO] event=portfolio_resolved fixAccountID=f72030f52dc94e38b4c32ee0d7f9a03b subAccountID=main instrument_count=1
[2026-04-01 09:06:24] [DEBUG] [TO ADMIN] 8=FIX.4.4|9=101|35=0|34=68|49=f2c11b00bf3d41fca072225f328ce98e|52=20260401-02:06:24.000|56=SERVER|1=main|553=Group13|10=063|
[2026-04-01 09:06:24] [DEBUG] [FROM ADMIN] 8=FIX.4.4|9=82|35=0|34=68|49=SERVER|52=20260401-02:06:24.718|56=f2c11b00bf3d41fca072225f328ce98e|10=199|
[2026-04-01 09:06:54] [DEBUG] [TO ADMIN] 8=FIX.4.4|9=101|35=0|34=69|49=f2c11b00bf3d41fca072225f328ce98e|52=20260401-02:06:54.000|56=SERVER|1=main|553=Group13|10=067|
[2026-04-01 09:06:54] [DEBUG] [FROM ADMIN] 8=FIX.4.4|9=82|35=0|34=69|49=SERVER|52=20260401-02:06:54.718|56=f2c11b00bf3d41fca072225f328ce98e|10=203|
[2026-04-01 09:07:25] [INFO] Session created: FIX.4.4:f2c11b00bf3d41fca072225f328ce98e->SERVER
[2026-04-01 09:07:25] [DEBUG] FIXSessionManager initialized config=/var/folders/3v/rnx_2jlj5kg92m637d62559r0000gn/T/paperbroker_uytj9o74.cfg username=Group13
[2026-04-01 09:07:25] [DEBUG] RestSession initialized with base_url: https://papertrade.algotrade.vn/accounting
[2026-04-01 09:07:25] [DEBUG] Registered handler for event 'fix:order:filled'. Total handlers: 1
[2026-04-01 09:07:25] [INFO] Starting FIX session...
[2026-04-01 09:07:25] [DEBUG] POST https://papertrade.algotrade.vn/accounting/api/fix-account-info/get-fix-id payload_keys=['username', 'password']
[2026-04-01 09:07:25] [DEBUG] [TO ADMIN] 8=FIX.4.4|9=135|35=A|34=1|49=f2c11b00bf3d41fca072225f328ce98e|52=20260401-02:07:25.000|56=SERVER|1=main|98=0|108=30|141=Y|553=Group13|554=yCr8g4w0tLuT|10=111|
[2026-04-01 09:07:26] [DEBUG] POST https://papertrade.algotrade.vn/accounting/api/fix-account-info/get-fix-id succeeded status_code=200
[2026-04-01 09:07:26] [INFO] event=fix_id_resolved username=Group13 fixAccountID=f72030f52dc94e38b4c32ee0d7f9a03b
[2026-04-01 09:07:26] [DEBUG] [FROM ADMIN] 8=FIX.4.4|9=99|35=A|34=1|49=SERVER|52=20260401-02:07:26.230|56=f2c11b00bf3d41fca072225f328ce98e|98=0|108=30|141=Y|10=225|
[2026-04-01 09:07:26] [INFO] Logon success: FIX.4.4:f2c11b00bf3d41fca072225f328ce98e->SERVER
[2026-04-01 09:07:26] [INFO] Order manager session set: FIX.4.4:f2c11b00bf3d41fca072225f328ce98e->SERVER
[2026-04-01 09:07:26] [DEBUG] No handlers registered for event 'fix:logon'
[2026-04-01 09:07:38] [DEBUG] [TO APP] 8=FIX.4.4|9=186|35=D|34=2|49=f2c11b00bf3d41fca072225f328ce98e|52=20260401-02:07:38.000|56=SERVER|1=main|11=1624d205|38=3|40=2|44=1866.7|54=1|55=VN30F2604|59=1|60=20260401-02:07:38|207=HNXDS|553=Group13|10=252|
[2026-04-01 09:07:38] [INFO] [ORDER] Sent new order: 1624d205
[2026-04-01 09:07:38] [DEBUG] No handlers registered for event 'fix:order:submit'
[2026-04-01 09:07:38] [INFO] [FROM APP] 8=FIX.4.4|9=284|35=8|34=2|49=SERVER|52=20260401-02:07:38.375|56=f2c11b00bf3d41fca072225f328ce98e|1=main|6=0|11=1624d205|14=0|17=22f49069-0531-420b-bd40-e738b59f7391|37=bd6b1c2f-2d93-4485-95f2-22b99f585da7|38=3|39=A|40=2|44=1866.7|54=1|55=VN30F2604|59=1|60=20260401-02:07:38.374|150=A|151=3|207=HNXDS|10=040|
[2026-04-01 09:07:38] [INFO] [PENDING_NEW] 1624d205 at 2026-04-01T02:07:38.374000+00:00
[2026-04-01 09:07:38] [DEBUG] No handlers registered for event 'fix:order:update'
[2026-04-01 09:07:38] [DEBUG] No handlers registered for event 'fix:order:pending_new'
[2026-04-01 09:07:38] [INFO] [FROM APP] 8=FIX.4.4|9=284|35=8|34=3|49=SERVER|52=20260401-02:07:38.412|56=f2c11b00bf3d41fca072225f328ce98e|1=main|6=0|11=1624d205|14=0|17=514dc195-b36d-4168-a470-9ab88f1b8105|37=bd6b1c2f-2d93-4485-95f2-22b99f585da7|38=3|39=0|40=2|44=1866.7|54=1|55=VN30F2604|59=1|60=20260401-02:07:38.411|150=0|151=3|207=HNXDS|10=086|
[2026-04-01 09:07:38] [INFO] [NEW] Order 1624d205 accepted at 2026-04-01T02:07:38.411000+00:00
[2026-04-01 09:07:38] [DEBUG] No handlers registered for event 'fix:order:update'
[2026-04-01 09:07:38] [DEBUG] No handlers registered for event 'fix:order:accepted'
[2026-04-01 09:07:40] [INFO] [FROM APP] 8=FIX.4.4|9=304|35=8|34=4|49=SERVER|52=20260401-02:07:40.180|56=f2c11b00bf3d41fca072225f328ce98e|1=main|6=1865.9|11=1624d205|14=3|17=31166784-9d27-437a-8eca-33618391beb2|31=1865.9|32=3|37=bd6b1c2f-2d93-4485-95f2-22b99f585da7|38=3|39=2|40=2|44=1865.9|54=1|55=VN30F2604|59=1|60=20260401-09:07:38.050|150=F|151=0|207=HNXDS|10=254|
[2026-04-01 09:07:40] [INFO] [TRADE] 1624d205: Traded 3.0 @ 1865.9 at 2026-04-01T09:07:38.050000+00:00 (OrdStatus=2)
[2026-04-01 09:07:40] [DEBUG] No handlers registered for event 'fix:order:update'
[2026-04-01 09:07:40] [DEBUG] Emitting event 'fix:order:filled' to 1 handler(s)
[2026-04-01 09:08:58] [INFO] Session created: FIX.4.4:f2c11b00bf3d41fca072225f328ce98e->SERVER
[2026-04-01 09:08:58] [DEBUG] FIXSessionManager initialized config=/var/folders/3v/rnx_2jlj5kg92m637d62559r0000gn/T/paperbroker_9w00r_ts.cfg username=Group13
[2026-04-01 09:08:58] [DEBUG] RestSession initialized with base_url: https://papertrade.algotrade.vn/accounting
[2026-04-01 09:08:58] [DEBUG] Registered handler for event 'fix:logon'. Total handlers: 1
[2026-04-01 09:08:58] [DEBUG] Registered handler for event 'fix:execution_report'. Total handlers: 2
[2026-04-01 09:08:58] [DEBUG] Registered handler for event 'fix:order:filled'. Total handlers: 3
[2026-04-01 09:08:58] [DEBUG] POST https://papertrade.algotrade.vn/accounting/api/fix-account-info/get-fix-id payload_keys=['username', 'password']
[2026-04-01 09:08:58] [DEBUG] POST https://papertrade.algotrade.vn/accounting/api/fix-account-info/get-fix-id succeeded status_code=200
[2026-04-01 09:08:58] [INFO] event=fix_id_resolved username=Group13 fixAccountID=f72030f52dc94e38b4c32ee0d7f9a03b
[2026-04-01 09:08:58] [DEBUG] POST https://papertrade.algotrade.vn/accounting/api/portfolio-by-sub/basic payload_keys=['fixAccountID', 'subAccountID']
[2026-04-01 09:08:59] [DEBUG] POST https://papertrade.algotrade.vn/accounting/api/portfolio-by-sub/basic succeeded status_code=200
[2026-04-01 09:08:59] [INFO] event=portfolio_resolved fixAccountID=f72030f52dc94e38b4c32ee0d7f9a03b subAccountID=main instrument_count=0
[2026-04-01 09:08:59] [INFO] Starting FIX session...
[2026-04-01 09:08:59] [DEBUG] [TO ADMIN] 8=FIX.4.4|9=135|35=A|34=1|49=f2c11b00bf3d41fca072225f328ce98e|52=20260401-02:08:59.000|56=SERVER|1=main|98=0|108=30|141=Y|553=Group13|554=yCr8g4w0tLuT|10=119|
[2026-04-01 09:08:59] [DEBUG] [FROM ADMIN] 8=FIX.4.4|9=99|35=A|34=1|49=SERVER|52=20260401-02:08:59.821|56=f2c11b00bf3d41fca072225f328ce98e|98=0|108=30|141=Y|10=238|
[2026-04-01 09:08:59] [INFO] Logon success: FIX.4.4:f2c11b00bf3d41fca072225f328ce98e->SERVER
[2026-04-01 09:08:59] [INFO] Order manager session set: FIX.4.4:f2c11b00bf3d41fca072225f328ce98e->SERVER
[2026-04-01 09:08:59] [DEBUG] Emitting event 'fix:logon' to 1 handler(s)
[2026-04-01 09:08:59] [DEBUG] POST https://papertrade.algotrade.vn/accounting/api/portfolio-by-sub/basic payload_keys=['fixAccountID', 'subAccountID']
[2026-04-01 09:08:59] [DEBUG] POST https://papertrade.algotrade.vn/accounting/api/portfolio-by-sub/basic succeeded status_code=200
[2026-04-01 09:08:59] [INFO] event=portfolio_resolved fixAccountID=f72030f52dc94e38b4c32ee0d7f9a03b subAccountID=main instrument_count=0
[2026-04-01 09:09:20] [INFO] Session created: FIX.4.4:f2c11b00bf3d41fca072225f328ce98e->SERVER
[2026-04-01 09:09:20] [DEBUG] FIXSessionManager initialized config=/var/folders/3v/rnx_2jlj5kg92m637d62559r0000gn/T/paperbroker_nivgtday.cfg username=Group13
[2026-04-01 09:09:20] [DEBUG] RestSession initialized with base_url: https://papertrade.algotrade.vn/accounting
[2026-04-01 09:09:20] [DEBUG] Registered handler for event 'fix:logon'. Total handlers: 1
[2026-04-01 09:09:20] [DEBUG] Registered handler for event 'fix:execution_report'. Total handlers: 2
[2026-04-01 09:09:20] [DEBUG] Registered handler for event 'fix:order:filled'. Total handlers: 3
[2026-04-01 09:09:20] [DEBUG] POST https://papertrade.algotrade.vn/accounting/api/fix-account-info/get-fix-id payload_keys=['username', 'password']
[2026-04-01 09:09:21] [DEBUG] POST https://papertrade.algotrade.vn/accounting/api/fix-account-info/get-fix-id succeeded status_code=200
[2026-04-01 09:09:21] [INFO] event=fix_id_resolved username=Group13 fixAccountID=f72030f52dc94e38b4c32ee0d7f9a03b
[2026-04-01 09:09:21] [DEBUG] POST https://papertrade.algotrade.vn/accounting/api/portfolio-by-sub/basic payload_keys=['fixAccountID', 'subAccountID']
[2026-04-01 09:09:21] [DEBUG] POST https://papertrade.algotrade.vn/accounting/api/portfolio-by-sub/basic succeeded status_code=200
[2026-04-01 09:09:21] [INFO] event=portfolio_resolved fixAccountID=f72030f52dc94e38b4c32ee0d7f9a03b subAccountID=main instrument_count=0
[2026-04-01 09:09:21] [INFO] Starting FIX session...
[2026-04-01 09:09:22] [DEBUG] [TO ADMIN] 8=FIX.4.4|9=135|35=A|34=1|49=f2c11b00bf3d41fca072225f328ce98e|52=20260401-02:09:22.000|56=SERVER|1=main|98=0|108=30|141=Y|553=Group13|554=yCr8g4w0tLuT|10=110|
[2026-04-01 09:09:22] [DEBUG] [FROM ADMIN] 8=FIX.4.4|9=99|35=A|34=1|49=SERVER|52=20260401-02:09:22.777|56=f2c11b00bf3d41fca072225f328ce98e|98=0|108=30|141=Y|10=239|
[2026-04-01 09:09:22] [INFO] Logon success: FIX.4.4:f2c11b00bf3d41fca072225f328ce98e->SERVER
[2026-04-01 09:09:22] [INFO] Order manager session set: FIX.4.4:f2c11b00bf3d41fca072225f328ce98e->SERVER
[2026-04-01 09:09:22] [DEBUG] Emitting event 'fix:logon' to 1 handler(s)
[2026-04-01 09:09:22] [DEBUG] POST https://papertrade.algotrade.vn/accounting/api/portfolio-by-sub/basic payload_keys=['fixAccountID', 'subAccountID']
[2026-04-01 09:09:23] [DEBUG] POST https://papertrade.algotrade.vn/accounting/api/portfolio-by-sub/basic succeeded status_code=200
[2026-04-01 09:09:23] [INFO] event=portfolio_resolved fixAccountID=f72030f52dc94e38b4c32ee0d7f9a03b subAccountID=main instrument_count=0
[2026-04-01 09:09:23] [DEBUG] POST https://papertrade.algotrade.vn/accounting/api/portfolio-by-sub/basic payload_keys=['fixAccountID', 'subAccountID']
[2026-04-01 09:09:24] [DEBUG] POST https://papertrade.algotrade.vn/accounting/api/portfolio-by-sub/basic succeeded status_code=200
[2026-04-01 09:09:24] [INFO] event=portfolio_resolved fixAccountID=f72030f52dc94e38b4c32ee0d7f9a03b subAccountID=main instrument_count=0
[2026-04-01 09:09:52] [DEBUG] [TO ADMIN] 8=FIX.4.4|9=100|35=0|34=2|49=f2c11b00bf3d41fca072225f328ce98e|52=20260401-02:09:52.000|56=SERVER|1=main|553=Group13|10=006|
[2026-04-01 09:09:53] [DEBUG] [FROM ADMIN] 8=FIX.4.4|9=81|35=0|34=2|49=SERVER|52=20260401-02:09:53.219|56=f2c11b00bf3d41fca072225f328ce98e|10=139|
[2026-04-01 09:10:06] [DEBUG] POST https://papertrade.algotrade.vn/accounting/api/portfolio-by-sub/basic payload_keys=['fixAccountID', 'subAccountID']
[2026-04-01 09:10:07] [DEBUG] POST https://papertrade.algotrade.vn/accounting/api/portfolio-by-sub/basic succeeded status_code=200
[2026-04-01 09:10:07] [INFO] event=portfolio_resolved fixAccountID=f72030f52dc94e38b4c32ee0d7f9a03b subAccountID=main instrument_count=0
[2026-04-01 09:10:22] [DEBUG] [TO ADMIN] 8=FIX.4.4|9=100|35=0|34=3|49=f2c11b00bf3d41fca072225f328ce98e|52=20260401-02:10:22.000|56=SERVER|1=main|553=Group13|10=252|
[2026-04-01 09:10:23] [DEBUG] [FROM ADMIN] 8=FIX.4.4|9=81|35=0|34=3|49=SERVER|52=20260401-02:10:23.718|56=f2c11b00bf3d41fca072225f328ce98e|10=133|
[2026-04-01 09:10:52] [DEBUG] [TO ADMIN] 8=FIX.4.4|9=100|35=0|34=4|49=f2c11b00bf3d41fca072225f328ce98e|52=20260401-02:10:52.000|56=SERVER|1=main|553=Group13|10=000|
[2026-04-01 09:10:53] [DEBUG] [FROM ADMIN] 8=FIX.4.4|9=81|35=0|34=4|49=SERVER|52=20260401-02:10:53.718|56=f2c11b00bf3d41fca072225f328ce98e|10=137|
[2026-04-01 09:11:04] [DEBUG] POST https://papertrade.algotrade.vn/accounting/api/portfolio-by-sub/basic payload_keys=['fixAccountID', 'subAccountID']
[2026-04-01 09:11:05] [DEBUG] POST https://papertrade.algotrade.vn/accounting/api/portfolio-by-sub/basic succeeded status_code=200
[2026-04-01 09:11:05] [INFO] event=portfolio_resolved fixAccountID=f72030f52dc94e38b4c32ee0d7f9a03b subAccountID=main instrument_count=0
[2026-04-01 09:11:22] [DEBUG] [TO ADMIN] 8=FIX.4.4|9=100|35=0|34=5|49=f2c11b00bf3d41fca072225f328ce98e|52=20260401-02:11:22.000|56=SERVER|1=main|553=Group13|10=255|
[2026-04-01 09:11:23] [DEBUG] [FROM ADMIN] 8=FIX.4.4|9=81|35=0|34=5|49=SERVER|52=20260401-02:11:23.718|56=f2c11b00bf3d41fca072225f328ce98e|10=136|
[2026-04-01 09:11:52] [DEBUG] [TO ADMIN] 8=FIX.4.4|9=100|35=0|34=6|49=f2c11b00bf3d41fca072225f328ce98e|52=20260401-02:11:52.000|56=SERVER|1=main|553=Group13|10=003|
[2026-04-01 09:11:53] [DEBUG] [FROM ADMIN] 8=FIX.4.4|9=81|35=0|34=6|49=SERVER|52=20260401-02:11:53.718|56=f2c11b00bf3d41fca072225f328ce98e|10=140|
[2026-04-01 09:12:12] [DEBUG] POST https://papertrade.algotrade.vn/accounting/api/portfolio-by-sub/basic payload_keys=['fixAccountID', 'subAccountID']
[2026-04-01 09:12:13] [DEBUG] POST https://papertrade.algotrade.vn/accounting/api/portfolio-by-sub/basic succeeded status_code=200
[2026-04-01 09:12:13] [INFO] event=portfolio_resolved fixAccountID=f72030f52dc94e38b4c32ee0d7f9a03b subAccountID=main instrument_count=0
[2026-04-01 09:12:22] [DEBUG] [TO ADMIN] 8=FIX.4.4|9=100|35=0|34=7|49=f2c11b00bf3d41fca072225f328ce98e|52=20260401-02:12:22.000|56=SERVER|1=main|553=Group13|10=002|
[2026-04-01 09:12:23] [DEBUG] [FROM ADMIN] 8=FIX.4.4|9=81|35=0|34=7|49=SERVER|52=20260401-02:12:23.718|56=f2c11b00bf3d41fca072225f328ce98e|10=139|
[2026-04-01 09:12:52] [DEBUG] [TO ADMIN] 8=FIX.4.4|9=100|35=0|34=8|49=f2c11b00bf3d41fca072225f328ce98e|52=20260401-02:12:52.000|56=SERVER|1=main|553=Group13|10=006|
[2026-04-01 09:12:54] [DEBUG] [FROM ADMIN] 8=FIX.4.4|9=81|35=0|34=8|49=SERVER|52=20260401-02:12:53.718|56=f2c11b00bf3d41fca072225f328ce98e|10=143|
[2026-04-01 09:13:04] [DEBUG] POST https://papertrade.algotrade.vn/accounting/api/portfolio-by-sub/basic payload_keys=['fixAccountID', 'subAccountID']
[2026-04-01 09:13:05] [DEBUG] POST https://papertrade.algotrade.vn/accounting/api/portfolio-by-sub/basic succeeded status_code=200
[2026-04-01 09:13:05] [INFO] event=portfolio_resolved fixAccountID=f72030f52dc94e38b4c32ee0d7f9a03b subAccountID=main instrument_count=0
[2026-04-01 09:13:22] [DEBUG] [TO ADMIN] 8=FIX.4.4|9=100|35=0|34=9|49=f2c11b00bf3d41fca072225f328ce98e|52=20260401-02:13:22.000|56=SERVER|1=main|553=Group13|10=005|
[2026-04-01 09:13:23] [DEBUG] [FROM ADMIN] 8=FIX.4.4|9=81|35=0|34=9|49=SERVER|52=20260401-02:13:23.718|56=f2c11b00bf3d41fca072225f328ce98e|10=142|
[2026-04-01 09:13:52] [DEBUG] [TO ADMIN] 8=FIX.4.4|9=101|35=0|34=10|49=f2c11b00bf3d41fca072225f328ce98e|52=20260401-02:13:52.000|56=SERVER|1=main|553=Group13|10=049|
[2026-04-01 09:13:53] [DEBUG] [FROM ADMIN] 8=FIX.4.4|9=82|35=0|34=10|49=SERVER|52=20260401-02:13:53.718|56=f2c11b00bf3d41fca072225f328ce98e|10=186|
[2026-04-01 09:14:03] [DEBUG] POST https://papertrade.algotrade.vn/accounting/api/portfolio-by-sub/basic payload_keys=['fixAccountID', 'subAccountID']
[2026-04-01 09:14:04] [DEBUG] POST https://papertrade.algotrade.vn/accounting/api/portfolio-by-sub/basic succeeded status_code=200
[2026-04-01 09:14:04] [INFO] event=portfolio_resolved fixAccountID=f72030f52dc94e38b4c32ee0d7f9a03b subAccountID=main instrument_count=0
[2026-04-01 09:14:22] [DEBUG] [TO ADMIN] 8=FIX.4.4|9=101|35=0|34=11|49=f2c11b00bf3d41fca072225f328ce98e|52=20260401-02:14:22.000|56=SERVER|1=main|553=Group13|10=048|
[2026-04-01 09:14:23] [DEBUG] [FROM ADMIN] 8=FIX.4.4|9=82|35=0|34=11|49=SERVER|52=20260401-02:14:23.718|56=f2c11b00bf3d41fca072225f328ce98e|10=185|
[2026-04-01 09:14:52] [DEBUG] [TO ADMIN] 8=FIX.4.4|9=101|35=0|34=12|49=f2c11b00bf3d41fca072225f328ce98e|52=20260401-02:14:52.000|56=SERVER|1=main|553=Group13|10=052|
[2026-04-01 09:14:53] [DEBUG] [FROM ADMIN] 8=FIX.4.4|9=82|35=0|34=12|49=SERVER|52=20260401-02:14:53.718|56=f2c11b00bf3d41fca072225f328ce98e|10=189|
[2026-04-01 09:15:07] [DEBUG] POST https://papertrade.algotrade.vn/accounting/api/portfolio-by-sub/basic payload_keys=['fixAccountID', 'subAccountID']
[2026-04-01 09:15:08] [DEBUG] POST https://papertrade.algotrade.vn/accounting/api/portfolio-by-sub/basic succeeded status_code=200
[2026-04-01 09:15:08] [INFO] event=portfolio_resolved fixAccountID=f72030f52dc94e38b4c32ee0d7f9a03b subAccountID=main instrument_count=0
[2026-04-01 09:15:22] [DEBUG] [TO ADMIN] 8=FIX.4.4|9=101|35=0|34=13|49=f2c11b00bf3d41fca072225f328ce98e|52=20260401-02:15:22.000|56=SERVER|1=main|553=Group13|10=051|
[2026-04-01 09:15:23] [DEBUG] [FROM ADMIN] 8=FIX.4.4|9=82|35=0|34=13|49=SERVER|52=20260401-02:15:23.718|56=f2c11b00bf3d41fca072225f328ce98e|10=188|
[2026-04-01 09:15:52] [DEBUG] [TO ADMIN] 8=FIX.4.4|9=101|35=0|34=14|49=f2c11b00bf3d41fca072225f328ce98e|52=20260401-02:15:52.000|56=SERVER|1=main|553=Group13|10=055|
[2026-04-01 09:15:53] [DEBUG] [FROM ADMIN] 8=FIX.4.4|9=82|35=0|34=14|49=SERVER|52=20260401-02:15:53.718|56=f2c11b00bf3d41fca072225f328ce98e|10=192|
[2026-04-01 09:16:03] [DEBUG] [TO APP] 8=FIX.4.4|9=187|35=D|34=15|49=f2c11b00bf3d41fca072225f328ce98e|52=20260401-02:16:03.000|56=SERVER|1=main|11=b39e69ee|38=3|40=2|44=1871.3|54=1|55=VN30F2604|59=1|60=20260401-02:16:03|207=HNXDS|553=Group13|10=189|
[2026-04-01 09:16:03] [INFO] [ORDER] Sent new order: b39e69ee
[2026-04-01 09:16:03] [DEBUG] No handlers registered for event 'fix:order:submit'
[2026-04-01 09:16:03] [DEBUG] POST https://papertrade.algotrade.vn/accounting/api/portfolio-by-sub/basic payload_keys=['fixAccountID', 'subAccountID']
[2026-04-01 09:16:03] [INFO] [FROM APP] 8=FIX.4.4|9=285|35=8|34=15|49=SERVER|52=20260401-02:16:03.211|56=f2c11b00bf3d41fca072225f328ce98e|1=main|6=0|11=b39e69ee|14=0|17=07e90e23-157b-49cc-a8f8-a28542a2c1d1|37=56e9241a-a0ac-46fd-884b-411bb617e045|38=3|39=A|40=2|44=1871.3|54=1|55=VN30F2604|59=1|60=20260401-02:16:03.209|150=A|151=3|207=HNXDS|10=118|
[2026-04-01 09:16:03] [INFO] [PENDING_NEW] b39e69ee at 2026-04-01T02:16:03.209000+00:00
[2026-04-01 09:16:03] [DEBUG] No handlers registered for event 'fix:order:update'
[2026-04-01 09:16:03] [DEBUG] No handlers registered for event 'fix:order:pending_new'
[2026-04-01 09:16:03] [INFO] [FROM APP] 8=FIX.4.4|9=285|35=8|34=16|49=SERVER|52=20260401-02:16:03.254|56=f2c11b00bf3d41fca072225f328ce98e|1=main|6=0|11=b39e69ee|14=0|17=5179a201-8d6e-473c-9e6e-a5f6ae21b1f5|37=56e9241a-a0ac-46fd-884b-411bb617e045|38=3|39=0|40=2|44=1871.3|54=1|55=VN30F2604|59=1|60=20260401-02:16:03.252|150=0|151=3|207=HNXDS|10=148|
[2026-04-01 09:16:03] [INFO] [NEW] Order b39e69ee accepted at 2026-04-01T02:16:03.252000+00:00
[2026-04-01 09:16:03] [DEBUG] No handlers registered for event 'fix:order:update'
[2026-04-01 09:16:03] [DEBUG] No handlers registered for event 'fix:order:accepted'
[2026-04-01 09:16:03] [DEBUG] POST https://papertrade.algotrade.vn/accounting/api/portfolio-by-sub/basic succeeded status_code=200
[2026-04-01 09:16:03] [INFO] event=portfolio_resolved fixAccountID=f72030f52dc94e38b4c32ee0d7f9a03b subAccountID=main instrument_count=0
[2026-04-01 09:16:33] [DEBUG] [TO ADMIN] 8=FIX.4.4|9=101|35=0|34=16|49=f2c11b00bf3d41fca072225f328ce98e|52=20260401-02:16:33.000|56=SERVER|1=main|553=Group13|10=057|
[2026-04-01 09:16:33] [DEBUG] [FROM ADMIN] 8=FIX.4.4|9=82|35=0|34=17|49=SERVER|52=20260401-02:16:33.459|56=f2c11b00bf3d41fca072225f328ce98e|10=196|
[2026-04-01 09:17:03] [DEBUG] [TO ADMIN] 8=FIX.4.4|9=101|35=0|34=17|49=f2c11b00bf3d41fca072225f328ce98e|52=20260401-02:17:03.000|56=SERVER|1=main|553=Group13|10=056|
[2026-04-01 09:17:03] [DEBUG] POST https://papertrade.algotrade.vn/accounting/api/portfolio-by-sub/basic payload_keys=['fixAccountID', 'subAccountID']
[2026-04-01 09:17:03] [DEBUG] POST https://papertrade.algotrade.vn/accounting/api/portfolio-by-sub/basic succeeded status_code=200
[2026-04-01 09:17:03] [INFO] event=portfolio_resolved fixAccountID=f72030f52dc94e38b4c32ee0d7f9a03b subAccountID=main instrument_count=0
[2026-04-01 09:17:03] [DEBUG] [FROM ADMIN] 8=FIX.4.4|9=82|35=0|34=18|49=SERVER|52=20260401-02:17:03.718|56=f2c11b00bf3d41fca072225f328ce98e|10=193|
[2026-04-01 09:17:33] [DEBUG] [TO ADMIN] 8=FIX.4.4|9=101|35=0|34=18|49=f2c11b00bf3d41fca072225f328ce98e|52=20260401-02:17:33.000|56=SERVER|1=main|553=Group13|10=060|
[2026-04-01 09:17:33] [DEBUG] [FROM ADMIN] 8=FIX.4.4|9=82|35=0|34=19|49=SERVER|52=20260401-02:17:33.718|56=f2c11b00bf3d41fca072225f328ce98e|10=197|
[2026-04-01 09:18:03] [DEBUG] [TO ADMIN] 8=FIX.4.4|9=101|35=0|34=19|49=f2c11b00bf3d41fca072225f328ce98e|52=20260401-02:18:03.000|56=SERVER|1=main|553=Group13|10=059|
[2026-04-01 09:18:03] [DEBUG] POST https://papertrade.algotrade.vn/accounting/api/portfolio-by-sub/basic payload_keys=['fixAccountID', 'subAccountID']
[2026-04-01 09:18:03] [DEBUG] POST https://papertrade.algotrade.vn/accounting/api/portfolio-by-sub/basic succeeded status_code=200
[2026-04-01 09:18:03] [INFO] event=portfolio_resolved fixAccountID=f72030f52dc94e38b4c32ee0d7f9a03b subAccountID=main instrument_count=0
[2026-04-01 09:18:03] [DEBUG] [FROM ADMIN] 8=FIX.4.4|9=82|35=0|34=20|49=SERVER|52=20260401-02:18:03.718|56=f2c11b00bf3d41fca072225f328ce98e|10=187|
[2026-04-01 09:18:33] [DEBUG] [TO ADMIN] 8=FIX.4.4|9=101|35=0|34=20|49=f2c11b00bf3d41fca072225f328ce98e|52=20260401-02:18:33.000|56=SERVER|1=main|553=Group13|10=054|
[2026-04-01 09:18:33] [DEBUG] [FROM ADMIN] 8=FIX.4.4|9=82|35=0|34=21|49=SERVER|52=20260401-02:18:33.718|56=f2c11b00bf3d41fca072225f328ce98e|10=191|
[2026-04-01 09:19:02] [DEBUG] POST https://papertrade.algotrade.vn/accounting/api/portfolio-by-sub/basic payload_keys=['fixAccountID', 'subAccountID']
[2026-04-01 09:19:02] [DEBUG] POST https://papertrade.algotrade.vn/accounting/api/portfolio-by-sub/basic succeeded status_code=200
[2026-04-01 09:19:02] [INFO] event=portfolio_resolved fixAccountID=f72030f52dc94e38b4c32ee0d7f9a03b subAccountID=main instrument_count=0
[2026-04-01 09:19:03] [DEBUG] [TO ADMIN] 8=FIX.4.4|9=101|35=0|34=21|49=f2c11b00bf3d41fca072225f328ce98e|52=20260401-02:19:03.000|56=SERVER|1=main|553=Group13|10=053|
[2026-04-01 09:19:03] [DEBUG] [FROM ADMIN] 8=FIX.4.4|9=82|35=0|34=22|49=SERVER|52=20260401-02:19:03.718|56=f2c11b00bf3d41fca072225f328ce98e|10=190|
[2026-04-01 09:19:33] [DEBUG] [TO ADMIN] 8=FIX.4.4|9=101|35=0|34=22|49=f2c11b00bf3d41fca072225f328ce98e|52=20260401-02:19:33.000|56=SERVER|1=main|553=Group13|10=057|
[2026-04-01 09:19:33] [DEBUG] [FROM ADMIN] 8=FIX.4.4|9=82|35=0|34=23|49=SERVER|52=20260401-02:19:33.718|56=f2c11b00bf3d41fca072225f328ce98e|10=194|
[2026-04-01 09:20:02] [DEBUG] POST https://papertrade.algotrade.vn/accounting/api/portfolio-by-sub/basic payload_keys=['fixAccountID', 'subAccountID']
[2026-04-01 09:20:02] [DEBUG] POST https://papertrade.algotrade.vn/accounting/api/portfolio-by-sub/basic succeeded status_code=200
[2026-04-01 09:20:02] [INFO] event=portfolio_resolved fixAccountID=f72030f52dc94e38b4c32ee0d7f9a03b subAccountID=main instrument_count=0
[2026-04-01 09:20:03] [DEBUG] [TO ADMIN] 8=FIX.4.4|9=101|35=0|34=23|49=f2c11b00bf3d41fca072225f328ce98e|52=20260401-02:20:03.000|56=SERVER|1=main|553=Group13|10=047|
[2026-04-01 09:20:03] [DEBUG] [FROM ADMIN] 8=FIX.4.4|9=82|35=0|34=24|49=SERVER|52=20260401-02:20:03.718|56=f2c11b00bf3d41fca072225f328ce98e|10=184|
[2026-04-01 09:20:33] [DEBUG] [TO ADMIN] 8=FIX.4.4|9=101|35=0|34=24|49=f2c11b00bf3d41fca072225f328ce98e|52=20260401-02:20:33.000|56=SERVER|1=main|553=Group13|10=051|
[2026-04-01 09:20:33] [DEBUG] [FROM ADMIN] 8=FIX.4.4|9=82|35=0|34=25|49=SERVER|52=20260401-02:20:33.718|56=f2c11b00bf3d41fca072225f328ce98e|10=188|
[2026-04-01 09:21:03] [DEBUG] [TO ADMIN] 8=FIX.4.4|9=101|35=0|34=25|49=f2c11b00bf3d41fca072225f328ce98e|52=20260401-02:21:03.000|56=SERVER|1=main|553=Group13|10=050|
[2026-04-01 09:21:03] [DEBUG] POST https://papertrade.algotrade.vn/accounting/api/portfolio-by-sub/basic payload_keys=['fixAccountID', 'subAccountID']
[2026-04-01 09:21:03] [DEBUG] [FROM ADMIN] 8=FIX.4.4|9=82|35=0|34=26|49=SERVER|52=20260401-02:21:03.718|56=f2c11b00bf3d41fca072225f328ce98e|10=187|
[2026-04-01 09:21:03] [DEBUG] POST https://papertrade.algotrade.vn/accounting/api/portfolio-by-sub/basic succeeded status_code=200
[2026-04-01 09:21:03] [INFO] event=portfolio_resolved fixAccountID=f72030f52dc94e38b4c32ee0d7f9a03b subAccountID=main instrument_count=0
[2026-04-01 09:21:33] [DEBUG] [TO ADMIN] 8=FIX.4.4|9=101|35=0|34=26|49=f2c11b00bf3d41fca072225f328ce98e|52=20260401-02:21:33.000|56=SERVER|1=main|553=Group13|10=054|
[2026-04-01 09:21:33] [DEBUG] [FROM ADMIN] 8=FIX.4.4|9=82|35=0|34=27|49=SERVER|52=20260401-02:21:33.718|56=f2c11b00bf3d41fca072225f328ce98e|10=191|
[2026-04-01 09:22:03] [DEBUG] POST https://papertrade.algotrade.vn/accounting/api/portfolio-by-sub/basic payload_keys=['fixAccountID', 'subAccountID']
[2026-04-01 09:22:03] [DEBUG] [TO ADMIN] 8=FIX.4.4|9=101|35=0|34=27|49=f2c11b00bf3d41fca072225f328ce98e|52=20260401-02:22:03.000|56=SERVER|1=main|553=Group13|10=053|
[2026-04-01 09:22:03] [DEBUG] POST https://papertrade.algotrade.vn/accounting/api/portfolio-by-sub/basic succeeded status_code=200
[2026-04-01 09:22:03] [INFO] event=portfolio_resolved fixAccountID=f72030f52dc94e38b4c32ee0d7f9a03b subAccountID=main instrument_count=0
[2026-04-01 09:22:03] [DEBUG] [FROM ADMIN] 8=FIX.4.4|9=82|35=0|34=28|49=SERVER|52=20260401-02:22:03.718|56=f2c11b00bf3d41fca072225f328ce98e|10=190|
[2026-04-01 09:22:33] [DEBUG] [TO ADMIN] 8=FIX.4.4|9=101|35=0|34=28|49=f2c11b00bf3d41fca072225f328ce98e|52=20260401-02:22:33.000|56=SERVER|1=main|553=Group13|10=057|
[2026-04-01 09:22:33] [DEBUG] [FROM ADMIN] 8=FIX.4.4|9=82|35=0|34=29|49=SERVER|52=20260401-02:22:33.718|56=f2c11b00bf3d41fca072225f328ce98e|10=194|
[2026-04-01 09:22:54] [INFO] [FROM APP] 8=FIX.4.4|9=305|35=8|34=30|49=SERVER|52=20260401-02:22:54.086|56=f2c11b00bf3d41fca072225f328ce98e|1=main|6=1871.2|11=b39e69ee|14=1|17=54162ab5-ac25-4937-8114-9e1bba9e9630|31=1871.2|32=1|37=56e9241a-a0ac-46fd-884b-411bb617e045|38=3|39=1|40=2|44=1871.2|54=1|55=VN30F2604|59=1|60=20260401-02:22:53.000|150=F|151=2|207=HNXDS|10=176|
[2026-04-01 09:22:54] [INFO] [TRADE] b39e69ee: Traded 1.0 @ 1871.2 at 2026-04-01T02:22:53+00:00 (OrdStatus=1)
[2026-04-01 09:22:54] [DEBUG] No handlers registered for event 'fix:order:update'
[2026-04-01 09:22:54] [DEBUG] No handlers registered for event 'fix:order:partial_fill'
[2026-04-01 09:22:56] [INFO] [FROM APP] 8=FIX.4.4|9=314|35=8|34=31|49=SERVER|52=20260401-02:22:56.244|56=f2c11b00bf3d41fca072225f328ce98e|1=main|6=1871.2666666667|11=b39e69ee|14=3|17=779e9ac0-e8c7-4fb5-8449-7aab104bcf7c|31=1871.3|32=2|37=56e9241a-a0ac-46fd-884b-411bb617e045|38=3|39=2|40=2|44=1871.3|54=1|55=VN30F2604|59=1|60=20260401-02:22:56.000|150=F|151=0|207=HNXDS|10=158|
[2026-04-01 09:22:56] [INFO] [TRADE] b39e69ee: Traded 2.0 @ 1871.3 at 2026-04-01T02:22:56+00:00 (OrdStatus=2)
[2026-04-01 09:22:56] [DEBUG] No handlers registered for event 'fix:order:update'
[2026-04-01 09:22:56] [DEBUG] Emitting event 'fix:order:filled' to 1 handler(s)
[2026-04-01 09:23:03] [DEBUG] [TO ADMIN] 8=FIX.4.4|9=101|35=0|34=29|49=f2c11b00bf3d41fca072225f328ce98e|52=20260401-02:23:03.000|56=SERVER|1=main|553=Group13|10=056|
[2026-04-01 09:23:03] [DEBUG] POST https://papertrade.algotrade.vn/accounting/api/portfolio-by-sub/basic payload_keys=['fixAccountID', 'subAccountID']
[2026-04-01 09:23:03] [DEBUG] POST https://papertrade.algotrade.vn/accounting/api/portfolio-by-sub/basic succeeded status_code=200
[2026-04-01 09:23:03] [INFO] event=portfolio_resolved fixAccountID=f72030f52dc94e38b4c32ee0d7f9a03b subAccountID=main instrument_count=1
[2026-04-01 09:23:26] [DEBUG] [FROM ADMIN] 8=FIX.4.4|9=82|35=0|34=32|49=SERVER|52=20260401-02:23:26.718|56=f2c11b00bf3d41fca072225f328ce98e|10=191|
[2026-04-01 09:23:33] [DEBUG] [TO ADMIN] 8=FIX.4.4|9=101|35=0|34=30|49=f2c11b00bf3d41fca072225f328ce98e|52=20260401-02:23:33.000|56=SERVER|1=main|553=Group13|10=051|
[2026-04-01 09:23:57] [DEBUG] [FROM ADMIN] 8=FIX.4.4|9=82|35=0|34=33|49=SERVER|52=20260401-02:23:56.718|56=f2c11b00bf3d41fca072225f328ce98e|10=195|
[2026-04-01 09:24:03] [DEBUG] [TO ADMIN] 8=FIX.4.4|9=101|35=0|34=31|49=f2c11b00bf3d41fca072225f328ce98e|52=20260401-02:24:03.000|56=SERVER|1=main|553=Group13|10=050|
[2026-04-01 09:24:04] [DEBUG] POST https://papertrade.algotrade.vn/accounting/api/portfolio-by-sub/basic payload_keys=['fixAccountID', 'subAccountID']
[2026-04-01 09:24:04] [DEBUG] POST https://papertrade.algotrade.vn/accounting/api/portfolio-by-sub/basic succeeded status_code=200
[2026-04-01 09:24:04] [INFO] event=portfolio_resolved fixAccountID=f72030f52dc94e38b4c32ee0d7f9a03b subAccountID=main instrument_count=1
[2026-04-01 09:24:26] [DEBUG] [FROM ADMIN] 8=FIX.4.4|9=82|35=0|34=34|49=SERVER|52=20260401-02:24:26.718|56=f2c11b00bf3d41fca072225f328ce98e|10=194|
[2026-04-01 09:24:33] [DEBUG] [TO ADMIN] 8=FIX.4.4|9=101|35=0|34=32|49=f2c11b00bf3d41fca072225f328ce98e|52=20260401-02:24:33.000|56=SERVER|1=main|553=Group13|10=054|
[2026-04-01 09:24:56] [DEBUG] [FROM ADMIN] 8=FIX.4.4|9=82|35=0|34=35|49=SERVER|52=20260401-02:24:56.718|56=f2c11b00bf3d41fca072225f328ce98e|10=198|
[2026-04-01 09:25:02] [DEBUG] POST https://papertrade.algotrade.vn/accounting/api/portfolio-by-sub/basic payload_keys=['fixAccountID', 'subAccountID']
[2026-04-01 09:25:02] [DEBUG] POST https://papertrade.algotrade.vn/accounting/api/portfolio-by-sub/basic succeeded status_code=200
[2026-04-01 09:25:02] [INFO] event=portfolio_resolved fixAccountID=f72030f52dc94e38b4c32ee0d7f9a03b subAccountID=main instrument_count=1
[2026-04-01 09:25:03] [DEBUG] [TO ADMIN] 8=FIX.4.4|9=101|35=0|34=33|49=f2c11b00bf3d41fca072225f328ce98e|52=20260401-02:25:03.000|56=SERVER|1=main|553=Group13|10=053|
[2026-04-01 09:25:26] [DEBUG] [FROM ADMIN] 8=FIX.4.4|9=82|35=0|34=36|49=SERVER|52=20260401-02:25:26.718|56=f2c11b00bf3d41fca072225f328ce98e|10=197|
[2026-04-01 09:25:33] [DEBUG] [TO ADMIN] 8=FIX.4.4|9=101|35=0|34=34|49=f2c11b00bf3d41fca072225f328ce98e|52=20260401-02:25:33.000|56=SERVER|1=main|553=Group13|10=057|
[2026-04-01 09:25:56] [DEBUG] [FROM ADMIN] 8=FIX.4.4|9=82|35=0|34=37|49=SERVER|52=20260401-02:25:56.718|56=f2c11b00bf3d41fca072225f328ce98e|10=201|
[2026-04-01 09:26:02] [DEBUG] POST https://papertrade.algotrade.vn/accounting/api/portfolio-by-sub/basic payload_keys=['fixAccountID', 'subAccountID']
[2026-04-01 09:26:02] [DEBUG] POST https://papertrade.algotrade.vn/accounting/api/portfolio-by-sub/basic succeeded status_code=200
[2026-04-01 09:26:02] [INFO] event=portfolio_resolved fixAccountID=f72030f52dc94e38b4c32ee0d7f9a03b subAccountID=main instrument_count=1
[2026-04-01 09:26:03] [DEBUG] [TO ADMIN] 8=FIX.4.4|9=101|35=0|34=35|49=f2c11b00bf3d41fca072225f328ce98e|52=20260401-02:26:03.000|56=SERVER|1=main|553=Group13|10=056|
[2026-04-01 09:26:26] [DEBUG] [FROM ADMIN] 8=FIX.4.4|9=82|35=0|34=38|49=SERVER|52=20260401-02:26:26.718|56=f2c11b00bf3d41fca072225f328ce98e|10=200|
[2026-04-01 09:26:33] [DEBUG] [TO ADMIN] 8=FIX.4.4|9=101|35=0|34=36|49=f2c11b00bf3d41fca072225f328ce98e|52=20260401-02:26:33.000|56=SERVER|1=main|553=Group13|10=060|
[2026-04-01 09:26:56] [DEBUG] [FROM ADMIN] 8=FIX.4.4|9=82|35=0|34=39|49=SERVER|52=20260401-02:26:56.718|56=f2c11b00bf3d41fca072225f328ce98e|10=204|
[2026-04-01 09:27:03] [DEBUG] POST https://papertrade.algotrade.vn/accounting/api/portfolio-by-sub/basic payload_keys=['fixAccountID', 'subAccountID']
[2026-04-01 09:27:03] [DEBUG] POST https://papertrade.algotrade.vn/accounting/api/portfolio-by-sub/basic succeeded status_code=200
[2026-04-01 09:27:03] [INFO] event=portfolio_resolved fixAccountID=f72030f52dc94e38b4c32ee0d7f9a03b subAccountID=main instrument_count=1
[2026-04-01 09:27:03] [DEBUG] [TO ADMIN] 8=FIX.4.4|9=101|35=0|34=37|49=f2c11b00bf3d41fca072225f328ce98e|52=20260401-02:27:03.000|56=SERVER|1=main|553=Group13|10=059|
[2026-04-01 09:27:26] [DEBUG] [FROM ADMIN] 8=FIX.4.4|9=82|35=0|34=40|49=SERVER|52=20260401-02:27:26.718|56=f2c11b00bf3d41fca072225f328ce98e|10=194|
[2026-04-01 09:27:33] [DEBUG] [TO ADMIN] 8=FIX.4.4|9=101|35=0|34=38|49=f2c11b00bf3d41fca072225f328ce98e|52=20260401-02:27:33.000|56=SERVER|1=main|553=Group13|10=063|
[2026-04-01 09:27:56] [DEBUG] [FROM ADMIN] 8=FIX.4.4|9=82|35=0|34=41|49=SERVER|52=20260401-02:27:56.719|56=f2c11b00bf3d41fca072225f328ce98e|10=199|
[2026-04-01 09:28:02] [DEBUG] POST https://papertrade.algotrade.vn/accounting/api/portfolio-by-sub/basic payload_keys=['fixAccountID', 'subAccountID']
[2026-04-01 09:28:02] [DEBUG] POST https://papertrade.algotrade.vn/accounting/api/portfolio-by-sub/basic succeeded status_code=200
[2026-04-01 09:28:02] [INFO] event=portfolio_resolved fixAccountID=f72030f52dc94e38b4c32ee0d7f9a03b subAccountID=main instrument_count=1
[2026-04-01 09:28:03] [DEBUG] [TO ADMIN] 8=FIX.4.4|9=101|35=0|34=39|49=f2c11b00bf3d41fca072225f328ce98e|52=20260401-02:28:03.000|56=SERVER|1=main|553=Group13|10=062|
[2026-04-01 09:28:26] [DEBUG] [FROM ADMIN] 8=FIX.4.4|9=82|35=0|34=42|49=SERVER|52=20260401-02:28:26.718|56=f2c11b00bf3d41fca072225f328ce98e|10=197|
[2026-04-01 09:28:33] [DEBUG] [TO ADMIN] 8=FIX.4.4|9=101|35=0|34=40|49=f2c11b00bf3d41fca072225f328ce98e|52=20260401-02:28:33.000|56=SERVER|1=main|553=Group13|10=057|
[2026-04-01 09:28:56] [DEBUG] [FROM ADMIN] 8=FIX.4.4|9=82|35=0|34=43|49=SERVER|52=20260401-02:28:56.718|56=f2c11b00bf3d41fca072225f328ce98e|10=201|
[2026-04-01 09:29:02] [DEBUG] POST https://papertrade.algotrade.vn/accounting/api/portfolio-by-sub/basic payload_keys=['fixAccountID', 'subAccountID']
[2026-04-01 09:29:02] [DEBUG] POST https://papertrade.algotrade.vn/accounting/api/portfolio-by-sub/basic succeeded status_code=200
[2026-04-01 09:29:02] [INFO] event=portfolio_resolved fixAccountID=f72030f52dc94e38b4c32ee0d7f9a03b subAccountID=main instrument_count=1
[2026-04-01 09:29:03] [DEBUG] [TO ADMIN] 8=FIX.4.4|9=101|35=0|34=41|49=f2c11b00bf3d41fca072225f328ce98e|52=20260401-02:29:03.000|56=SERVER|1=main|553=Group13|10=056|
[2026-04-01 09:29:26] [DEBUG] [FROM ADMIN] 8=FIX.4.4|9=82|35=0|34=44|49=SERVER|52=20260401-02:29:26.718|56=f2c11b00bf3d41fca072225f328ce98e|10=200|
[2026-04-01 09:29:33] [DEBUG] [TO ADMIN] 8=FIX.4.4|9=101|35=0|34=42|49=f2c11b00bf3d41fca072225f328ce98e|52=20260401-02:29:33.000|56=SERVER|1=main|553=Group13|10=060|
[2026-04-01 09:29:56] [DEBUG] [FROM ADMIN] 8=FIX.4.4|9=82|35=0|34=45|49=SERVER|52=20260401-02:29:56.718|56=f2c11b00bf3d41fca072225f328ce98e|10=204|
[2026-04-01 09:30:02] [DEBUG] POST https://papertrade.algotrade.vn/accounting/api/portfolio-by-sub/basic payload_keys=['fixAccountID', 'subAccountID']
[2026-04-01 09:30:03] [DEBUG] POST https://papertrade.algotrade.vn/accounting/api/portfolio-by-sub/basic succeeded status_code=200
[2026-04-01 09:30:03] [INFO] event=portfolio_resolved fixAccountID=f72030f52dc94e38b4c32ee0d7f9a03b subAccountID=main instrument_count=1
[2026-04-01 09:30:03] [DEBUG] [TO ADMIN] 8=FIX.4.4|9=101|35=0|34=43|49=f2c11b00bf3d41fca072225f328ce98e|52=20260401-02:30:03.000|56=SERVER|1=main|553=Group13|10=050|
[2026-04-01 09:30:26] [DEBUG] [FROM ADMIN] 8=FIX.4.4|9=82|35=0|34=46|49=SERVER|52=20260401-02:30:26.718|56=f2c11b00bf3d41fca072225f328ce98e|10=194|
[2026-04-01 09:30:33] [DEBUG] [TO ADMIN] 8=FIX.4.4|9=101|35=0|34=44|49=f2c11b00bf3d41fca072225f328ce98e|52=20260401-02:30:33.000|56=SERVER|1=main|553=Group13|10=054|
[2026-04-01 09:30:56] [DEBUG] [FROM ADMIN] 8=FIX.4.4|9=82|35=0|34=47|49=SERVER|52=20260401-02:30:56.718|56=f2c11b00bf3d41fca072225f328ce98e|10=198|
[2026-04-01 09:31:02] [DEBUG] POST https://papertrade.algotrade.vn/accounting/api/portfolio-by-sub/basic payload_keys=['fixAccountID', 'subAccountID']
[2026-04-01 09:31:02] [DEBUG] POST https://papertrade.algotrade.vn/accounting/api/portfolio-by-sub/basic succeeded status_code=200
[2026-04-01 09:31:02] [INFO] event=portfolio_resolved fixAccountID=f72030f52dc94e38b4c32ee0d7f9a03b subAccountID=main instrument_count=1
[2026-04-01 09:31:03] [DEBUG] [TO ADMIN] 8=FIX.4.4|9=101|35=0|34=45|49=f2c11b00bf3d41fca072225f328ce98e|52=20260401-02:31:03.000|56=SERVER|1=main|553=Group13|10=053|
[2026-04-01 09:31:26] [DEBUG] [FROM ADMIN] 8=FIX.4.4|9=82|35=0|34=48|49=SERVER|52=20260401-02:31:26.718|56=f2c11b00bf3d41fca072225f328ce98e|10=197|
[2026-04-01 09:31:33] [DEBUG] [TO ADMIN] 8=FIX.4.4|9=101|35=0|34=46|49=f2c11b00bf3d41fca072225f328ce98e|52=20260401-02:31:33.000|56=SERVER|1=main|553=Group13|10=057|
[2026-04-01 09:31:56] [DEBUG] [FROM ADMIN] 8=FIX.4.4|9=82|35=0|34=49|49=SERVER|52=20260401-02:31:56.718|56=f2c11b00bf3d41fca072225f328ce98e|10=201|
[2026-04-01 09:32:02] [DEBUG] POST https://papertrade.algotrade.vn/accounting/api/portfolio-by-sub/basic payload_keys=['fixAccountID', 'subAccountID']
[2026-04-01 09:32:02] [DEBUG] POST https://papertrade.algotrade.vn/accounting/api/portfolio-by-sub/basic succeeded status_code=200
[2026-04-01 09:32:02] [INFO] event=portfolio_resolved fixAccountID=f72030f52dc94e38b4c32ee0d7f9a03b subAccountID=main instrument_count=1
[2026-04-01 09:32:03] [DEBUG] [TO ADMIN] 8=FIX.4.4|9=101|35=0|34=47|49=f2c11b00bf3d41fca072225f328ce98e|52=20260401-02:32:03.000|56=SERVER|1=main|553=Group13|10=056|
[2026-04-01 09:32:27] [DEBUG] [FROM ADMIN] 8=FIX.4.4|9=82|35=0|34=50|49=SERVER|52=20260401-02:32:26.718|56=f2c11b00bf3d41fca072225f328ce98e|10=191|
[2026-04-01 09:32:33] [DEBUG] [TO ADMIN] 8=FIX.4.4|9=101|35=0|34=48|49=f2c11b00bf3d41fca072225f328ce98e|52=20260401-02:32:33.000|56=SERVER|1=main|553=Group13|10=060|
[2026-04-01 09:32:56] [DEBUG] [FROM ADMIN] 8=FIX.4.4|9=82|35=0|34=51|49=SERVER|52=20260401-02:32:56.718|56=f2c11b00bf3d41fca072225f328ce98e|10=195|
[2026-04-01 09:33:03] [DEBUG] [TO ADMIN] 8=FIX.4.4|9=101|35=0|34=49|49=f2c11b00bf3d41fca072225f328ce98e|52=20260401-02:33:03.000|56=SERVER|1=main|553=Group13|10=059|
[2026-04-01 09:33:03] [DEBUG] POST https://papertrade.algotrade.vn/accounting/api/portfolio-by-sub/basic payload_keys=['fixAccountID', 'subAccountID']
[2026-04-01 09:33:04] [DEBUG] POST https://papertrade.algotrade.vn/accounting/api/portfolio-by-sub/basic succeeded status_code=200
[2026-04-01 09:33:04] [INFO] event=portfolio_resolved fixAccountID=f72030f52dc94e38b4c32ee0d7f9a03b subAccountID=main instrument_count=1
[2026-04-01 09:33:26] [DEBUG] [FROM ADMIN] 8=FIX.4.4|9=82|35=0|34=52|49=SERVER|52=20260401-02:33:26.718|56=f2c11b00bf3d41fca072225f328ce98e|10=194|
[2026-04-01 09:33:33] [DEBUG] [TO ADMIN] 8=FIX.4.4|9=101|35=0|34=50|49=f2c11b00bf3d41fca072225f328ce98e|52=20260401-02:33:33.000|56=SERVER|1=main|553=Group13|10=054|
[2026-04-01 09:33:56] [DEBUG] [FROM ADMIN] 8=FIX.4.4|9=82|35=0|34=53|49=SERVER|52=20260401-02:33:56.718|56=f2c11b00bf3d41fca072225f328ce98e|10=198|
[2026-04-01 09:34:02] [DEBUG] POST https://papertrade.algotrade.vn/accounting/api/portfolio-by-sub/basic payload_keys=['fixAccountID', 'subAccountID']
[2026-04-01 09:34:02] [DEBUG] POST https://papertrade.algotrade.vn/accounting/api/portfolio-by-sub/basic succeeded status_code=200
[2026-04-01 09:34:02] [INFO] event=portfolio_resolved fixAccountID=f72030f52dc94e38b4c32ee0d7f9a03b subAccountID=main instrument_count=1
[2026-04-01 09:34:03] [DEBUG] [TO ADMIN] 8=FIX.4.4|9=101|35=0|34=51|49=f2c11b00bf3d41fca072225f328ce98e|52=20260401-02:34:03.000|56=SERVER|1=main|553=Group13|10=053|
[2026-04-01 09:34:27] [DEBUG] [FROM ADMIN] 8=FIX.4.4|9=82|35=0|34=54|49=SERVER|52=20260401-02:34:26.718|56=f2c11b00bf3d41fca072225f328ce98e|10=197|
[2026-04-01 09:34:33] [DEBUG] [TO ADMIN] 8=FIX.4.4|9=101|35=0|34=52|49=f2c11b00bf3d41fca072225f328ce98e|52=20260401-02:34:33.000|56=SERVER|1=main|553=Group13|10=057|
[2026-04-01 09:34:56] [DEBUG] [FROM ADMIN] 8=FIX.4.4|9=82|35=0|34=55|49=SERVER|52=20260401-02:34:56.718|56=f2c11b00bf3d41fca072225f328ce98e|10=201|
[2026-04-01 09:35:02] [DEBUG] POST https://papertrade.algotrade.vn/accounting/api/portfolio-by-sub/basic payload_keys=['fixAccountID', 'subAccountID']
[2026-04-01 09:35:03] [DEBUG] [TO ADMIN] 8=FIX.4.4|9=101|35=0|34=53|49=f2c11b00bf3d41fca072225f328ce98e|52=20260401-02:35:03.000|56=SERVER|1=main|553=Group13|10=056|
[2026-04-01 09:35:03] [DEBUG] POST https://papertrade.algotrade.vn/accounting/api/portfolio-by-sub/basic succeeded status_code=200
[2026-04-01 09:35:03] [INFO] event=portfolio_resolved fixAccountID=f72030f52dc94e38b4c32ee0d7f9a03b subAccountID=main instrument_count=1
[2026-04-01 09:35:26] [DEBUG] [FROM ADMIN] 8=FIX.4.4|9=82|35=0|34=56|49=SERVER|52=20260401-02:35:26.718|56=f2c11b00bf3d41fca072225f328ce98e|10=200|
[2026-04-01 09:35:33] [DEBUG] [TO ADMIN] 8=FIX.4.4|9=101|35=0|34=54|49=f2c11b00bf3d41fca072225f328ce98e|52=20260401-02:35:33.000|56=SERVER|1=main|553=Group13|10=060|
[2026-04-01 09:35:56] [DEBUG] [FROM ADMIN] 8=FIX.4.4|9=82|35=0|34=57|49=SERVER|52=20260401-02:35:56.718|56=f2c11b00bf3d41fca072225f328ce98e|10=204|
[2026-04-01 09:36:02] [DEBUG] POST https://papertrade.algotrade.vn/accounting/api/portfolio-by-sub/basic payload_keys=['fixAccountID', 'subAccountID']
[2026-04-01 09:36:02] [DEBUG] POST https://papertrade.algotrade.vn/accounting/api/portfolio-by-sub/basic succeeded status_code=200
[2026-04-01 09:36:02] [INFO] event=portfolio_resolved fixAccountID=f72030f52dc94e38b4c32ee0d7f9a03b subAccountID=main instrument_count=1
[2026-04-01 09:36:03] [DEBUG] [TO ADMIN] 8=FIX.4.4|9=101|35=0|34=55|49=f2c11b00bf3d41fca072225f328ce98e|52=20260401-02:36:03.000|56=SERVER|1=main|553=Group13|10=059|
[2026-04-01 09:36:27] [DEBUG] [FROM ADMIN] 8=FIX.4.4|9=82|35=0|34=58|49=SERVER|52=20260401-02:36:26.718|56=f2c11b00bf3d41fca072225f328ce98e|10=203|
[2026-04-01 09:36:33] [DEBUG] [TO ADMIN] 8=FIX.4.4|9=101|35=0|34=56|49=f2c11b00bf3d41fca072225f328ce98e|52=20260401-02:36:33.000|56=SERVER|1=main|553=Group13|10=063|
[2026-04-01 09:36:56] [DEBUG] [FROM ADMIN] 8=FIX.4.4|9=82|35=0|34=59|49=SERVER|52=20260401-02:36:56.718|56=f2c11b00bf3d41fca072225f328ce98e|10=207|
[2026-04-01 09:37:02] [DEBUG] POST https://papertrade.algotrade.vn/accounting/api/portfolio-by-sub/basic payload_keys=['fixAccountID', 'subAccountID']
[2026-04-01 09:37:02] [DEBUG] POST https://papertrade.algotrade.vn/accounting/api/portfolio-by-sub/basic succeeded status_code=200
[2026-04-01 09:37:02] [INFO] event=portfolio_resolved fixAccountID=f72030f52dc94e38b4c32ee0d7f9a03b subAccountID=main instrument_count=1
[2026-04-01 09:37:03] [DEBUG] [TO ADMIN] 8=FIX.4.4|9=101|35=0|34=57|49=f2c11b00bf3d41fca072225f328ce98e|52=20260401-02:37:03.000|56=SERVER|1=main|553=Group13|10=062|
[2026-04-01 09:37:27] [DEBUG] [FROM ADMIN] 8=FIX.4.4|9=82|35=0|34=60|49=SERVER|52=20260401-02:37:26.718|56=f2c11b00bf3d41fca072225f328ce98e|10=197|
[2026-04-01 09:37:33] [DEBUG] [TO ADMIN] 8=FIX.4.4|9=101|35=0|34=58|49=f2c11b00bf3d41fca072225f328ce98e|52=20260401-02:37:33.000|56=SERVER|1=main|553=Group13|10=066|
[2026-04-01 09:37:56] [DEBUG] [FROM ADMIN] 8=FIX.4.4|9=82|35=0|34=61|49=SERVER|52=20260401-02:37:56.718|56=f2c11b00bf3d41fca072225f328ce98e|10=201|
[2026-04-01 09:38:02] [DEBUG] POST https://papertrade.algotrade.vn/accounting/api/portfolio-by-sub/basic payload_keys=['fixAccountID', 'subAccountID']
[2026-04-01 09:38:02] [DEBUG] POST https://papertrade.algotrade.vn/accounting/api/portfolio-by-sub/basic succeeded status_code=200
[2026-04-01 09:38:02] [INFO] event=portfolio_resolved fixAccountID=f72030f52dc94e38b4c32ee0d7f9a03b subAccountID=main instrument_count=1
[2026-04-01 09:38:03] [DEBUG] [TO ADMIN] 8=FIX.4.4|9=101|35=0|34=59|49=f2c11b00bf3d41fca072225f328ce98e|52=20260401-02:38:03.000|56=SERVER|1=main|553=Group13|10=065|
[2026-04-01 09:38:26] [DEBUG] [FROM ADMIN] 8=FIX.4.4|9=82|35=0|34=62|49=SERVER|52=20260401-02:38:26.718|56=f2c11b00bf3d41fca072225f328ce98e|10=200|
[2026-04-01 09:38:33] [DEBUG] [TO ADMIN] 8=FIX.4.4|9=101|35=0|34=60|49=f2c11b00bf3d41fca072225f328ce98e|52=20260401-02:38:33.000|56=SERVER|1=main|553=Group13|10=060|
[2026-04-01 09:38:57] [DEBUG] [FROM ADMIN] 8=FIX.4.4|9=82|35=0|34=63|49=SERVER|52=20260401-02:38:56.718|56=f2c11b00bf3d41fca072225f328ce98e|10=204|
[2026-04-01 09:39:02] [DEBUG] POST https://papertrade.algotrade.vn/accounting/api/portfolio-by-sub/basic payload_keys=['fixAccountID', 'subAccountID']
[2026-04-01 09:39:03] [DEBUG] [TO ADMIN] 8=FIX.4.4|9=101|35=0|34=61|49=f2c11b00bf3d41fca072225f328ce98e|52=20260401-02:39:03.000|56=SERVER|1=main|553=Group13|10=059|
[2026-04-01 09:39:03] [DEBUG] POST https://papertrade.algotrade.vn/accounting/api/portfolio-by-sub/basic succeeded status_code=200
[2026-04-01 09:39:03] [INFO] event=portfolio_resolved fixAccountID=f72030f52dc94e38b4c32ee0d7f9a03b subAccountID=main instrument_count=1
[2026-04-01 09:39:26] [DEBUG] [FROM ADMIN] 8=FIX.4.4|9=82|35=0|34=64|49=SERVER|52=20260401-02:39:26.718|56=f2c11b00bf3d41fca072225f328ce98e|10=203|
[2026-04-01 09:39:33] [DEBUG] [TO ADMIN] 8=FIX.4.4|9=101|35=0|34=62|49=f2c11b00bf3d41fca072225f328ce98e|52=20260401-02:39:33.000|56=SERVER|1=main|553=Group13|10=063|
[2026-04-01 09:39:57] [DEBUG] [FROM ADMIN] 8=FIX.4.4|9=82|35=0|34=65|49=SERVER|52=20260401-02:39:56.718|56=f2c11b00bf3d41fca072225f328ce98e|10=207|
[2026-04-01 09:40:03] [DEBUG] POST https://papertrade.algotrade.vn/accounting/api/portfolio-by-sub/basic payload_keys=['fixAccountID', 'subAccountID']
[2026-04-01 09:40:03] [DEBUG] POST https://papertrade.algotrade.vn/accounting/api/portfolio-by-sub/basic succeeded status_code=200
[2026-04-01 09:40:03] [INFO] event=portfolio_resolved fixAccountID=f72030f52dc94e38b4c32ee0d7f9a03b subAccountID=main instrument_count=1
[2026-04-01 09:40:03] [DEBUG] [TO ADMIN] 8=FIX.4.4|9=101|35=0|34=63|49=f2c11b00bf3d41fca072225f328ce98e|52=20260401-02:40:03.000|56=SERVER|1=main|553=Group13|10=053|
[2026-04-01 09:40:27] [DEBUG] [FROM ADMIN] 8=FIX.4.4|9=82|35=0|34=66|49=SERVER|52=20260401-02:40:26.718|56=f2c11b00bf3d41fca072225f328ce98e|10=197|
[2026-04-01 09:40:33] [DEBUG] [TO ADMIN] 8=FIX.4.4|9=101|35=0|34=64|49=f2c11b00bf3d41fca072225f328ce98e|52=20260401-02:40:33.000|56=SERVER|1=main|553=Group13|10=057|
[2026-04-01 09:40:56] [DEBUG] [FROM ADMIN] 8=FIX.4.4|9=82|35=0|34=67|49=SERVER|52=20260401-02:40:56.718|56=f2c11b00bf3d41fca072225f328ce98e|10=201|
[2026-04-01 09:41:02] [DEBUG] POST https://papertrade.algotrade.vn/accounting/api/portfolio-by-sub/basic payload_keys=['fixAccountID', 'subAccountID']
[2026-04-01 09:41:02] [DEBUG] POST https://papertrade.algotrade.vn/accounting/api/portfolio-by-sub/basic succeeded status_code=200
[2026-04-01 09:41:02] [INFO] event=portfolio_resolved fixAccountID=f72030f52dc94e38b4c32ee0d7f9a03b subAccountID=main instrument_count=1
[2026-04-01 09:41:03] [DEBUG] [TO ADMIN] 8=FIX.4.4|9=101|35=0|34=65|49=f2c11b00bf3d41fca072225f328ce98e|52=20260401-02:41:03.000|56=SERVER|1=main|553=Group13|10=056|
[2026-04-01 09:41:26] [DEBUG] [FROM ADMIN] 8=FIX.4.4|9=82|35=0|34=68|49=SERVER|52=20260401-02:41:26.718|56=f2c11b00bf3d41fca072225f328ce98e|10=200|
[2026-04-01 09:41:33] [DEBUG] [TO ADMIN] 8=FIX.4.4|9=101|35=0|34=66|49=f2c11b00bf3d41fca072225f328ce98e|52=20260401-02:41:33.000|56=SERVER|1=main|553=Group13|10=060|
[2026-04-01 09:41:56] [DEBUG] [FROM ADMIN] 8=FIX.4.4|9=82|35=0|34=69|49=SERVER|52=20260401-02:41:56.718|56=f2c11b00bf3d41fca072225f328ce98e|10=204|
[2026-04-01 09:42:03] [DEBUG] POST https://papertrade.algotrade.vn/accounting/api/portfolio-by-sub/basic payload_keys=['fixAccountID', 'subAccountID']
[2026-04-01 09:42:03] [DEBUG] POST https://papertrade.algotrade.vn/accounting/api/portfolio-by-sub/basic succeeded status_code=200
[2026-04-01 09:42:03] [INFO] event=portfolio_resolved fixAccountID=f72030f52dc94e38b4c32ee0d7f9a03b subAccountID=main instrument_count=1
[2026-04-01 09:42:03] [DEBUG] [TO ADMIN] 8=FIX.4.4|9=101|35=0|34=67|49=f2c11b00bf3d41fca072225f328ce98e|52=20260401-02:42:03.000|56=SERVER|1=main|553=Group13|10=059|
[2026-04-01 09:42:27] [DEBUG] [FROM ADMIN] 8=FIX.4.4|9=82|35=0|34=70|49=SERVER|52=20260401-02:42:26.718|56=f2c11b00bf3d41fca072225f328ce98e|10=194|
[2026-04-01 09:42:33] [DEBUG] [TO ADMIN] 8=FIX.4.4|9=101|35=0|34=68|49=f2c11b00bf3d41fca072225f328ce98e|52=20260401-02:42:33.000|56=SERVER|1=main|553=Group13|10=063|
[2026-04-01 09:42:56] [DEBUG] [FROM ADMIN] 8=FIX.4.4|9=82|35=0|34=71|49=SERVER|52=20260401-02:42:56.718|56=f2c11b00bf3d41fca072225f328ce98e|10=198|
[2026-04-01 09:43:03] [DEBUG] [TO ADMIN] 8=FIX.4.4|9=101|35=0|34=69|49=f2c11b00bf3d41fca072225f328ce98e|52=20260401-02:43:03.000|56=SERVER|1=main|553=Group13|10=062|
[2026-04-01 09:43:03] [DEBUG] POST https://papertrade.algotrade.vn/accounting/api/portfolio-by-sub/basic payload_keys=['fixAccountID', 'subAccountID']
[2026-04-01 09:43:04] [DEBUG] POST https://papertrade.algotrade.vn/accounting/api/portfolio-by-sub/basic succeeded status_code=200
[2026-04-01 09:43:04] [INFO] event=portfolio_resolved fixAccountID=f72030f52dc94e38b4c32ee0d7f9a03b subAccountID=main instrument_count=1
[2026-04-01 09:43:26] [DEBUG] [FROM ADMIN] 8=FIX.4.4|9=82|35=0|34=72|49=SERVER|52=20260401-02:43:26.718|56=f2c11b00bf3d41fca072225f328ce98e|10=197|
[2026-04-01 09:43:33] [DEBUG] [TO ADMIN] 8=FIX.4.4|9=101|35=0|34=70|49=f2c11b00bf3d41fca072225f328ce98e|52=20260401-02:43:33.000|56=SERVER|1=main|553=Group13|10=057|
[2026-04-01 09:43:56] [DEBUG] [FROM ADMIN] 8=FIX.4.4|9=82|35=0|34=73|49=SERVER|52=20260401-02:43:56.718|56=f2c11b00bf3d41fca072225f328ce98e|10=201|
[2026-04-01 09:44:02] [DEBUG] POST https://papertrade.algotrade.vn/accounting/api/portfolio-by-sub/basic payload_keys=['fixAccountID', 'subAccountID']
[2026-04-01 09:44:03] [DEBUG] [TO ADMIN] 8=FIX.4.4|9=101|35=0|34=71|49=f2c11b00bf3d41fca072225f328ce98e|52=20260401-02:44:03.000|56=SERVER|1=main|553=Group13|10=056|
[2026-04-01 09:44:04] [DEBUG] POST https://papertrade.algotrade.vn/accounting/api/portfolio-by-sub/basic succeeded status_code=200
[2026-04-01 09:44:04] [INFO] event=portfolio_resolved fixAccountID=f72030f52dc94e38b4c32ee0d7f9a03b subAccountID=main instrument_count=1
[2026-04-01 09:44:27] [DEBUG] [FROM ADMIN] 8=FIX.4.4|9=82|35=0|34=74|49=SERVER|52=20260401-02:44:26.718|56=f2c11b00bf3d41fca072225f328ce98e|10=200|
[2026-04-01 09:44:33] [DEBUG] [TO ADMIN] 8=FIX.4.4|9=101|35=0|34=72|49=f2c11b00bf3d41fca072225f328ce98e|52=20260401-02:44:33.000|56=SERVER|1=main|553=Group13|10=060|
[2026-04-01 09:44:56] [DEBUG] [FROM ADMIN] 8=FIX.4.4|9=82|35=0|34=75|49=SERVER|52=20260401-02:44:56.718|56=f2c11b00bf3d41fca072225f328ce98e|10=204|
[2026-04-01 09:45:02] [DEBUG] POST https://papertrade.algotrade.vn/accounting/api/portfolio-by-sub/basic payload_keys=['fixAccountID', 'subAccountID']
[2026-04-01 09:45:03] [DEBUG] POST https://papertrade.algotrade.vn/accounting/api/portfolio-by-sub/basic succeeded status_code=200
[2026-04-01 09:45:03] [INFO] event=portfolio_resolved fixAccountID=f72030f52dc94e38b4c32ee0d7f9a03b subAccountID=main instrument_count=1
[2026-04-01 09:45:03] [DEBUG] [TO ADMIN] 8=FIX.4.4|9=101|35=0|34=73|49=f2c11b00bf3d41fca072225f328ce98e|52=20260401-02:45:03.000|56=SERVER|1=main|553=Group13|10=059|
[2026-04-01 09:45:27] [DEBUG] [FROM ADMIN] 8=FIX.4.4|9=82|35=0|34=76|49=SERVER|52=20260401-02:45:26.718|56=f2c11b00bf3d41fca072225f328ce98e|10=203|
[2026-04-01 09:45:33] [DEBUG] [TO ADMIN] 8=FIX.4.4|9=101|35=0|34=74|49=f2c11b00bf3d41fca072225f328ce98e|52=20260401-02:45:33.000|56=SERVER|1=main|553=Group13|10=063|
[2026-04-01 09:45:56] [DEBUG] [FROM ADMIN] 8=FIX.4.4|9=82|35=0|34=77|49=SERVER|52=20260401-02:45:56.718|56=f2c11b00bf3d41fca072225f328ce98e|10=207|
[2026-04-01 09:46:02] [DEBUG] POST https://papertrade.algotrade.vn/accounting/api/portfolio-by-sub/basic payload_keys=['fixAccountID', 'subAccountID']
[2026-04-01 09:46:02] [DEBUG] POST https://papertrade.algotrade.vn/accounting/api/portfolio-by-sub/basic succeeded status_code=200
[2026-04-01 09:46:02] [INFO] event=portfolio_resolved fixAccountID=f72030f52dc94e38b4c32ee0d7f9a03b subAccountID=main instrument_count=1
[2026-04-01 09:46:03] [DEBUG] [TO ADMIN] 8=FIX.4.4|9=101|35=0|34=75|49=f2c11b00bf3d41fca072225f328ce98e|52=20260401-02:46:03.000|56=SERVER|1=main|553=Group13|10=062|
[2026-04-01 09:46:26] [DEBUG] [FROM ADMIN] 8=FIX.4.4|9=82|35=0|34=78|49=SERVER|52=20260401-02:46:26.718|56=f2c11b00bf3d41fca072225f328ce98e|10=206|
[2026-04-01 09:46:33] [DEBUG] [TO ADMIN] 8=FIX.4.4|9=101|35=0|34=76|49=f2c11b00bf3d41fca072225f328ce98e|52=20260401-02:46:33.000|56=SERVER|1=main|553=Group13|10=066|
[2026-04-01 09:46:56] [DEBUG] [FROM ADMIN] 8=FIX.4.4|9=82|35=0|34=79|49=SERVER|52=20260401-02:46:56.718|56=f2c11b00bf3d41fca072225f328ce98e|10=210|
[2026-04-01 09:47:02] [DEBUG] POST https://papertrade.algotrade.vn/accounting/api/portfolio-by-sub/basic payload_keys=['fixAccountID', 'subAccountID']
[2026-04-01 09:47:02] [DEBUG] POST https://papertrade.algotrade.vn/accounting/api/portfolio-by-sub/basic succeeded status_code=200
[2026-04-01 09:47:02] [INFO] event=portfolio_resolved fixAccountID=f72030f52dc94e38b4c32ee0d7f9a03b subAccountID=main instrument_count=1
[2026-04-01 09:47:03] [DEBUG] [TO ADMIN] 8=FIX.4.4|9=101|35=0|34=77|49=f2c11b00bf3d41fca072225f328ce98e|52=20260401-02:47:03.000|56=SERVER|1=main|553=Group13|10=065|
[2026-04-01 09:47:26] [DEBUG] [FROM ADMIN] 8=FIX.4.4|9=82|35=0|34=80|49=SERVER|52=20260401-02:47:26.718|56=f2c11b00bf3d41fca072225f328ce98e|10=200|
[2026-04-01 09:47:33] [DEBUG] [TO ADMIN] 8=FIX.4.4|9=101|35=0|34=78|49=f2c11b00bf3d41fca072225f328ce98e|52=20260401-02:47:33.000|56=SERVER|1=main|553=Group13|10=069|
[2026-04-01 09:47:56] [DEBUG] [FROM ADMIN] 8=FIX.4.4|9=82|35=0|34=81|49=SERVER|52=20260401-02:47:56.718|56=f2c11b00bf3d41fca072225f328ce98e|10=204|
[2026-04-01 09:48:02] [DEBUG] POST https://papertrade.algotrade.vn/accounting/api/portfolio-by-sub/basic payload_keys=['fixAccountID', 'subAccountID']
[2026-04-01 09:48:02] [DEBUG] POST https://papertrade.algotrade.vn/accounting/api/portfolio-by-sub/basic succeeded status_code=200
[2026-04-01 09:48:02] [INFO] event=portfolio_resolved fixAccountID=f72030f52dc94e38b4c32ee0d7f9a03b subAccountID=main instrument_count=1
[2026-04-01 09:48:03] [DEBUG] [TO ADMIN] 8=FIX.4.4|9=101|35=0|34=79|49=f2c11b00bf3d41fca072225f328ce98e|52=20260401-02:48:03.000|56=SERVER|1=main|553=Group13|10=068|
[2026-04-01 09:48:27] [DEBUG] [FROM ADMIN] 8=FIX.4.4|9=82|35=0|34=82|49=SERVER|52=20260401-02:48:26.718|56=f2c11b00bf3d41fca072225f328ce98e|10=203|
[2026-04-01 09:48:33] [DEBUG] [TO ADMIN] 8=FIX.4.4|9=101|35=0|34=80|49=f2c11b00bf3d41fca072225f328ce98e|52=20260401-02:48:33.000|56=SERVER|1=main|553=Group13|10=063|
[2026-04-01 09:48:56] [DEBUG] [FROM ADMIN] 8=FIX.4.4|9=82|35=0|34=83|49=SERVER|52=20260401-02:48:56.718|56=f2c11b00bf3d41fca072225f328ce98e|10=207|
[2026-04-01 09:49:02] [DEBUG] POST https://papertrade.algotrade.vn/accounting/api/portfolio-by-sub/basic payload_keys=['fixAccountID', 'subAccountID']
[2026-04-01 09:49:02] [DEBUG] POST https://papertrade.algotrade.vn/accounting/api/portfolio-by-sub/basic succeeded status_code=200
[2026-04-01 09:49:02] [INFO] event=portfolio_resolved fixAccountID=f72030f52dc94e38b4c32ee0d7f9a03b subAccountID=main instrument_count=1
[2026-04-01 09:49:03] [DEBUG] [TO ADMIN] 8=FIX.4.4|9=101|35=0|34=81|49=f2c11b00bf3d41fca072225f328ce98e|52=20260401-02:49:03.000|56=SERVER|1=main|553=Group13|10=062|
[2026-04-01 09:49:26] [DEBUG] [FROM ADMIN] 8=FIX.4.4|9=82|35=0|34=84|49=SERVER|52=20260401-02:49:26.718|56=f2c11b00bf3d41fca072225f328ce98e|10=206|
[2026-04-01 09:49:33] [DEBUG] [TO ADMIN] 8=FIX.4.4|9=101|35=0|34=82|49=f2c11b00bf3d41fca072225f328ce98e|52=20260401-02:49:33.000|56=SERVER|1=main|553=Group13|10=066|
[2026-04-01 09:49:56] [DEBUG] [FROM ADMIN] 8=FIX.4.4|9=82|35=0|34=85|49=SERVER|52=20260401-02:49:56.718|56=f2c11b00bf3d41fca072225f328ce98e|10=210|
[2026-04-01 09:50:02] [DEBUG] POST https://papertrade.algotrade.vn/accounting/api/portfolio-by-sub/basic payload_keys=['fixAccountID', 'subAccountID']
[2026-04-01 09:50:02] [DEBUG] POST https://papertrade.algotrade.vn/accounting/api/portfolio-by-sub/basic succeeded status_code=200
[2026-04-01 09:50:02] [INFO] event=portfolio_resolved fixAccountID=f72030f52dc94e38b4c32ee0d7f9a03b subAccountID=main instrument_count=1
[2026-04-01 09:50:03] [DEBUG] [TO ADMIN] 8=FIX.4.4|9=101|35=0|34=83|49=f2c11b00bf3d41fca072225f328ce98e|52=20260401-02:50:03.000|56=SERVER|1=main|553=Group13|10=056|
[2026-04-01 09:50:26] [DEBUG] [FROM ADMIN] 8=FIX.4.4|9=82|35=0|34=86|49=SERVER|52=20260401-02:50:26.718|56=f2c11b00bf3d41fca072225f328ce98e|10=200|
[2026-04-01 09:50:33] [DEBUG] [TO ADMIN] 8=FIX.4.4|9=101|35=0|34=84|49=f2c11b00bf3d41fca072225f328ce98e|52=20260401-02:50:33.000|56=SERVER|1=main|553=Group13|10=060|
[2026-04-01 09:50:56] [DEBUG] [FROM ADMIN] 8=FIX.4.4|9=82|35=0|34=87|49=SERVER|52=20260401-02:50:56.718|56=f2c11b00bf3d41fca072225f328ce98e|10=204|
[2026-04-01 09:51:02] [DEBUG] POST https://papertrade.algotrade.vn/accounting/api/portfolio-by-sub/basic payload_keys=['fixAccountID', 'subAccountID']
[2026-04-01 09:51:03] [DEBUG] POST https://papertrade.algotrade.vn/accounting/api/portfolio-by-sub/basic succeeded status_code=200
[2026-04-01 09:51:03] [INFO] event=portfolio_resolved fixAccountID=f72030f52dc94e38b4c32ee0d7f9a03b subAccountID=main instrument_count=1
[2026-04-01 09:51:03] [DEBUG] [TO ADMIN] 8=FIX.4.4|9=101|35=0|34=85|49=f2c11b00bf3d41fca072225f328ce98e|52=20260401-02:51:03.000|56=SERVER|1=main|553=Group13|10=059|
[2026-04-01 09:51:26] [DEBUG] [FROM ADMIN] 8=FIX.4.4|9=82|35=0|34=88|49=SERVER|52=20260401-02:51:26.718|56=f2c11b00bf3d41fca072225f328ce98e|10=203|
[2026-04-01 09:51:33] [DEBUG] [TO ADMIN] 8=FIX.4.4|9=101|35=0|34=86|49=f2c11b00bf3d41fca072225f328ce98e|52=20260401-02:51:33.000|56=SERVER|1=main|553=Group13|10=063|
[2026-04-01 09:51:56] [DEBUG] [FROM ADMIN] 8=FIX.4.4|9=82|35=0|34=89|49=SERVER|52=20260401-02:51:56.718|56=f2c11b00bf3d41fca072225f328ce98e|10=207|
[2026-04-01 09:52:02] [DEBUG] POST https://papertrade.algotrade.vn/accounting/api/portfolio-by-sub/basic payload_keys=['fixAccountID', 'subAccountID']
[2026-04-01 09:52:02] [DEBUG] POST https://papertrade.algotrade.vn/accounting/api/portfolio-by-sub/basic succeeded status_code=200
[2026-04-01 09:52:02] [INFO] event=portfolio_resolved fixAccountID=f72030f52dc94e38b4c32ee0d7f9a03b subAccountID=main instrument_count=1
[2026-04-01 09:52:03] [DEBUG] [TO ADMIN] 8=FIX.4.4|9=101|35=0|34=87|49=f2c11b00bf3d41fca072225f328ce98e|52=20260401-02:52:03.000|56=SERVER|1=main|553=Group13|10=062|
[2026-04-01 09:52:26] [DEBUG] [FROM ADMIN] 8=FIX.4.4|9=82|35=0|34=90|49=SERVER|52=20260401-02:52:26.718|56=f2c11b00bf3d41fca072225f328ce98e|10=197|
[2026-04-01 09:52:33] [DEBUG] [TO ADMIN] 8=FIX.4.4|9=101|35=0|34=88|49=f2c11b00bf3d41fca072225f328ce98e|52=20260401-02:52:33.000|56=SERVER|1=main|553=Group13|10=066|
[2026-04-01 09:52:56] [DEBUG] [FROM ADMIN] 8=FIX.4.4|9=82|35=0|34=91|49=SERVER|52=20260401-02:52:56.718|56=f2c11b00bf3d41fca072225f328ce98e|10=201|
[2026-04-01 09:53:02] [DEBUG] POST https://papertrade.algotrade.vn/accounting/api/portfolio-by-sub/basic payload_keys=['fixAccountID', 'subAccountID']
[2026-04-01 09:53:02] [DEBUG] POST https://papertrade.algotrade.vn/accounting/api/portfolio-by-sub/basic succeeded status_code=200
[2026-04-01 09:53:02] [INFO] event=portfolio_resolved fixAccountID=f72030f52dc94e38b4c32ee0d7f9a03b subAccountID=main instrument_count=1
[2026-04-01 09:53:03] [DEBUG] [TO ADMIN] 8=FIX.4.4|9=101|35=0|34=89|49=f2c11b00bf3d41fca072225f328ce98e|52=20260401-02:53:03.000|56=SERVER|1=main|553=Group13|10=065|
[2026-04-01 09:53:26] [DEBUG] [FROM ADMIN] 8=FIX.4.4|9=82|35=0|34=92|49=SERVER|52=20260401-02:53:26.718|56=f2c11b00bf3d41fca072225f328ce98e|10=200|
[2026-04-01 09:53:33] [DEBUG] [TO ADMIN] 8=FIX.4.4|9=101|35=0|34=90|49=f2c11b00bf3d41fca072225f328ce98e|52=20260401-02:53:33.000|56=SERVER|1=main|553=Group13|10=060|
[2026-04-01 09:53:56] [DEBUG] [FROM ADMIN] 8=FIX.4.4|9=82|35=0|34=93|49=SERVER|52=20260401-02:53:56.718|56=f2c11b00bf3d41fca072225f328ce98e|10=204|
[2026-04-01 09:54:02] [DEBUG] POST https://papertrade.algotrade.vn/accounting/api/portfolio-by-sub/basic payload_keys=['fixAccountID', 'subAccountID']
[2026-04-01 09:54:02] [DEBUG] POST https://papertrade.algotrade.vn/accounting/api/portfolio-by-sub/basic succeeded status_code=200
[2026-04-01 09:54:02] [INFO] event=portfolio_resolved fixAccountID=f72030f52dc94e38b4c32ee0d7f9a03b subAccountID=main instrument_count=1
[2026-04-01 09:54:03] [DEBUG] [TO ADMIN] 8=FIX.4.4|9=101|35=0|34=91|49=f2c11b00bf3d41fca072225f328ce98e|52=20260401-02:54:03.000|56=SERVER|1=main|553=Group13|10=059|
[2026-04-01 09:54:26] [DEBUG] [FROM ADMIN] 8=FIX.4.4|9=82|35=0|34=94|49=SERVER|52=20260401-02:54:26.718|56=f2c11b00bf3d41fca072225f328ce98e|10=203|
[2026-04-01 09:54:33] [DEBUG] [TO ADMIN] 8=FIX.4.4|9=101|35=0|34=92|49=f2c11b00bf3d41fca072225f328ce98e|52=20260401-02:54:33.000|56=SERVER|1=main|553=Group13|10=063|
[2026-04-01 09:54:56] [DEBUG] [FROM ADMIN] 8=FIX.4.4|9=82|35=0|34=95|49=SERVER|52=20260401-02:54:56.718|56=f2c11b00bf3d41fca072225f328ce98e|10=207|
[2026-04-01 09:55:02] [DEBUG] POST https://papertrade.algotrade.vn/accounting/api/portfolio-by-sub/basic payload_keys=['fixAccountID', 'subAccountID']
[2026-04-01 09:55:02] [DEBUG] POST https://papertrade.algotrade.vn/accounting/api/portfolio-by-sub/basic succeeded status_code=200
[2026-04-01 09:55:02] [INFO] event=portfolio_resolved fixAccountID=f72030f52dc94e38b4c32ee0d7f9a03b subAccountID=main instrument_count=1
[2026-04-01 09:55:03] [DEBUG] [TO ADMIN] 8=FIX.4.4|9=101|35=0|34=93|49=f2c11b00bf3d41fca072225f328ce98e|52=20260401-02:55:03.000|56=SERVER|1=main|553=Group13|10=062|
[2026-04-01 09:55:26] [DEBUG] [FROM ADMIN] 8=FIX.4.4|9=82|35=0|34=96|49=SERVER|52=20260401-02:55:26.718|56=f2c11b00bf3d41fca072225f328ce98e|10=206|
[2026-04-01 09:55:33] [DEBUG] [TO ADMIN] 8=FIX.4.4|9=101|35=0|34=94|49=f2c11b00bf3d41fca072225f328ce98e|52=20260401-02:55:33.000|56=SERVER|1=main|553=Group13|10=066|
[2026-04-01 09:55:56] [DEBUG] [FROM ADMIN] 8=FIX.4.4|9=82|35=0|34=97|49=SERVER|52=20260401-02:55:56.718|56=f2c11b00bf3d41fca072225f328ce98e|10=210|
[2026-04-01 09:56:02] [DEBUG] POST https://papertrade.algotrade.vn/accounting/api/portfolio-by-sub/basic payload_keys=['fixAccountID', 'subAccountID']
[2026-04-01 09:56:02] [DEBUG] POST https://papertrade.algotrade.vn/accounting/api/portfolio-by-sub/basic succeeded status_code=200
[2026-04-01 09:56:02] [INFO] event=portfolio_resolved fixAccountID=f72030f52dc94e38b4c32ee0d7f9a03b subAccountID=main instrument_count=1
