[2026-04-14 08:39:05] [DEBUG] [TO ADMIN] 8=FIX.4.4|9=101|35=5|34=16|49=f2c11b00bf3d41fca072225f328ce98e|52=20260414-01:39:05.000|56=SERVER|1=main|553=Group13|10=069|
[2026-04-14 08:39:05] [INFO] Session created: FIX.4.4:f2c11b00bf3d41fca072225f328ce98e->SERVER
[2026-04-14 08:39:05] [DEBUG] FIXSessionManager initialized config=/var/folders/3v/rnx_2jlj5kg92m637d62559r0000gn/T/paperbroker_wk3efbw5.cfg username=Group13
[2026-04-14 08:39:05] [DEBUG] RestSession initialized with base_url: https://papertrade.algotrade.vn/accounting
[2026-04-14 08:39:05] [DEBUG] Registered handler for event 'fix:logon'. Total handlers: 1
[2026-04-14 08:39:05] [DEBUG] Registered handler for event 'fix:execution_report'. Total handlers: 2
[2026-04-14 08:39:05] [DEBUG] Registered handler for event 'fix:order:report'. Total handlers: 3
[2026-04-14 08:39:05] [DEBUG] POST https://papertrade.algotrade.vn/accounting/api/fix-account-info/get-fix-id payload_keys=['username', 'password']
[2026-04-14 08:39:05] [DEBUG] POST https://papertrade.algotrade.vn/accounting/api/fix-account-info/get-fix-id succeeded status_code=200
[2026-04-14 08:39:05] [INFO] event=fix_id_resolved username=Group13 fixAccountID=f72030f52dc94e38b4c32ee0d7f9a03b
[2026-04-14 08:39:05] [DEBUG] POST https://papertrade.algotrade.vn/accounting/api/portfolio-by-sub/basic payload_keys=['fixAccountID', 'subAccountID']
[2026-04-14 08:39:05] [DEBUG] POST https://papertrade.algotrade.vn/accounting/api/portfolio-by-sub/basic succeeded status_code=200
[2026-04-14 08:39:05] [INFO] event=portfolio_resolved fixAccountID=f72030f52dc94e38b4c32ee0d7f9a03b subAccountID=main instrument_count=0
[2026-04-14 08:39:05] [DEBUG] POST https://papertrade.algotrade.vn/accounting/api/account-info-by-sub/remain-cash payload_keys=['fixAccountID', 'subAccountID']
[2026-04-14 08:39:06] [DEBUG] POST https://papertrade.algotrade.vn/accounting/api/account-info-by-sub/remain-cash succeeded status_code=200
[2026-04-14 08:39:06] [INFO] event=remain_cash_resolved fixAccountID=f72030f52dc94e38b4c32ee0d7f9a03b subAccountID=main remainCash=472210000
[2026-04-14 08:39:06] [INFO] Starting FIX session...
[2026-04-14 08:39:06] [DEBUG] [TO ADMIN] 8=FIX.4.4|9=135|35=A|34=1|49=f2c11b00bf3d41fca072225f328ce98e|52=20260414-01:39:06.000|56=SERVER|1=main|98=0|108=30|141=Y|553=Group13|554=yCr8g4w0tLuT|10=118|
[2026-04-14 08:39:06] [DEBUG] [FROM ADMIN] 8=FIX.4.4|9=99|35=A|34=1|49=SERVER|52=20260414-01:39:06.610|56=f2c11b00bf3d41fca072225f328ce98e|98=0|108=30|141=Y|10=233|
[2026-04-14 08:39:06] [INFO] Logon success: FIX.4.4:f2c11b00bf3d41fca072225f328ce98e->SERVER
[2026-04-14 08:39:06] [INFO] Order manager session set: FIX.4.4:f2c11b00bf3d41fca072225f328ce98e->SERVER
[2026-04-14 08:39:06] [DEBUG] Emitting event 'fix:logon' to 1 handler(s)
[2026-04-14 08:39:36] [DEBUG] [TO ADMIN] 8=FIX.4.4|9=100|35=0|34=2|49=f2c11b00bf3d41fca072225f328ce98e|52=20260414-01:39:36.000|56=SERVER|1=main|553=Group13|10=014|
[2026-04-14 08:39:37] [DEBUG] [FROM ADMIN] 8=FIX.4.4|9=81|35=0|34=2|49=SERVER|52=20260414-01:39:37.284|56=f2c11b00bf3d41fca072225f328ce98e|10=149|
[2026-04-14 08:40:06] [DEBUG] [TO ADMIN] 8=FIX.4.4|9=100|35=0|34=3|49=f2c11b00bf3d41fca072225f328ce98e|52=20260414-01:40:06.000|56=SERVER|1=main|553=Group13|10=004|
[2026-04-14 08:40:07] [DEBUG] [FROM ADMIN] 8=FIX.4.4|9=81|35=0|34=3|49=SERVER|52=20260414-01:40:07.284|56=f2c11b00bf3d41fca072225f328ce98e|10=139|
[2026-04-14 08:40:36] [DEBUG] [TO ADMIN] 8=FIX.4.4|9=100|35=0|34=4|49=f2c11b00bf3d41fca072225f328ce98e|52=20260414-01:40:36.000|56=SERVER|1=main|553=Group13|10=008|
[2026-04-14 08:40:37] [DEBUG] [FROM ADMIN] 8=FIX.4.4|9=81|35=0|34=4|49=SERVER|52=20260414-01:40:37.284|56=f2c11b00bf3d41fca072225f328ce98e|10=143|
[2026-04-14 08:41:06] [DEBUG] [TO ADMIN] 8=FIX.4.4|9=100|35=0|34=5|49=f2c11b00bf3d41fca072225f328ce98e|52=20260414-01:41:06.000|56=SERVER|1=main|553=Group13|10=007|
[2026-04-14 08:41:07] [DEBUG] [FROM ADMIN] 8=FIX.4.4|9=81|35=0|34=5|49=SERVER|52=20260414-01:41:07.284|56=f2c11b00bf3d41fca072225f328ce98e|10=142|
[2026-04-14 08:48:11] [INFO] Session created: FIX.4.4:f2c11b00bf3d41fca072225f328ce98e->SERVER
[2026-04-14 08:48:11] [DEBUG] FIXSessionManager initialized config=/var/folders/3v/rnx_2jlj5kg92m637d62559r0000gn/T/paperbroker_s7tl2h0q.cfg username=Group13
[2026-04-14 08:48:11] [DEBUG] RestSession initialized with base_url: https://papertrade.algotrade.vn/accounting
[2026-04-14 08:48:11] [DEBUG] Registered handler for event 'fix:logon'. Total handlers: 1
[2026-04-14 08:48:11] [DEBUG] Registered handler for event 'fix:execution_report'. Total handlers: 2
[2026-04-14 08:48:11] [DEBUG] Registered handler for event 'fix:order:report'. Total handlers: 3
[2026-04-14 08:48:11] [DEBUG] POST https://papertrade.algotrade.vn/accounting/api/fix-account-info/get-fix-id payload_keys=['username', 'password']
[2026-04-14 08:48:12] [DEBUG] POST https://papertrade.algotrade.vn/accounting/api/fix-account-info/get-fix-id succeeded status_code=200
[2026-04-14 08:48:12] [INFO] event=fix_id_resolved username=Group13 fixAccountID=f72030f52dc94e38b4c32ee0d7f9a03b
[2026-04-14 08:48:12] [DEBUG] POST https://papertrade.algotrade.vn/accounting/api/portfolio-by-sub/basic payload_keys=['fixAccountID', 'subAccountID']
[2026-04-14 08:48:12] [DEBUG] POST https://papertrade.algotrade.vn/accounting/api/portfolio-by-sub/basic succeeded status_code=200
[2026-04-14 08:48:12] [INFO] event=portfolio_resolved fixAccountID=f72030f52dc94e38b4c32ee0d7f9a03b subAccountID=main instrument_count=0
[2026-04-14 08:48:12] [DEBUG] POST https://papertrade.algotrade.vn/accounting/api/account-info-by-sub/remain-cash payload_keys=['fixAccountID', 'subAccountID']
[2026-04-14 08:48:12] [DEBUG] POST https://papertrade.algotrade.vn/accounting/api/account-info-by-sub/remain-cash succeeded status_code=200
[2026-04-14 08:48:12] [INFO] event=remain_cash_resolved fixAccountID=f72030f52dc94e38b4c32ee0d7f9a03b subAccountID=main remainCash=472210000
[2026-04-14 08:48:12] [INFO] Starting FIX session...
[2026-04-14 08:48:12] [DEBUG] [TO ADMIN] 8=FIX.4.4|9=135|35=A|34=1|49=f2c11b00bf3d41fca072225f328ce98e|52=20260414-01:48:12.000|56=SERVER|1=main|98=0|108=30|141=Y|553=Group13|554=yCr8g4w0tLuT|10=115|
[2026-04-14 08:48:13] [DEBUG] [FROM ADMIN] 8=FIX.4.4|9=99|35=A|34=1|49=SERVER|52=20260414-01:48:13.032|56=f2c11b00bf3d41fca072225f328ce98e|98=0|108=30|141=Y|10=229|
[2026-04-14 08:48:13] [INFO] Logon success: FIX.4.4:f2c11b00bf3d41fca072225f328ce98e->SERVER
[2026-04-14 08:48:13] [INFO] Order manager session set: FIX.4.4:f2c11b00bf3d41fca072225f328ce98e->SERVER
[2026-04-14 08:48:13] [DEBUG] Emitting event 'fix:logon' to 1 handler(s)
[2026-04-14 08:48:18] [DEBUG] POST https://papertrade.algotrade.vn/accounting/api/portfolio-by-sub/basic payload_keys=['fixAccountID', 'subAccountID']
[2026-04-14 08:48:18] [DEBUG] POST https://papertrade.algotrade.vn/accounting/api/portfolio-by-sub/basic succeeded status_code=200
[2026-04-14 08:48:18] [INFO] event=portfolio_resolved fixAccountID=f72030f52dc94e38b4c32ee0d7f9a03b subAccountID=main instrument_count=0
[2026-04-14 08:48:18] [DEBUG] POST https://papertrade.algotrade.vn/accounting/api/account-info-by-sub/remain-cash payload_keys=['fixAccountID', 'subAccountID']
[2026-04-14 08:48:18] [DEBUG] POST https://papertrade.algotrade.vn/accounting/api/account-info-by-sub/remain-cash succeeded status_code=200
[2026-04-14 08:48:18] [INFO] event=remain_cash_resolved fixAccountID=f72030f52dc94e38b4c32ee0d7f9a03b subAccountID=main remainCash=472210000
[2026-04-14 08:48:42] [DEBUG] [TO ADMIN] 8=FIX.4.4|9=100|35=0|34=2|49=f2c11b00bf3d41fca072225f328ce98e|52=20260414-01:48:42.000|56=SERVER|1=main|553=Group13|10=011|
[2026-04-14 08:48:43] [DEBUG] [FROM ADMIN] 8=FIX.4.4|9=81|35=0|34=2|49=SERVER|52=20260414-01:48:43.284|56=f2c11b00bf3d41fca072225f328ce98e|10=146|
[2026-04-14 08:49:12] [DEBUG] [TO ADMIN] 8=FIX.4.4|9=100|35=0|34=3|49=f2c11b00bf3d41fca072225f328ce98e|52=20260414-01:49:12.000|56=SERVER|1=main|553=Group13|10=010|
[2026-04-14 08:49:13] [DEBUG] [FROM ADMIN] 8=FIX.4.4|9=81|35=0|34=3|49=SERVER|52=20260414-01:49:13.284|56=f2c11b00bf3d41fca072225f328ce98e|10=145|
[2026-04-14 08:49:42] [DEBUG] [TO ADMIN] 8=FIX.4.4|9=100|35=0|34=4|49=f2c11b00bf3d41fca072225f328ce98e|52=20260414-01:49:42.000|56=SERVER|1=main|553=Group13|10=014|
[2026-04-14 08:49:43] [DEBUG] [FROM ADMIN] 8=FIX.4.4|9=81|35=0|34=4|49=SERVER|52=20260414-01:49:43.284|56=f2c11b00bf3d41fca072225f328ce98e|10=149|
[2026-04-14 08:50:12] [DEBUG] [TO ADMIN] 8=FIX.4.4|9=100|35=0|34=5|49=f2c11b00bf3d41fca072225f328ce98e|52=20260414-01:50:12.000|56=SERVER|1=main|553=Group13|10=004|
[2026-04-14 08:50:13] [DEBUG] [FROM ADMIN] 8=FIX.4.4|9=81|35=0|34=5|49=SERVER|52=20260414-01:50:13.284|56=f2c11b00bf3d41fca072225f328ce98e|10=139|
[2026-04-14 08:50:42] [DEBUG] [TO ADMIN] 8=FIX.4.4|9=100|35=0|34=6|49=f2c11b00bf3d41fca072225f328ce98e|52=20260414-01:50:42.000|56=SERVER|1=main|553=Group13|10=008|
[2026-04-14 08:50:43] [DEBUG] [FROM ADMIN] 8=FIX.4.4|9=81|35=0|34=6|49=SERVER|52=20260414-01:50:43.284|56=f2c11b00bf3d41fca072225f328ce98e|10=143|
[2026-04-14 08:51:12] [DEBUG] [TO ADMIN] 8=FIX.4.4|9=100|35=0|34=7|49=f2c11b00bf3d41fca072225f328ce98e|52=20260414-01:51:12.000|56=SERVER|1=main|553=Group13|10=007|
[2026-04-14 08:51:13] [DEBUG] [FROM ADMIN] 8=FIX.4.4|9=81|35=0|34=7|49=SERVER|52=20260414-01:51:13.284|56=f2c11b00bf3d41fca072225f328ce98e|10=142|
[2026-04-14 08:51:42] [DEBUG] [TO ADMIN] 8=FIX.4.4|9=100|35=0|34=8|49=f2c11b00bf3d41fca072225f328ce98e|52=20260414-01:51:42.000|56=SERVER|1=main|553=Group13|10=011|
[2026-04-14 08:51:43] [DEBUG] [FROM ADMIN] 8=FIX.4.4|9=81|35=0|34=8|49=SERVER|52=20260414-01:51:43.284|56=f2c11b00bf3d41fca072225f328ce98e|10=146|
[2026-04-14 08:52:12] [DEBUG] [TO ADMIN] 8=FIX.4.4|9=100|35=0|34=9|49=f2c11b00bf3d41fca072225f328ce98e|52=20260414-01:52:12.000|56=SERVER|1=main|553=Group13|10=010|
[2026-04-14 08:52:13] [DEBUG] [FROM ADMIN] 8=FIX.4.4|9=81|35=0|34=9|49=SERVER|52=20260414-01:52:13.284|56=f2c11b00bf3d41fca072225f328ce98e|10=145|
[2026-04-14 08:52:42] [DEBUG] [TO ADMIN] 8=FIX.4.4|9=101|35=0|34=10|49=f2c11b00bf3d41fca072225f328ce98e|52=20260414-01:52:42.000|56=SERVER|1=main|553=Group13|10=054|
[2026-04-14 08:52:43] [DEBUG] [FROM ADMIN] 8=FIX.4.4|9=82|35=0|34=10|49=SERVER|52=20260414-01:52:43.284|56=f2c11b00bf3d41fca072225f328ce98e|10=189|
[2026-04-14 08:53:12] [DEBUG] [TO ADMIN] 8=FIX.4.4|9=101|35=0|34=11|49=f2c11b00bf3d41fca072225f328ce98e|52=20260414-01:53:12.000|56=SERVER|1=main|553=Group13|10=053|
[2026-04-14 08:53:13] [DEBUG] [FROM ADMIN] 8=FIX.4.4|9=82|35=0|34=11|49=SERVER|52=20260414-01:53:13.284|56=f2c11b00bf3d41fca072225f328ce98e|10=188|
[2026-04-14 08:53:42] [DEBUG] [TO ADMIN] 8=FIX.4.4|9=101|35=0|34=12|49=f2c11b00bf3d41fca072225f328ce98e|52=20260414-01:53:42.000|56=SERVER|1=main|553=Group13|10=057|
[2026-04-14 08:53:43] [DEBUG] [FROM ADMIN] 8=FIX.4.4|9=82|35=0|34=12|49=SERVER|52=20260414-01:53:43.284|56=f2c11b00bf3d41fca072225f328ce98e|10=192|
[2026-04-14 08:54:12] [DEBUG] [TO ADMIN] 8=FIX.4.4|9=101|35=0|34=13|49=f2c11b00bf3d41fca072225f328ce98e|52=20260414-01:54:12.000|56=SERVER|1=main|553=Group13|10=056|
[2026-04-14 08:54:13] [DEBUG] [FROM ADMIN] 8=FIX.4.4|9=82|35=0|34=13|49=SERVER|52=20260414-01:54:13.284|56=f2c11b00bf3d41fca072225f328ce98e|10=191|
[2026-04-14 08:54:42] [DEBUG] [TO ADMIN] 8=FIX.4.4|9=101|35=0|34=14|49=f2c11b00bf3d41fca072225f328ce98e|52=20260414-01:54:42.000|56=SERVER|1=main|553=Group13|10=060|
[2026-04-14 08:54:43] [DEBUG] [FROM ADMIN] 8=FIX.4.4|9=82|35=0|34=14|49=SERVER|52=20260414-01:54:43.284|56=f2c11b00bf3d41fca072225f328ce98e|10=195|
[2026-04-14 08:55:12] [DEBUG] [TO ADMIN] 8=FIX.4.4|9=101|35=0|34=15|49=f2c11b00bf3d41fca072225f328ce98e|52=20260414-01:55:12.000|56=SERVER|1=main|553=Group13|10=059|
[2026-04-14 08:55:13] [DEBUG] [FROM ADMIN] 8=FIX.4.4|9=82|35=0|34=15|49=SERVER|52=20260414-01:55:13.284|56=f2c11b00bf3d41fca072225f328ce98e|10=194|
[2026-04-14 08:55:42] [DEBUG] [TO ADMIN] 8=FIX.4.4|9=101|35=0|34=16|49=f2c11b00bf3d41fca072225f328ce98e|52=20260414-01:55:42.000|56=SERVER|1=main|553=Group13|10=063|
[2026-04-14 08:55:43] [DEBUG] [FROM ADMIN] 8=FIX.4.4|9=82|35=0|34=16|49=SERVER|52=20260414-01:55:43.284|56=f2c11b00bf3d41fca072225f328ce98e|10=198|
[2026-04-14 08:56:12] [DEBUG] [TO ADMIN] 8=FIX.4.4|9=101|35=0|34=17|49=f2c11b00bf3d41fca072225f328ce98e|52=20260414-01:56:12.000|56=SERVER|1=main|553=Group13|10=062|
[2026-04-14 08:56:13] [DEBUG] [FROM ADMIN] 8=FIX.4.4|9=82|35=0|34=17|49=SERVER|52=20260414-01:56:13.284|56=f2c11b00bf3d41fca072225f328ce98e|10=197|
[2026-04-14 08:56:42] [DEBUG] [TO ADMIN] 8=FIX.4.4|9=101|35=0|34=18|49=f2c11b00bf3d41fca072225f328ce98e|52=20260414-01:56:42.000|56=SERVER|1=main|553=Group13|10=066|
[2026-04-14 08:56:43] [DEBUG] [FROM ADMIN] 8=FIX.4.4|9=82|35=0|34=18|49=SERVER|52=20260414-01:56:43.284|56=f2c11b00bf3d41fca072225f328ce98e|10=201|
[2026-04-14 08:57:12] [DEBUG] [TO ADMIN] 8=FIX.4.4|9=101|35=0|34=19|49=f2c11b00bf3d41fca072225f328ce98e|52=20260414-01:57:12.000|56=SERVER|1=main|553=Group13|10=065|
[2026-04-14 08:57:13] [DEBUG] [FROM ADMIN] 8=FIX.4.4|9=82|35=0|34=19|49=SERVER|52=20260414-01:57:13.284|56=f2c11b00bf3d41fca072225f328ce98e|10=200|
[2026-04-14 08:57:42] [DEBUG] [TO ADMIN] 8=FIX.4.4|9=101|35=0|34=20|49=f2c11b00bf3d41fca072225f328ce98e|52=20260414-01:57:42.000|56=SERVER|1=main|553=Group13|10=060|
[2026-04-14 08:57:43] [DEBUG] [FROM ADMIN] 8=FIX.4.4|9=82|35=0|34=20|49=SERVER|52=20260414-01:57:43.284|56=f2c11b00bf3d41fca072225f328ce98e|10=195|
[2026-04-14 08:58:12] [DEBUG] [TO ADMIN] 8=FIX.4.4|9=101|35=0|34=21|49=f2c11b00bf3d41fca072225f328ce98e|52=20260414-01:58:12.000|56=SERVER|1=main|553=Group13|10=059|
[2026-04-14 08:58:13] [DEBUG] [FROM ADMIN] 8=FIX.4.4|9=82|35=0|34=21|49=SERVER|52=20260414-01:58:13.284|56=f2c11b00bf3d41fca072225f328ce98e|10=194|
[2026-04-14 08:58:42] [DEBUG] [TO ADMIN] 8=FIX.4.4|9=101|35=0|34=22|49=f2c11b00bf3d41fca072225f328ce98e|52=20260414-01:58:42.000|56=SERVER|1=main|553=Group13|10=063|
[2026-04-14 08:58:43] [DEBUG] [FROM ADMIN] 8=FIX.4.4|9=82|35=0|34=22|49=SERVER|52=20260414-01:58:43.284|56=f2c11b00bf3d41fca072225f328ce98e|10=198|
[2026-04-14 08:59:12] [DEBUG] [TO ADMIN] 8=FIX.4.4|9=101|35=0|34=23|49=f2c11b00bf3d41fca072225f328ce98e|52=20260414-01:59:12.000|56=SERVER|1=main|553=Group13|10=062|
[2026-04-14 08:59:13] [DEBUG] [FROM ADMIN] 8=FIX.4.4|9=82|35=0|34=23|49=SERVER|52=20260414-01:59:13.284|56=f2c11b00bf3d41fca072225f328ce98e|10=197|
[2026-04-14 08:59:42] [DEBUG] [TO ADMIN] 8=FIX.4.4|9=101|35=0|34=24|49=f2c11b00bf3d41fca072225f328ce98e|52=20260414-01:59:42.000|56=SERVER|1=main|553=Group13|10=066|
[2026-04-14 08:59:43] [DEBUG] [FROM ADMIN] 8=FIX.4.4|9=82|35=0|34=24|49=SERVER|52=20260414-01:59:43.284|56=f2c11b00bf3d41fca072225f328ce98e|10=201|
[2026-04-14 09:00:04] [DEBUG] POST https://papertrade.algotrade.vn/accounting/api/portfolio-by-sub/basic payload_keys=['fixAccountID', 'subAccountID']
[2026-04-14 09:00:05] [DEBUG] POST https://papertrade.algotrade.vn/accounting/api/portfolio-by-sub/basic succeeded status_code=200
[2026-04-14 09:00:05] [INFO] event=portfolio_resolved fixAccountID=f72030f52dc94e38b4c32ee0d7f9a03b subAccountID=main instrument_count=0
[2026-04-14 09:00:05] [DEBUG] POST https://papertrade.algotrade.vn/accounting/api/account-info-by-sub/remain-cash payload_keys=['fixAccountID', 'subAccountID']
[2026-04-14 09:00:05] [DEBUG] POST https://papertrade.algotrade.vn/accounting/api/account-info-by-sub/remain-cash succeeded status_code=200
[2026-04-14 09:00:05] [INFO] event=remain_cash_resolved fixAccountID=f72030f52dc94e38b4c32ee0d7f9a03b subAccountID=main remainCash=472210000
[2026-04-14 09:00:12] [DEBUG] [TO ADMIN] 8=FIX.4.4|9=101|35=0|34=25|49=f2c11b00bf3d41fca072225f328ce98e|52=20260414-02:00:12.000|56=SERVER|1=main|553=Group13|10=051|
[2026-04-14 09:00:13] [DEBUG] [FROM ADMIN] 8=FIX.4.4|9=82|35=0|34=25|49=SERVER|52=20260414-02:00:13.284|56=f2c11b00bf3d41fca072225f328ce98e|10=186|
[2026-04-14 09:00:42] [DEBUG] [TO ADMIN] 8=FIX.4.4|9=101|35=0|34=26|49=f2c11b00bf3d41fca072225f328ce98e|52=20260414-02:00:42.000|56=SERVER|1=main|553=Group13|10=055|
[2026-04-14 09:00:43] [DEBUG] [FROM ADMIN] 8=FIX.4.4|9=82|35=0|34=26|49=SERVER|52=20260414-02:00:43.284|56=f2c11b00bf3d41fca072225f328ce98e|10=190|
[2026-04-14 09:01:12] [DEBUG] [TO ADMIN] 8=FIX.4.4|9=101|35=0|34=27|49=f2c11b00bf3d41fca072225f328ce98e|52=20260414-02:01:12.000|56=SERVER|1=main|553=Group13|10=054|
[2026-04-14 09:01:13] [DEBUG] [FROM ADMIN] 8=FIX.4.4|9=82|35=0|34=27|49=SERVER|52=20260414-02:01:13.284|56=f2c11b00bf3d41fca072225f328ce98e|10=189|
[2026-04-14 09:01:42] [DEBUG] [TO ADMIN] 8=FIX.4.4|9=101|35=0|34=28|49=f2c11b00bf3d41fca072225f328ce98e|52=20260414-02:01:42.000|56=SERVER|1=main|553=Group13|10=058|
[2026-04-14 09:01:43] [DEBUG] [FROM ADMIN] 8=FIX.4.4|9=82|35=0|34=28|49=SERVER|52=20260414-02:01:43.284|56=f2c11b00bf3d41fca072225f328ce98e|10=193|
[2026-04-14 09:02:12] [DEBUG] [TO ADMIN] 8=FIX.4.4|9=101|35=0|34=29|49=f2c11b00bf3d41fca072225f328ce98e|52=20260414-02:02:12.000|56=SERVER|1=main|553=Group13|10=057|
[2026-04-14 09:02:13] [DEBUG] [FROM ADMIN] 8=FIX.4.4|9=82|35=0|34=29|49=SERVER|52=20260414-02:02:13.284|56=f2c11b00bf3d41fca072225f328ce98e|10=192|
[2026-04-14 09:02:42] [DEBUG] [TO ADMIN] 8=FIX.4.4|9=101|35=0|34=30|49=f2c11b00bf3d41fca072225f328ce98e|52=20260414-02:02:42.000|56=SERVER|1=main|553=Group13|10=052|
[2026-04-14 09:02:43] [DEBUG] [FROM ADMIN] 8=FIX.4.4|9=82|35=0|34=30|49=SERVER|52=20260414-02:02:43.284|56=f2c11b00bf3d41fca072225f328ce98e|10=187|
[2026-04-14 09:03:12] [DEBUG] [TO ADMIN] 8=FIX.4.4|9=101|35=0|34=31|49=f2c11b00bf3d41fca072225f328ce98e|52=20260414-02:03:12.000|56=SERVER|1=main|553=Group13|10=051|
[2026-04-14 09:03:13] [DEBUG] [FROM ADMIN] 8=FIX.4.4|9=82|35=0|34=31|49=SERVER|52=20260414-02:03:13.284|56=f2c11b00bf3d41fca072225f328ce98e|10=186|
[2026-04-14 09:03:42] [DEBUG] [TO ADMIN] 8=FIX.4.4|9=101|35=0|34=32|49=f2c11b00bf3d41fca072225f328ce98e|52=20260414-02:03:42.000|56=SERVER|1=main|553=Group13|10=055|
[2026-04-14 09:03:43] [DEBUG] [FROM ADMIN] 8=FIX.4.4|9=82|35=0|34=32|49=SERVER|52=20260414-02:03:43.284|56=f2c11b00bf3d41fca072225f328ce98e|10=190|
[2026-04-14 09:04:12] [DEBUG] [TO ADMIN] 8=FIX.4.4|9=101|35=0|34=33|49=f2c11b00bf3d41fca072225f328ce98e|52=20260414-02:04:12.000|56=SERVER|1=main|553=Group13|10=054|
[2026-04-14 09:04:13] [DEBUG] [FROM ADMIN] 8=FIX.4.4|9=82|35=0|34=33|49=SERVER|52=20260414-02:04:13.284|56=f2c11b00bf3d41fca072225f328ce98e|10=189|
[2026-04-14 09:04:42] [DEBUG] [TO ADMIN] 8=FIX.4.4|9=101|35=0|34=34|49=f2c11b00bf3d41fca072225f328ce98e|52=20260414-02:04:42.000|56=SERVER|1=main|553=Group13|10=058|
[2026-04-14 09:04:43] [DEBUG] [FROM ADMIN] 8=FIX.4.4|9=82|35=0|34=34|49=SERVER|52=20260414-02:04:43.284|56=f2c11b00bf3d41fca072225f328ce98e|10=193|
[2026-04-14 09:05:12] [DEBUG] [TO ADMIN] 8=FIX.4.4|9=101|35=0|34=35|49=f2c11b00bf3d41fca072225f328ce98e|52=20260414-02:05:12.000|56=SERVER|1=main|553=Group13|10=057|
[2026-04-14 09:05:13] [DEBUG] [FROM ADMIN] 8=FIX.4.4|9=82|35=0|34=35|49=SERVER|52=20260414-02:05:13.284|56=f2c11b00bf3d41fca072225f328ce98e|10=192|
[2026-04-14 09:05:42] [DEBUG] [TO ADMIN] 8=FIX.4.4|9=101|35=0|34=36|49=f2c11b00bf3d41fca072225f328ce98e|52=20260414-02:05:42.000|56=SERVER|1=main|553=Group13|10=061|
[2026-04-14 09:05:43] [DEBUG] [FROM ADMIN] 8=FIX.4.4|9=82|35=0|34=36|49=SERVER|52=20260414-02:05:43.284|56=f2c11b00bf3d41fca072225f328ce98e|10=196|
[2026-04-14 09:06:12] [DEBUG] [TO ADMIN] 8=FIX.4.4|9=101|35=0|34=37|49=f2c11b00bf3d41fca072225f328ce98e|52=20260414-02:06:12.000|56=SERVER|1=main|553=Group13|10=060|
[2026-04-14 09:06:13] [DEBUG] [FROM ADMIN] 8=FIX.4.4|9=82|35=0|34=37|49=SERVER|52=20260414-02:06:13.284|56=f2c11b00bf3d41fca072225f328ce98e|10=195|
[2026-04-14 09:06:42] [DEBUG] [TO ADMIN] 8=FIX.4.4|9=101|35=0|34=38|49=f2c11b00bf3d41fca072225f328ce98e|52=20260414-02:06:42.000|56=SERVER|1=main|553=Group13|10=064|
[2026-04-14 09:06:43] [DEBUG] [FROM ADMIN] 8=FIX.4.4|9=82|35=0|34=38|49=SERVER|52=20260414-02:06:43.284|56=f2c11b00bf3d41fca072225f328ce98e|10=199|
[2026-04-14 09:07:12] [DEBUG] [TO ADMIN] 8=FIX.4.4|9=101|35=0|34=39|49=f2c11b00bf3d41fca072225f328ce98e|52=20260414-02:07:12.000|56=SERVER|1=main|553=Group13|10=063|
[2026-04-14 09:07:13] [DEBUG] [FROM ADMIN] 8=FIX.4.4|9=82|35=0|34=39|49=SERVER|52=20260414-02:07:13.284|56=f2c11b00bf3d41fca072225f328ce98e|10=198|
[2026-04-14 09:07:42] [DEBUG] [TO ADMIN] 8=FIX.4.4|9=101|35=0|34=40|49=f2c11b00bf3d41fca072225f328ce98e|52=20260414-02:07:42.000|56=SERVER|1=main|553=Group13|10=058|
[2026-04-14 09:07:43] [DEBUG] [FROM ADMIN] 8=FIX.4.4|9=82|35=0|34=40|49=SERVER|52=20260414-02:07:43.284|56=f2c11b00bf3d41fca072225f328ce98e|10=193|
[2026-04-14 09:08:12] [DEBUG] [TO ADMIN] 8=FIX.4.4|9=101|35=0|34=41|49=f2c11b00bf3d41fca072225f328ce98e|52=20260414-02:08:12.000|56=SERVER|1=main|553=Group13|10=057|
[2026-04-14 09:08:13] [DEBUG] [FROM ADMIN] 8=FIX.4.4|9=82|35=0|34=41|49=SERVER|52=20260414-02:08:13.284|56=f2c11b00bf3d41fca072225f328ce98e|10=192|
[2026-04-14 09:08:42] [DEBUG] [TO ADMIN] 8=FIX.4.4|9=101|35=0|34=42|49=f2c11b00bf3d41fca072225f328ce98e|52=20260414-02:08:42.000|56=SERVER|1=main|553=Group13|10=061|
[2026-04-14 09:08:43] [DEBUG] [FROM ADMIN] 8=FIX.4.4|9=82|35=0|34=42|49=SERVER|52=20260414-02:08:43.284|56=f2c11b00bf3d41fca072225f328ce98e|10=196|
[2026-04-14 09:09:12] [DEBUG] [TO ADMIN] 8=FIX.4.4|9=101|35=0|34=43|49=f2c11b00bf3d41fca072225f328ce98e|52=20260414-02:09:12.000|56=SERVER|1=main|553=Group13|10=060|
[2026-04-14 09:09:13] [DEBUG] [FROM ADMIN] 8=FIX.4.4|9=82|35=0|34=43|49=SERVER|52=20260414-02:09:13.284|56=f2c11b00bf3d41fca072225f328ce98e|10=195|
[2026-04-14 09:09:42] [DEBUG] [TO ADMIN] 8=FIX.4.4|9=101|35=0|34=44|49=f2c11b00bf3d41fca072225f328ce98e|52=20260414-02:09:42.000|56=SERVER|1=main|553=Group13|10=064|
[2026-04-14 09:09:43] [DEBUG] [FROM ADMIN] 8=FIX.4.4|9=82|35=0|34=44|49=SERVER|52=20260414-02:09:43.284|56=f2c11b00bf3d41fca072225f328ce98e|10=199|
[2026-04-14 09:10:12] [DEBUG] [TO ADMIN] 8=FIX.4.4|9=101|35=0|34=45|49=f2c11b00bf3d41fca072225f328ce98e|52=20260414-02:10:12.000|56=SERVER|1=main|553=Group13|10=054|
[2026-04-14 09:10:13] [DEBUG] [FROM ADMIN] 8=FIX.4.4|9=82|35=0|34=45|49=SERVER|52=20260414-02:10:13.284|56=f2c11b00bf3d41fca072225f328ce98e|10=189|
[2026-04-14 09:10:42] [DEBUG] [TO ADMIN] 8=FIX.4.4|9=101|35=0|34=46|49=f2c11b00bf3d41fca072225f328ce98e|52=20260414-02:10:42.000|56=SERVER|1=main|553=Group13|10=058|
[2026-04-14 09:10:43] [DEBUG] [FROM ADMIN] 8=FIX.4.4|9=82|35=0|34=46|49=SERVER|52=20260414-02:10:43.284|56=f2c11b00bf3d41fca072225f328ce98e|10=193|
[2026-04-14 09:11:12] [DEBUG] [TO ADMIN] 8=FIX.4.4|9=101|35=0|34=47|49=f2c11b00bf3d41fca072225f328ce98e|52=20260414-02:11:12.000|56=SERVER|1=main|553=Group13|10=057|
[2026-04-14 09:11:13] [DEBUG] [FROM ADMIN] 8=FIX.4.4|9=82|35=0|34=47|49=SERVER|52=20260414-02:11:13.284|56=f2c11b00bf3d41fca072225f328ce98e|10=192|
[2026-04-14 09:11:42] [DEBUG] [TO ADMIN] 8=FIX.4.4|9=101|35=0|34=48|49=f2c11b00bf3d41fca072225f328ce98e|52=20260414-02:11:42.000|56=SERVER|1=main|553=Group13|10=061|
[2026-04-14 09:11:43] [DEBUG] [FROM ADMIN] 8=FIX.4.4|9=82|35=0|34=48|49=SERVER|52=20260414-02:11:43.284|56=f2c11b00bf3d41fca072225f328ce98e|10=196|
[2026-04-14 09:12:12] [DEBUG] [TO ADMIN] 8=FIX.4.4|9=101|35=0|34=49|49=f2c11b00bf3d41fca072225f328ce98e|52=20260414-02:12:12.000|56=SERVER|1=main|553=Group13|10=060|
[2026-04-14 09:12:13] [DEBUG] [FROM ADMIN] 8=FIX.4.4|9=82|35=0|34=49|49=SERVER|52=20260414-02:12:13.284|56=f2c11b00bf3d41fca072225f328ce98e|10=195|
[2026-04-14 09:12:42] [DEBUG] [TO ADMIN] 8=FIX.4.4|9=101|35=0|34=50|49=f2c11b00bf3d41fca072225f328ce98e|52=20260414-02:12:42.000|56=SERVER|1=main|553=Group13|10=055|
[2026-04-14 09:12:43] [DEBUG] [FROM ADMIN] 8=FIX.4.4|9=82|35=0|34=50|49=SERVER|52=20260414-02:12:43.284|56=f2c11b00bf3d41fca072225f328ce98e|10=190|
[2026-04-14 09:13:12] [DEBUG] [TO ADMIN] 8=FIX.4.4|9=101|35=0|34=51|49=f2c11b00bf3d41fca072225f328ce98e|52=20260414-02:13:12.000|56=SERVER|1=main|553=Group13|10=054|
[2026-04-14 09:13:13] [DEBUG] [FROM ADMIN] 8=FIX.4.4|9=82|35=0|34=51|49=SERVER|52=20260414-02:13:13.284|56=f2c11b00bf3d41fca072225f328ce98e|10=189|
[2026-04-14 09:13:42] [DEBUG] [TO ADMIN] 8=FIX.4.4|9=101|35=0|34=52|49=f2c11b00bf3d41fca072225f328ce98e|52=20260414-02:13:42.000|56=SERVER|1=main|553=Group13|10=058|
[2026-04-14 09:13:43] [DEBUG] [FROM ADMIN] 8=FIX.4.4|9=82|35=0|34=52|49=SERVER|52=20260414-02:13:43.284|56=f2c11b00bf3d41fca072225f328ce98e|10=193|
[2026-04-14 09:14:12] [DEBUG] [TO ADMIN] 8=FIX.4.4|9=101|35=0|34=53|49=f2c11b00bf3d41fca072225f328ce98e|52=20260414-02:14:12.000|56=SERVER|1=main|553=Group13|10=057|
[2026-04-14 09:14:13] [DEBUG] [FROM ADMIN] 8=FIX.4.4|9=82|35=0|34=53|49=SERVER|52=20260414-02:14:13.285|56=f2c11b00bf3d41fca072225f328ce98e|10=193|
[2026-04-14 09:14:42] [DEBUG] [TO ADMIN] 8=FIX.4.4|9=101|35=0|34=54|49=f2c11b00bf3d41fca072225f328ce98e|52=20260414-02:14:42.000|56=SERVER|1=main|553=Group13|10=061|
[2026-04-14 09:14:43] [DEBUG] [FROM ADMIN] 8=FIX.4.4|9=82|35=0|34=54|49=SERVER|52=20260414-02:14:43.284|56=f2c11b00bf3d41fca072225f328ce98e|10=196|
[2026-04-14 09:15:04] [DEBUG] POST https://papertrade.algotrade.vn/accounting/api/portfolio-by-sub/basic payload_keys=['fixAccountID', 'subAccountID']
[2026-04-14 09:15:04] [DEBUG] POST https://papertrade.algotrade.vn/accounting/api/portfolio-by-sub/basic succeeded status_code=200
[2026-04-14 09:15:04] [INFO] event=portfolio_resolved fixAccountID=f72030f52dc94e38b4c32ee0d7f9a03b subAccountID=main instrument_count=0
[2026-04-14 09:15:04] [DEBUG] POST https://papertrade.algotrade.vn/accounting/api/account-info-by-sub/remain-cash payload_keys=['fixAccountID', 'subAccountID']
[2026-04-14 09:15:04] [DEBUG] POST https://papertrade.algotrade.vn/accounting/api/account-info-by-sub/remain-cash succeeded status_code=200
[2026-04-14 09:15:04] [INFO] event=remain_cash_resolved fixAccountID=f72030f52dc94e38b4c32ee0d7f9a03b subAccountID=main remainCash=472210000
[2026-04-14 09:15:12] [DEBUG] [TO ADMIN] 8=FIX.4.4|9=101|35=0|34=55|49=f2c11b00bf3d41fca072225f328ce98e|52=20260414-02:15:12.000|56=SERVER|1=main|553=Group13|10=060|
[2026-04-14 09:15:13] [DEBUG] [FROM ADMIN] 8=FIX.4.4|9=82|35=0|34=55|49=SERVER|52=20260414-02:15:13.284|56=f2c11b00bf3d41fca072225f328ce98e|10=195|
[2026-04-14 09:15:42] [DEBUG] [TO ADMIN] 8=FIX.4.4|9=101|35=0|34=56|49=f2c11b00bf3d41fca072225f328ce98e|52=20260414-02:15:42.000|56=SERVER|1=main|553=Group13|10=064|
[2026-04-14 09:15:43] [DEBUG] [FROM ADMIN] 8=FIX.4.4|9=82|35=0|34=56|49=SERVER|52=20260414-02:15:43.284|56=f2c11b00bf3d41fca072225f328ce98e|10=199|
[2026-04-14 09:16:12] [DEBUG] [TO ADMIN] 8=FIX.4.4|9=101|35=0|34=57|49=f2c11b00bf3d41fca072225f328ce98e|52=20260414-02:16:12.000|56=SERVER|1=main|553=Group13|10=063|
[2026-04-14 09:16:13] [DEBUG] [FROM ADMIN] 8=FIX.4.4|9=82|35=0|34=57|49=SERVER|52=20260414-02:16:13.284|56=f2c11b00bf3d41fca072225f328ce98e|10=198|
[2026-04-14 09:16:42] [DEBUG] [TO ADMIN] 8=FIX.4.4|9=101|35=0|34=58|49=f2c11b00bf3d41fca072225f328ce98e|52=20260414-02:16:42.000|56=SERVER|1=main|553=Group13|10=067|
[2026-04-14 09:16:43] [DEBUG] [FROM ADMIN] 8=FIX.4.4|9=82|35=0|34=58|49=SERVER|52=20260414-02:16:43.284|56=f2c11b00bf3d41fca072225f328ce98e|10=202|
[2026-04-14 09:17:12] [DEBUG] [TO ADMIN] 8=FIX.4.4|9=101|35=0|34=59|49=f2c11b00bf3d41fca072225f328ce98e|52=20260414-02:17:12.000|56=SERVER|1=main|553=Group13|10=066|
[2026-04-14 09:17:13] [DEBUG] [FROM ADMIN] 8=FIX.4.4|9=82|35=0|34=59|49=SERVER|52=20260414-02:17:13.284|56=f2c11b00bf3d41fca072225f328ce98e|10=201|
[2026-04-14 09:17:42] [DEBUG] [TO ADMIN] 8=FIX.4.4|9=101|35=0|34=60|49=f2c11b00bf3d41fca072225f328ce98e|52=20260414-02:17:42.000|56=SERVER|1=main|553=Group13|10=061|
[2026-04-14 09:17:43] [DEBUG] [FROM ADMIN] 8=FIX.4.4|9=82|35=0|34=60|49=SERVER|52=20260414-02:17:43.284|56=f2c11b00bf3d41fca072225f328ce98e|10=196|
[2026-04-14 09:18:12] [DEBUG] [TO ADMIN] 8=FIX.4.4|9=101|35=0|34=61|49=f2c11b00bf3d41fca072225f328ce98e|52=20260414-02:18:12.000|56=SERVER|1=main|553=Group13|10=060|
[2026-04-14 09:18:13] [DEBUG] [FROM ADMIN] 8=FIX.4.4|9=82|35=0|34=61|49=SERVER|52=20260414-02:18:13.284|56=f2c11b00bf3d41fca072225f328ce98e|10=195|
[2026-04-14 09:18:42] [DEBUG] [TO ADMIN] 8=FIX.4.4|9=101|35=0|34=62|49=f2c11b00bf3d41fca072225f328ce98e|52=20260414-02:18:42.000|56=SERVER|1=main|553=Group13|10=064|
[2026-04-14 09:18:43] [DEBUG] [FROM ADMIN] 8=FIX.4.4|9=82|35=0|34=62|49=SERVER|52=20260414-02:18:43.284|56=f2c11b00bf3d41fca072225f328ce98e|10=199|
[2026-04-14 09:19:12] [DEBUG] [TO ADMIN] 8=FIX.4.4|9=101|35=0|34=63|49=f2c11b00bf3d41fca072225f328ce98e|52=20260414-02:19:12.000|56=SERVER|1=main|553=Group13|10=063|
[2026-04-14 09:19:13] [DEBUG] [FROM ADMIN] 8=FIX.4.4|9=82|35=0|34=63|49=SERVER|52=20260414-02:19:13.284|56=f2c11b00bf3d41fca072225f328ce98e|10=198|
[2026-04-14 09:19:42] [DEBUG] [TO ADMIN] 8=FIX.4.4|9=101|35=0|34=64|49=f2c11b00bf3d41fca072225f328ce98e|52=20260414-02:19:42.000|56=SERVER|1=main|553=Group13|10=067|
[2026-04-14 09:19:43] [DEBUG] [FROM ADMIN] 8=FIX.4.4|9=82|35=0|34=64|49=SERVER|52=20260414-02:19:43.284|56=f2c11b00bf3d41fca072225f328ce98e|10=202|
[2026-04-14 09:20:12] [DEBUG] [TO ADMIN] 8=FIX.4.4|9=101|35=0|34=65|49=f2c11b00bf3d41fca072225f328ce98e|52=20260414-02:20:12.000|56=SERVER|1=main|553=Group13|10=057|
[2026-04-14 09:20:13] [DEBUG] [FROM ADMIN] 8=FIX.4.4|9=82|35=0|34=65|49=SERVER|52=20260414-02:20:13.284|56=f2c11b00bf3d41fca072225f328ce98e|10=192|
[2026-04-14 09:20:42] [DEBUG] [TO ADMIN] 8=FIX.4.4|9=101|35=0|34=66|49=f2c11b00bf3d41fca072225f328ce98e|52=20260414-02:20:42.000|56=SERVER|1=main|553=Group13|10=061|
[2026-04-14 09:20:43] [DEBUG] [FROM ADMIN] 8=FIX.4.4|9=82|35=0|34=66|49=SERVER|52=20260414-02:20:43.284|56=f2c11b00bf3d41fca072225f328ce98e|10=196|
[2026-04-14 09:21:12] [DEBUG] [TO ADMIN] 8=FIX.4.4|9=101|35=0|34=67|49=f2c11b00bf3d41fca072225f328ce98e|52=20260414-02:21:12.000|56=SERVER|1=main|553=Group13|10=060|
[2026-04-14 09:21:13] [DEBUG] [FROM ADMIN] 8=FIX.4.4|9=82|35=0|34=67|49=SERVER|52=20260414-02:21:13.284|56=f2c11b00bf3d41fca072225f328ce98e|10=195|
[2026-04-14 09:21:42] [DEBUG] [TO ADMIN] 8=FIX.4.4|9=101|35=0|34=68|49=f2c11b00bf3d41fca072225f328ce98e|52=20260414-02:21:42.000|56=SERVER|1=main|553=Group13|10=064|
[2026-04-14 09:21:43] [DEBUG] [FROM ADMIN] 8=FIX.4.4|9=82|35=0|34=68|49=SERVER|52=20260414-02:21:43.284|56=f2c11b00bf3d41fca072225f328ce98e|10=199|
[2026-04-14 09:22:12] [DEBUG] [TO ADMIN] 8=FIX.4.4|9=101|35=0|34=69|49=f2c11b00bf3d41fca072225f328ce98e|52=20260414-02:22:12.000|56=SERVER|1=main|553=Group13|10=063|
[2026-04-14 09:22:13] [DEBUG] [FROM ADMIN] 8=FIX.4.4|9=82|35=0|34=69|49=SERVER|52=20260414-02:22:13.284|56=f2c11b00bf3d41fca072225f328ce98e|10=198|
[2026-04-14 09:22:42] [DEBUG] [TO ADMIN] 8=FIX.4.4|9=101|35=0|34=70|49=f2c11b00bf3d41fca072225f328ce98e|52=20260414-02:22:42.000|56=SERVER|1=main|553=Group13|10=058|
[2026-04-14 09:22:43] [DEBUG] [FROM ADMIN] 8=FIX.4.4|9=82|35=0|34=70|49=SERVER|52=20260414-02:22:43.284|56=f2c11b00bf3d41fca072225f328ce98e|10=193|
[2026-04-14 09:23:12] [DEBUG] [TO ADMIN] 8=FIX.4.4|9=101|35=0|34=71|49=f2c11b00bf3d41fca072225f328ce98e|52=20260414-02:23:12.000|56=SERVER|1=main|553=Group13|10=057|
[2026-04-14 09:23:13] [DEBUG] [FROM ADMIN] 8=FIX.4.4|9=82|35=0|34=71|49=SERVER|52=20260414-02:23:13.284|56=f2c11b00bf3d41fca072225f328ce98e|10=192|
[2026-04-14 09:23:42] [DEBUG] [TO ADMIN] 8=FIX.4.4|9=101|35=0|34=72|49=f2c11b00bf3d41fca072225f328ce98e|52=20260414-02:23:42.000|56=SERVER|1=main|553=Group13|10=061|
[2026-04-14 09:23:43] [DEBUG] [FROM ADMIN] 8=FIX.4.4|9=82|35=0|34=72|49=SERVER|52=20260414-02:23:43.284|56=f2c11b00bf3d41fca072225f328ce98e|10=196|
[2026-04-14 09:24:12] [DEBUG] [TO ADMIN] 8=FIX.4.4|9=101|35=0|34=73|49=f2c11b00bf3d41fca072225f328ce98e|52=20260414-02:24:12.000|56=SERVER|1=main|553=Group13|10=060|
[2026-04-14 09:24:13] [DEBUG] [FROM ADMIN] 8=FIX.4.4|9=82|35=0|34=73|49=SERVER|52=20260414-02:24:13.284|56=f2c11b00bf3d41fca072225f328ce98e|10=195|
[2026-04-14 09:24:42] [DEBUG] [TO ADMIN] 8=FIX.4.4|9=101|35=0|34=74|49=f2c11b00bf3d41fca072225f328ce98e|52=20260414-02:24:42.000|56=SERVER|1=main|553=Group13|10=064|
[2026-04-14 09:24:43] [DEBUG] [FROM ADMIN] 8=FIX.4.4|9=82|35=0|34=74|49=SERVER|52=20260414-02:24:43.284|56=f2c11b00bf3d41fca072225f328ce98e|10=199|
[2026-04-14 09:25:12] [DEBUG] [TO ADMIN] 8=FIX.4.4|9=101|35=0|34=75|49=f2c11b00bf3d41fca072225f328ce98e|52=20260414-02:25:12.000|56=SERVER|1=main|553=Group13|10=063|
[2026-04-14 09:25:13] [DEBUG] [FROM ADMIN] 8=FIX.4.4|9=82|35=0|34=75|49=SERVER|52=20260414-02:25:13.284|56=f2c11b00bf3d41fca072225f328ce98e|10=198|
[2026-04-14 09:25:42] [DEBUG] [TO ADMIN] 8=FIX.4.4|9=101|35=0|34=76|49=f2c11b00bf3d41fca072225f328ce98e|52=20260414-02:25:42.000|56=SERVER|1=main|553=Group13|10=067|
[2026-04-14 09:25:43] [DEBUG] [FROM ADMIN] 8=FIX.4.4|9=82|35=0|34=76|49=SERVER|52=20260414-02:25:43.285|56=f2c11b00bf3d41fca072225f328ce98e|10=203|
[2026-04-14 09:26:12] [DEBUG] [TO ADMIN] 8=FIX.4.4|9=101|35=0|34=77|49=f2c11b00bf3d41fca072225f328ce98e|52=20260414-02:26:12.000|56=SERVER|1=main|553=Group13|10=066|
[2026-04-14 09:26:13] [DEBUG] [FROM ADMIN] 8=FIX.4.4|9=82|35=0|34=77|49=SERVER|52=20260414-02:26:13.285|56=f2c11b00bf3d41fca072225f328ce98e|10=202|
[2026-04-14 09:26:42] [DEBUG] [TO ADMIN] 8=FIX.4.4|9=101|35=0|34=78|49=f2c11b00bf3d41fca072225f328ce98e|52=20260414-02:26:42.000|56=SERVER|1=main|553=Group13|10=070|
[2026-04-14 09:26:43] [DEBUG] [FROM ADMIN] 8=FIX.4.4|9=82|35=0|34=78|49=SERVER|52=20260414-02:26:43.284|56=f2c11b00bf3d41fca072225f328ce98e|10=205|
[2026-04-14 09:27:12] [DEBUG] [TO ADMIN] 8=FIX.4.4|9=101|35=0|34=79|49=f2c11b00bf3d41fca072225f328ce98e|52=20260414-02:27:12.000|56=SERVER|1=main|553=Group13|10=069|
[2026-04-14 09:27:13] [DEBUG] [FROM ADMIN] 8=FIX.4.4|9=82|35=0|34=79|49=SERVER|52=20260414-02:27:13.284|56=f2c11b00bf3d41fca072225f328ce98e|10=204|
[2026-04-14 09:27:42] [DEBUG] [TO ADMIN] 8=FIX.4.4|9=101|35=0|34=80|49=f2c11b00bf3d41fca072225f328ce98e|52=20260414-02:27:42.000|56=SERVER|1=main|553=Group13|10=064|
[2026-04-14 09:27:43] [DEBUG] [FROM ADMIN] 8=FIX.4.4|9=82|35=0|34=80|49=SERVER|52=20260414-02:27:43.284|56=f2c11b00bf3d41fca072225f328ce98e|10=199|
[2026-04-14 09:28:12] [DEBUG] [TO ADMIN] 8=FIX.4.4|9=101|35=0|34=81|49=f2c11b00bf3d41fca072225f328ce98e|52=20260414-02:28:12.000|56=SERVER|1=main|553=Group13|10=063|
[2026-04-14 09:28:13] [DEBUG] [FROM ADMIN] 8=FIX.4.4|9=82|35=0|34=81|49=SERVER|52=20260414-02:28:13.285|56=f2c11b00bf3d41fca072225f328ce98e|10=199|
[2026-04-14 09:28:42] [DEBUG] [TO ADMIN] 8=FIX.4.4|9=101|35=0|34=82|49=f2c11b00bf3d41fca072225f328ce98e|52=20260414-02:28:42.000|56=SERVER|1=main|553=Group13|10=067|
[2026-04-14 09:28:43] [DEBUG] [FROM ADMIN] 8=FIX.4.4|9=82|35=0|34=82|49=SERVER|52=20260414-02:28:43.284|56=f2c11b00bf3d41fca072225f328ce98e|10=202|
[2026-04-14 09:29:12] [DEBUG] [TO ADMIN] 8=FIX.4.4|9=101|35=0|34=83|49=f2c11b00bf3d41fca072225f328ce98e|52=20260414-02:29:12.000|56=SERVER|1=main|553=Group13|10=066|
[2026-04-14 09:29:13] [DEBUG] [FROM ADMIN] 8=FIX.4.4|9=82|35=0|34=83|49=SERVER|52=20260414-02:29:13.284|56=f2c11b00bf3d41fca072225f328ce98e|10=201|
[2026-04-14 09:29:42] [DEBUG] [TO ADMIN] 8=FIX.4.4|9=101|35=0|34=84|49=f2c11b00bf3d41fca072225f328ce98e|52=20260414-02:29:42.000|56=SERVER|1=main|553=Group13|10=070|
[2026-04-14 09:29:43] [DEBUG] [FROM ADMIN] 8=FIX.4.4|9=82|35=0|34=84|49=SERVER|52=20260414-02:29:43.284|56=f2c11b00bf3d41fca072225f328ce98e|10=205|
[2026-04-14 09:30:05] [DEBUG] POST https://papertrade.algotrade.vn/accounting/api/portfolio-by-sub/basic payload_keys=['fixAccountID', 'subAccountID']
[2026-04-14 09:30:05] [DEBUG] POST https://papertrade.algotrade.vn/accounting/api/portfolio-by-sub/basic succeeded status_code=200
[2026-04-14 09:30:05] [INFO] event=portfolio_resolved fixAccountID=f72030f52dc94e38b4c32ee0d7f9a03b subAccountID=main instrument_count=0
[2026-04-14 09:30:05] [DEBUG] POST https://papertrade.algotrade.vn/accounting/api/account-info-by-sub/remain-cash payload_keys=['fixAccountID', 'subAccountID']
[2026-04-14 09:30:05] [DEBUG] POST https://papertrade.algotrade.vn/accounting/api/account-info-by-sub/remain-cash succeeded status_code=200
[2026-04-14 09:30:05] [INFO] event=remain_cash_resolved fixAccountID=f72030f52dc94e38b4c32ee0d7f9a03b subAccountID=main remainCash=472210000
[2026-04-14 09:30:12] [DEBUG] [TO ADMIN] 8=FIX.4.4|9=101|35=0|34=85|49=f2c11b00bf3d41fca072225f328ce98e|52=20260414-02:30:12.000|56=SERVER|1=main|553=Group13|10=060|
[2026-04-14 09:30:13] [DEBUG] [FROM ADMIN] 8=FIX.4.4|9=82|35=0|34=85|49=SERVER|52=20260414-02:30:13.284|56=f2c11b00bf3d41fca072225f328ce98e|10=195|
[2026-04-14 09:30:42] [DEBUG] [TO ADMIN] 8=FIX.4.4|9=101|35=0|34=86|49=f2c11b00bf3d41fca072225f328ce98e|52=20260414-02:30:42.000|56=SERVER|1=main|553=Group13|10=064|
[2026-04-14 09:30:43] [DEBUG] [FROM ADMIN] 8=FIX.4.4|9=82|35=0|34=86|49=SERVER|52=20260414-02:30:43.284|56=f2c11b00bf3d41fca072225f328ce98e|10=199|
[2026-04-14 09:31:12] [DEBUG] [TO ADMIN] 8=FIX.4.4|9=101|35=0|34=87|49=f2c11b00bf3d41fca072225f328ce98e|52=20260414-02:31:12.000|56=SERVER|1=main|553=Group13|10=063|
[2026-04-14 09:31:13] [DEBUG] [FROM ADMIN] 8=FIX.4.4|9=82|35=0|34=87|49=SERVER|52=20260414-02:31:13.284|56=f2c11b00bf3d41fca072225f328ce98e|10=198|
[2026-04-14 09:31:42] [DEBUG] [TO ADMIN] 8=FIX.4.4|9=101|35=0|34=88|49=f2c11b00bf3d41fca072225f328ce98e|52=20260414-02:31:42.000|56=SERVER|1=main|553=Group13|10=067|
[2026-04-14 09:31:43] [DEBUG] [FROM ADMIN] 8=FIX.4.4|9=82|35=0|34=88|49=SERVER|52=20260414-02:31:43.284|56=f2c11b00bf3d41fca072225f328ce98e|10=202|
[2026-04-14 09:32:12] [DEBUG] [TO ADMIN] 8=FIX.4.4|9=101|35=0|34=89|49=f2c11b00bf3d41fca072225f328ce98e|52=20260414-02:32:12.000|56=SERVER|1=main|553=Group13|10=066|
[2026-04-14 09:32:13] [DEBUG] [FROM ADMIN] 8=FIX.4.4|9=82|35=0|34=89|49=SERVER|52=20260414-02:32:13.284|56=f2c11b00bf3d41fca072225f328ce98e|10=201|
[2026-04-14 09:32:42] [DEBUG] [TO ADMIN] 8=FIX.4.4|9=101|35=0|34=90|49=f2c11b00bf3d41fca072225f328ce98e|52=20260414-02:32:42.000|56=SERVER|1=main|553=Group13|10=061|
[2026-04-14 09:32:43] [DEBUG] [FROM ADMIN] 8=FIX.4.4|9=82|35=0|34=90|49=SERVER|52=20260414-02:32:43.284|56=f2c11b00bf3d41fca072225f328ce98e|10=196|
[2026-04-14 09:33:12] [DEBUG] [TO ADMIN] 8=FIX.4.4|9=101|35=0|34=91|49=f2c11b00bf3d41fca072225f328ce98e|52=20260414-02:33:12.000|56=SERVER|1=main|553=Group13|10=060|
[2026-04-14 09:33:13] [DEBUG] [FROM ADMIN] 8=FIX.4.4|9=82|35=0|34=91|49=SERVER|52=20260414-02:33:13.284|56=f2c11b00bf3d41fca072225f328ce98e|10=195|
[2026-04-14 09:33:42] [DEBUG] [TO ADMIN] 8=FIX.4.4|9=101|35=0|34=92|49=f2c11b00bf3d41fca072225f328ce98e|52=20260414-02:33:42.000|56=SERVER|1=main|553=Group13|10=064|
[2026-04-14 09:33:43] [DEBUG] [FROM ADMIN] 8=FIX.4.4|9=82|35=0|34=92|49=SERVER|52=20260414-02:33:43.284|56=f2c11b00bf3d41fca072225f328ce98e|10=199|
[2026-04-14 09:34:12] [DEBUG] [TO ADMIN] 8=FIX.4.4|9=101|35=0|34=93|49=f2c11b00bf3d41fca072225f328ce98e|52=20260414-02:34:12.000|56=SERVER|1=main|553=Group13|10=063|
[2026-04-14 09:34:13] [DEBUG] [FROM ADMIN] 8=FIX.4.4|9=82|35=0|34=93|49=SERVER|52=20260414-02:34:13.284|56=f2c11b00bf3d41fca072225f328ce98e|10=198|
[2026-04-14 09:34:42] [DEBUG] [TO ADMIN] 8=FIX.4.4|9=101|35=0|34=94|49=f2c11b00bf3d41fca072225f328ce98e|52=20260414-02:34:42.000|56=SERVER|1=main|553=Group13|10=067|
[2026-04-14 09:34:43] [DEBUG] [FROM ADMIN] 8=FIX.4.4|9=82|35=0|34=94|49=SERVER|52=20260414-02:34:43.284|56=f2c11b00bf3d41fca072225f328ce98e|10=202|
[2026-04-14 09:35:12] [DEBUG] [TO ADMIN] 8=FIX.4.4|9=101|35=0|34=95|49=f2c11b00bf3d41fca072225f328ce98e|52=20260414-02:35:12.000|56=SERVER|1=main|553=Group13|10=066|
[2026-04-14 09:35:13] [DEBUG] [FROM ADMIN] 8=FIX.4.4|9=82|35=0|34=95|49=SERVER|52=20260414-02:35:13.284|56=f2c11b00bf3d41fca072225f328ce98e|10=201|
[2026-04-14 09:35:42] [DEBUG] [TO ADMIN] 8=FIX.4.4|9=101|35=0|34=96|49=f2c11b00bf3d41fca072225f328ce98e|52=20260414-02:35:42.000|56=SERVER|1=main|553=Group13|10=070|
[2026-04-14 09:35:43] [DEBUG] [FROM ADMIN] 8=FIX.4.4|9=82|35=0|34=96|49=SERVER|52=20260414-02:35:43.285|56=f2c11b00bf3d41fca072225f328ce98e|10=206|
[2026-04-14 09:36:12] [DEBUG] [TO ADMIN] 8=FIX.4.4|9=101|35=0|34=97|49=f2c11b00bf3d41fca072225f328ce98e|52=20260414-02:36:12.000|56=SERVER|1=main|553=Group13|10=069|
[2026-04-14 09:36:13] [DEBUG] [FROM ADMIN] 8=FIX.4.4|9=82|35=0|34=97|49=SERVER|52=20260414-02:36:13.284|56=f2c11b00bf3d41fca072225f328ce98e|10=204|
[2026-04-14 09:36:42] [DEBUG] [TO ADMIN] 8=FIX.4.4|9=101|35=0|34=98|49=f2c11b00bf3d41fca072225f328ce98e|52=20260414-02:36:42.000|56=SERVER|1=main|553=Group13|10=073|
[2026-04-14 09:36:43] [DEBUG] [FROM ADMIN] 8=FIX.4.4|9=82|35=0|34=98|49=SERVER|52=20260414-02:36:43.284|56=f2c11b00bf3d41fca072225f328ce98e|10=208|
[2026-04-14 09:37:12] [DEBUG] [TO ADMIN] 8=FIX.4.4|9=101|35=0|34=99|49=f2c11b00bf3d41fca072225f328ce98e|52=20260414-02:37:12.000|56=SERVER|1=main|553=Group13|10=072|
[2026-04-14 09:37:13] [DEBUG] [FROM ADMIN] 8=FIX.4.4|9=82|35=0|34=99|49=SERVER|52=20260414-02:37:13.284|56=f2c11b00bf3d41fca072225f328ce98e|10=207|
[2026-04-14 09:37:42] [DEBUG] [TO ADMIN] 8=FIX.4.4|9=102|35=0|34=100|49=f2c11b00bf3d41fca072225f328ce98e|52=20260414-02:37:42.000|56=SERVER|1=main|553=Group13|10=107|
[2026-04-14 09:37:43] [DEBUG] [FROM ADMIN] 8=FIX.4.4|9=83|35=0|34=100|49=SERVER|52=20260414-02:37:43.284|56=f2c11b00bf3d41fca072225f328ce98e|10=242|
[2026-04-14 09:38:12] [DEBUG] [TO ADMIN] 8=FIX.4.4|9=102|35=0|34=101|49=f2c11b00bf3d41fca072225f328ce98e|52=20260414-02:38:12.000|56=SERVER|1=main|553=Group13|10=106|
[2026-04-14 09:38:13] [DEBUG] [FROM ADMIN] 8=FIX.4.4|9=83|35=0|34=101|49=SERVER|52=20260414-02:38:13.284|56=f2c11b00bf3d41fca072225f328ce98e|10=241|
[2026-04-14 09:38:42] [DEBUG] [TO ADMIN] 8=FIX.4.4|9=102|35=0|34=102|49=f2c11b00bf3d41fca072225f328ce98e|52=20260414-02:38:42.000|56=SERVER|1=main|553=Group13|10=110|
[2026-04-14 09:38:43] [DEBUG] [FROM ADMIN] 8=FIX.4.4|9=83|35=0|34=102|49=SERVER|52=20260414-02:38:43.284|56=f2c11b00bf3d41fca072225f328ce98e|10=245|
[2026-04-14 09:39:12] [DEBUG] [TO ADMIN] 8=FIX.4.4|9=102|35=0|34=103|49=f2c11b00bf3d41fca072225f328ce98e|52=20260414-02:39:12.000|56=SERVER|1=main|553=Group13|10=109|
[2026-04-14 09:39:13] [DEBUG] [FROM ADMIN] 8=FIX.4.4|9=83|35=0|34=103|49=SERVER|52=20260414-02:39:13.284|56=f2c11b00bf3d41fca072225f328ce98e|10=244|
[2026-04-14 09:39:42] [DEBUG] [TO ADMIN] 8=FIX.4.4|9=102|35=0|34=104|49=f2c11b00bf3d41fca072225f328ce98e|52=20260414-02:39:42.000|56=SERVER|1=main|553=Group13|10=113|
[2026-04-14 09:39:43] [DEBUG] [FROM ADMIN] 8=FIX.4.4|9=83|35=0|34=104|49=SERVER|52=20260414-02:39:43.284|56=f2c11b00bf3d41fca072225f328ce98e|10=248|
[2026-04-14 09:40:12] [DEBUG] [TO ADMIN] 8=FIX.4.4|9=102|35=0|34=105|49=f2c11b00bf3d41fca072225f328ce98e|52=20260414-02:40:12.000|56=SERVER|1=main|553=Group13|10=103|
[2026-04-14 09:40:13] [DEBUG] [FROM ADMIN] 8=FIX.4.4|9=83|35=0|34=105|49=SERVER|52=20260414-02:40:13.284|56=f2c11b00bf3d41fca072225f328ce98e|10=238|
[2026-04-14 09:40:42] [DEBUG] [TO ADMIN] 8=FIX.4.4|9=102|35=0|34=106|49=f2c11b00bf3d41fca072225f328ce98e|52=20260414-02:40:42.000|56=SERVER|1=main|553=Group13|10=107|
[2026-04-14 09:40:43] [DEBUG] [FROM ADMIN] 8=FIX.4.4|9=83|35=0|34=106|49=SERVER|52=20260414-02:40:43.284|56=f2c11b00bf3d41fca072225f328ce98e|10=242|
[2026-04-14 09:41:12] [DEBUG] [TO ADMIN] 8=FIX.4.4|9=102|35=0|34=107|49=f2c11b00bf3d41fca072225f328ce98e|52=20260414-02:41:12.000|56=SERVER|1=main|553=Group13|10=106|
[2026-04-14 09:41:13] [DEBUG] [FROM ADMIN] 8=FIX.4.4|9=83|35=0|34=107|49=SERVER|52=20260414-02:41:13.284|56=f2c11b00bf3d41fca072225f328ce98e|10=241|
[2026-04-14 09:41:42] [DEBUG] [TO ADMIN] 8=FIX.4.4|9=102|35=0|34=108|49=f2c11b00bf3d41fca072225f328ce98e|52=20260414-02:41:42.000|56=SERVER|1=main|553=Group13|10=110|
[2026-04-14 09:41:43] [DEBUG] [FROM ADMIN] 8=FIX.4.4|9=83|35=0|34=108|49=SERVER|52=20260414-02:41:43.284|56=f2c11b00bf3d41fca072225f328ce98e|10=245|
[2026-04-14 09:42:12] [DEBUG] [TO ADMIN] 8=FIX.4.4|9=102|35=0|34=109|49=f2c11b00bf3d41fca072225f328ce98e|52=20260414-02:42:12.000|56=SERVER|1=main|553=Group13|10=109|
[2026-04-14 09:42:13] [DEBUG] [FROM ADMIN] 8=FIX.4.4|9=83|35=0|34=109|49=SERVER|52=20260414-02:42:13.284|56=f2c11b00bf3d41fca072225f328ce98e|10=244|
[2026-04-14 09:42:42] [DEBUG] [TO ADMIN] 8=FIX.4.4|9=102|35=0|34=110|49=f2c11b00bf3d41fca072225f328ce98e|52=20260414-02:42:42.000|56=SERVER|1=main|553=Group13|10=104|
[2026-04-14 09:42:43] [DEBUG] [FROM ADMIN] 8=FIX.4.4|9=83|35=0|34=110|49=SERVER|52=20260414-02:42:43.284|56=f2c11b00bf3d41fca072225f328ce98e|10=239|
[2026-04-14 09:43:12] [DEBUG] [TO ADMIN] 8=FIX.4.4|9=102|35=0|34=111|49=f2c11b00bf3d41fca072225f328ce98e|52=20260414-02:43:12.000|56=SERVER|1=main|553=Group13|10=103|
[2026-04-14 09:43:13] [DEBUG] [FROM ADMIN] 8=FIX.4.4|9=83|35=0|34=111|49=SERVER|52=20260414-02:43:13.284|56=f2c11b00bf3d41fca072225f328ce98e|10=238|
[2026-04-14 09:43:42] [DEBUG] [TO ADMIN] 8=FIX.4.4|9=102|35=0|34=112|49=f2c11b00bf3d41fca072225f328ce98e|52=20260414-02:43:42.000|56=SERVER|1=main|553=Group13|10=107|
[2026-04-14 09:43:43] [DEBUG] [FROM ADMIN] 8=FIX.4.4|9=83|35=0|34=112|49=SERVER|52=20260414-02:43:43.285|56=f2c11b00bf3d41fca072225f328ce98e|10=243|
[2026-04-14 09:44:12] [DEBUG] [TO ADMIN] 8=FIX.4.4|9=102|35=0|34=113|49=f2c11b00bf3d41fca072225f328ce98e|52=20260414-02:44:12.000|56=SERVER|1=main|553=Group13|10=106|
[2026-04-14 09:44:13] [DEBUG] [FROM ADMIN] 8=FIX.4.4|9=83|35=0|34=113|49=SERVER|52=20260414-02:44:13.284|56=f2c11b00bf3d41fca072225f328ce98e|10=241|
[2026-04-14 09:44:42] [DEBUG] [TO ADMIN] 8=FIX.4.4|9=102|35=0|34=114|49=f2c11b00bf3d41fca072225f328ce98e|52=20260414-02:44:42.000|56=SERVER|1=main|553=Group13|10=110|
[2026-04-14 09:44:43] [DEBUG] [FROM ADMIN] 8=FIX.4.4|9=83|35=0|34=114|49=SERVER|52=20260414-02:44:43.284|56=f2c11b00bf3d41fca072225f328ce98e|10=245|
[2026-04-14 09:45:05] [DEBUG] POST https://papertrade.algotrade.vn/accounting/api/portfolio-by-sub/basic payload_keys=['fixAccountID', 'subAccountID']
[2026-04-14 09:45:05] [DEBUG] POST https://papertrade.algotrade.vn/accounting/api/portfolio-by-sub/basic succeeded status_code=200
[2026-04-14 09:45:05] [INFO] event=portfolio_resolved fixAccountID=f72030f52dc94e38b4c32ee0d7f9a03b subAccountID=main instrument_count=0
[2026-04-14 09:45:05] [DEBUG] POST https://papertrade.algotrade.vn/accounting/api/account-info-by-sub/remain-cash payload_keys=['fixAccountID', 'subAccountID']
[2026-04-14 09:45:05] [DEBUG] POST https://papertrade.algotrade.vn/accounting/api/account-info-by-sub/remain-cash succeeded status_code=200
[2026-04-14 09:45:05] [INFO] event=remain_cash_resolved fixAccountID=f72030f52dc94e38b4c32ee0d7f9a03b subAccountID=main remainCash=472210000
[2026-04-14 09:45:12] [DEBUG] [TO ADMIN] 8=FIX.4.4|9=102|35=0|34=115|49=f2c11b00bf3d41fca072225f328ce98e|52=20260414-02:45:12.000|56=SERVER|1=main|553=Group13|10=109|
[2026-04-14 09:45:13] [DEBUG] [FROM ADMIN] 8=FIX.4.4|9=83|35=0|34=115|49=SERVER|52=20260414-02:45:13.284|56=f2c11b00bf3d41fca072225f328ce98e|10=244|
[2026-04-14 09:45:42] [DEBUG] [TO ADMIN] 8=FIX.4.4|9=102|35=0|34=116|49=f2c11b00bf3d41fca072225f328ce98e|52=20260414-02:45:42.000|56=SERVER|1=main|553=Group13|10=113|
[2026-04-14 09:45:43] [DEBUG] [FROM ADMIN] 8=FIX.4.4|9=83|35=0|34=116|49=SERVER|52=20260414-02:45:43.284|56=f2c11b00bf3d41fca072225f328ce98e|10=248|
[2026-04-14 09:46:12] [DEBUG] [TO ADMIN] 8=FIX.4.4|9=102|35=0|34=117|49=f2c11b00bf3d41fca072225f328ce98e|52=20260414-02:46:12.000|56=SERVER|1=main|553=Group13|10=112|
[2026-04-14 09:46:13] [DEBUG] [FROM ADMIN] 8=FIX.4.4|9=83|35=0|34=117|49=SERVER|52=20260414-02:46:13.284|56=f2c11b00bf3d41fca072225f328ce98e|10=247|
[2026-04-14 09:46:42] [DEBUG] [TO ADMIN] 8=FIX.4.4|9=102|35=0|34=118|49=f2c11b00bf3d41fca072225f328ce98e|52=20260414-02:46:42.000|56=SERVER|1=main|553=Group13|10=116|
[2026-04-14 09:46:43] [DEBUG] [FROM ADMIN] 8=FIX.4.4|9=83|35=0|34=118|49=SERVER|52=20260414-02:46:43.284|56=f2c11b00bf3d41fca072225f328ce98e|10=251|
[2026-04-14 09:47:12] [DEBUG] [TO ADMIN] 8=FIX.4.4|9=102|35=0|34=119|49=f2c11b00bf3d41fca072225f328ce98e|52=20260414-02:47:12.000|56=SERVER|1=main|553=Group13|10=115|
[2026-04-14 09:47:13] [DEBUG] [FROM ADMIN] 8=FIX.4.4|9=83|35=0|34=119|49=SERVER|52=20260414-02:47:13.284|56=f2c11b00bf3d41fca072225f328ce98e|10=250|
[2026-04-14 09:47:42] [DEBUG] [TO ADMIN] 8=FIX.4.4|9=102|35=0|34=120|49=f2c11b00bf3d41fca072225f328ce98e|52=20260414-02:47:42.000|56=SERVER|1=main|553=Group13|10=110|
[2026-04-14 09:47:43] [DEBUG] [FROM ADMIN] 8=FIX.4.4|9=83|35=0|34=120|49=SERVER|52=20260414-02:47:43.284|56=f2c11b00bf3d41fca072225f328ce98e|10=245|
[2026-04-14 09:48:12] [DEBUG] [TO ADMIN] 8=FIX.4.4|9=102|35=0|34=121|49=f2c11b00bf3d41fca072225f328ce98e|52=20260414-02:48:12.000|56=SERVER|1=main|553=Group13|10=109|
[2026-04-14 09:48:13] [DEBUG] [FROM ADMIN] 8=FIX.4.4|9=83|35=0|34=121|49=SERVER|52=20260414-02:48:13.284|56=f2c11b00bf3d41fca072225f328ce98e|10=244|
[2026-04-14 09:48:42] [DEBUG] [TO ADMIN] 8=FIX.4.4|9=102|35=0|34=122|49=f2c11b00bf3d41fca072225f328ce98e|52=20260414-02:48:42.000|56=SERVER|1=main|553=Group13|10=113|
[2026-04-14 09:48:43] [DEBUG] [FROM ADMIN] 8=FIX.4.4|9=83|35=0|34=122|49=SERVER|52=20260414-02:48:43.284|56=f2c11b00bf3d41fca072225f328ce98e|10=248|
[2026-04-14 09:49:12] [DEBUG] [TO ADMIN] 8=FIX.4.4|9=102|35=0|34=123|49=f2c11b00bf3d41fca072225f328ce98e|52=20260414-02:49:12.000|56=SERVER|1=main|553=Group13|10=112|
[2026-04-14 09:49:13] [DEBUG] [FROM ADMIN] 8=FIX.4.4|9=83|35=0|34=123|49=SERVER|52=20260414-02:49:13.284|56=f2c11b00bf3d41fca072225f328ce98e|10=247|
[2026-04-14 09:49:42] [DEBUG] [TO ADMIN] 8=FIX.4.4|9=102|35=0|34=124|49=f2c11b00bf3d41fca072225f328ce98e|52=20260414-02:49:42.000|56=SERVER|1=main|553=Group13|10=116|
[2026-04-14 09:49:43] [DEBUG] [FROM ADMIN] 8=FIX.4.4|9=83|35=0|34=124|49=SERVER|52=20260414-02:49:43.284|56=f2c11b00bf3d41fca072225f328ce98e|10=251|
[2026-04-14 09:50:12] [DEBUG] [TO ADMIN] 8=FIX.4.4|9=102|35=0|34=125|49=f2c11b00bf3d41fca072225f328ce98e|52=20260414-02:50:12.000|56=SERVER|1=main|553=Group13|10=106|
[2026-04-14 09:50:13] [DEBUG] [FROM ADMIN] 8=FIX.4.4|9=83|35=0|34=125|49=SERVER|52=20260414-02:50:13.284|56=f2c11b00bf3d41fca072225f328ce98e|10=241|
[2026-04-14 09:50:42] [DEBUG] [TO ADMIN] 8=FIX.4.4|9=102|35=0|34=126|49=f2c11b00bf3d41fca072225f328ce98e|52=20260414-02:50:42.000|56=SERVER|1=main|553=Group13|10=110|
[2026-04-14 09:50:43] [DEBUG] [FROM ADMIN] 8=FIX.4.4|9=83|35=0|34=126|49=SERVER|52=20260414-02:50:43.284|56=f2c11b00bf3d41fca072225f328ce98e|10=245|
[2026-04-14 09:51:12] [DEBUG] [TO ADMIN] 8=FIX.4.4|9=102|35=0|34=127|49=f2c11b00bf3d41fca072225f328ce98e|52=20260414-02:51:12.000|56=SERVER|1=main|553=Group13|10=109|
[2026-04-14 09:51:13] [DEBUG] [FROM ADMIN] 8=FIX.4.4|9=83|35=0|34=127|49=SERVER|52=20260414-02:51:13.284|56=f2c11b00bf3d41fca072225f328ce98e|10=244|
[2026-04-14 09:51:42] [DEBUG] [TO ADMIN] 8=FIX.4.4|9=102|35=0|34=128|49=f2c11b00bf3d41fca072225f328ce98e|52=20260414-02:51:42.000|56=SERVER|1=main|553=Group13|10=113|
[2026-04-14 09:51:43] [DEBUG] [FROM ADMIN] 8=FIX.4.4|9=83|35=0|34=128|49=SERVER|52=20260414-02:51:43.284|56=f2c11b00bf3d41fca072225f328ce98e|10=248|
[2026-04-14 09:52:12] [DEBUG] [TO ADMIN] 8=FIX.4.4|9=102|35=0|34=129|49=f2c11b00bf3d41fca072225f328ce98e|52=20260414-02:52:12.000|56=SERVER|1=main|553=Group13|10=112|
[2026-04-14 09:52:13] [DEBUG] [FROM ADMIN] 8=FIX.4.4|9=83|35=0|34=129|49=SERVER|52=20260414-02:52:13.284|56=f2c11b00bf3d41fca072225f328ce98e|10=247|
[2026-04-14 09:52:42] [DEBUG] [TO ADMIN] 8=FIX.4.4|9=102|35=0|34=130|49=f2c11b00bf3d41fca072225f328ce98e|52=20260414-02:52:42.000|56=SERVER|1=main|553=Group13|10=107|
[2026-04-14 09:52:43] [DEBUG] [FROM ADMIN] 8=FIX.4.4|9=83|35=0|34=130|49=SERVER|52=20260414-02:52:43.284|56=f2c11b00bf3d41fca072225f328ce98e|10=242|
[2026-04-14 09:53:12] [DEBUG] [TO ADMIN] 8=FIX.4.4|9=102|35=0|34=131|49=f2c11b00bf3d41fca072225f328ce98e|52=20260414-02:53:12.000|56=SERVER|1=main|553=Group13|10=106|
[2026-04-14 09:53:13] [DEBUG] [FROM ADMIN] 8=FIX.4.4|9=83|35=0|34=131|49=SERVER|52=20260414-02:53:13.284|56=f2c11b00bf3d41fca072225f328ce98e|10=241|
[2026-04-14 09:53:42] [DEBUG] [TO ADMIN] 8=FIX.4.4|9=102|35=0|34=132|49=f2c11b00bf3d41fca072225f328ce98e|52=20260414-02:53:42.000|56=SERVER|1=main|553=Group13|10=110|
[2026-04-14 09:53:43] [DEBUG] [FROM ADMIN] 8=FIX.4.4|9=83|35=0|34=132|49=SERVER|52=20260414-02:53:43.284|56=f2c11b00bf3d41fca072225f328ce98e|10=245|
[2026-04-14 09:54:12] [DEBUG] [TO ADMIN] 8=FIX.4.4|9=102|35=0|34=133|49=f2c11b00bf3d41fca072225f328ce98e|52=20260414-02:54:12.000|56=SERVER|1=main|553=Group13|10=109|
[2026-04-14 09:54:13] [DEBUG] [FROM ADMIN] 8=FIX.4.4|9=83|35=0|34=133|49=SERVER|52=20260414-02:54:13.284|56=f2c11b00bf3d41fca072225f328ce98e|10=244|
[2026-04-14 09:54:42] [DEBUG] [TO ADMIN] 8=FIX.4.4|9=102|35=0|34=134|49=f2c11b00bf3d41fca072225f328ce98e|52=20260414-02:54:42.000|56=SERVER|1=main|553=Group13|10=113|
[2026-04-14 09:54:43] [DEBUG] [FROM ADMIN] 8=FIX.4.4|9=83|35=0|34=134|49=SERVER|52=20260414-02:54:43.284|56=f2c11b00bf3d41fca072225f328ce98e|10=248|
[2026-04-14 09:55:12] [DEBUG] [TO ADMIN] 8=FIX.4.4|9=102|35=0|34=135|49=f2c11b00bf3d41fca072225f328ce98e|52=20260414-02:55:12.000|56=SERVER|1=main|553=Group13|10=112|
[2026-04-14 09:55:13] [DEBUG] [FROM ADMIN] 8=FIX.4.4|9=83|35=0|34=135|49=SERVER|52=20260414-02:55:13.284|56=f2c11b00bf3d41fca072225f328ce98e|10=247|
[2026-04-14 09:55:42] [DEBUG] [TO ADMIN] 8=FIX.4.4|9=102|35=0|34=136|49=f2c11b00bf3d41fca072225f328ce98e|52=20260414-02:55:42.000|56=SERVER|1=main|553=Group13|10=116|
[2026-04-14 09:55:43] [DEBUG] [FROM ADMIN] 8=FIX.4.4|9=83|35=0|34=136|49=SERVER|52=20260414-02:55:43.284|56=f2c11b00bf3d41fca072225f328ce98e|10=251|
[2026-04-14 09:56:12] [DEBUG] [TO ADMIN] 8=FIX.4.4|9=102|35=0|34=137|49=f2c11b00bf3d41fca072225f328ce98e|52=20260414-02:56:12.000|56=SERVER|1=main|553=Group13|10=115|
[2026-04-14 09:56:13] [DEBUG] [FROM ADMIN] 8=FIX.4.4|9=83|35=0|34=137|49=SERVER|52=20260414-02:56:13.284|56=f2c11b00bf3d41fca072225f328ce98e|10=250|
[2026-04-14 09:56:42] [DEBUG] [TO ADMIN] 8=FIX.4.4|9=102|35=0|34=138|49=f2c11b00bf3d41fca072225f328ce98e|52=20260414-02:56:42.000|56=SERVER|1=main|553=Group13|10=119|
[2026-04-14 09:56:43] [DEBUG] [FROM ADMIN] 8=FIX.4.4|9=83|35=0|34=138|49=SERVER|52=20260414-02:56:43.284|56=f2c11b00bf3d41fca072225f328ce98e|10=254|
[2026-04-14 09:57:12] [DEBUG] [TO ADMIN] 8=FIX.4.4|9=102|35=0|34=139|49=f2c11b00bf3d41fca072225f328ce98e|52=20260414-02:57:12.000|56=SERVER|1=main|553=Group13|10=118|
[2026-04-14 09:57:13] [DEBUG] [FROM ADMIN] 8=FIX.4.4|9=83|35=0|34=139|49=SERVER|52=20260414-02:57:13.284|56=f2c11b00bf3d41fca072225f328ce98e|10=253|
[2026-04-14 09:57:42] [DEBUG] [TO ADMIN] 8=FIX.4.4|9=102|35=0|34=140|49=f2c11b00bf3d41fca072225f328ce98e|52=20260414-02:57:42.000|56=SERVER|1=main|553=Group13|10=113|
[2026-04-14 09:57:43] [DEBUG] [FROM ADMIN] 8=FIX.4.4|9=83|35=0|34=140|49=SERVER|52=20260414-02:57:43.284|56=f2c11b00bf3d41fca072225f328ce98e|10=248|
[2026-04-14 09:58:12] [DEBUG] [TO ADMIN] 8=FIX.4.4|9=102|35=0|34=141|49=f2c11b00bf3d41fca072225f328ce98e|52=20260414-02:58:12.000|56=SERVER|1=main|553=Group13|10=112|
[2026-04-14 09:58:13] [DEBUG] [FROM ADMIN] 8=FIX.4.4|9=83|35=0|34=141|49=SERVER|52=20260414-02:58:13.284|56=f2c11b00bf3d41fca072225f328ce98e|10=247|
[2026-04-14 09:58:42] [DEBUG] [TO ADMIN] 8=FIX.4.4|9=102|35=0|34=142|49=f2c11b00bf3d41fca072225f328ce98e|52=20260414-02:58:42.000|56=SERVER|1=main|553=Group13|10=116|
[2026-04-14 09:58:43] [DEBUG] [FROM ADMIN] 8=FIX.4.4|9=83|35=0|34=142|49=SERVER|52=20260414-02:58:43.284|56=f2c11b00bf3d41fca072225f328ce98e|10=251|
[2026-04-14 09:59:12] [DEBUG] [TO ADMIN] 8=FIX.4.4|9=102|35=0|34=143|49=f2c11b00bf3d41fca072225f328ce98e|52=20260414-02:59:12.000|56=SERVER|1=main|553=Group13|10=115|
[2026-04-14 09:59:13] [DEBUG] [FROM ADMIN] 8=FIX.4.4|9=83|35=0|34=143|49=SERVER|52=20260414-02:59:13.284|56=f2c11b00bf3d41fca072225f328ce98e|10=250|
[2026-04-14 09:59:42] [DEBUG] [TO ADMIN] 8=FIX.4.4|9=102|35=0|34=144|49=f2c11b00bf3d41fca072225f328ce98e|52=20260414-02:59:42.000|56=SERVER|1=main|553=Group13|10=119|
[2026-04-14 09:59:43] [DEBUG] [FROM ADMIN] 8=FIX.4.4|9=83|35=0|34=144|49=SERVER|52=20260414-02:59:43.284|56=f2c11b00bf3d41fca072225f328ce98e|10=254|
[2026-04-14 10:00:06] [DEBUG] POST https://papertrade.algotrade.vn/accounting/api/portfolio-by-sub/basic payload_keys=['fixAccountID', 'subAccountID']
[2026-04-14 10:00:06] [DEBUG] POST https://papertrade.algotrade.vn/accounting/api/portfolio-by-sub/basic succeeded status_code=200
[2026-04-14 10:00:06] [INFO] event=portfolio_resolved fixAccountID=f72030f52dc94e38b4c32ee0d7f9a03b subAccountID=main instrument_count=0
[2026-04-14 10:00:06] [DEBUG] POST https://papertrade.algotrade.vn/accounting/api/account-info-by-sub/remain-cash payload_keys=['fixAccountID', 'subAccountID']
[2026-04-14 10:00:07] [DEBUG] POST https://papertrade.algotrade.vn/accounting/api/account-info-by-sub/remain-cash succeeded status_code=200
[2026-04-14 10:00:07] [INFO] event=remain_cash_resolved fixAccountID=f72030f52dc94e38b4c32ee0d7f9a03b subAccountID=main remainCash=472210000
[2026-04-14 10:00:12] [DEBUG] [TO ADMIN] 8=FIX.4.4|9=102|35=0|34=145|49=f2c11b00bf3d41fca072225f328ce98e|52=20260414-03:00:12.000|56=SERVER|1=main|553=Group13|10=104|
[2026-04-14 10:00:13] [DEBUG] [FROM ADMIN] 8=FIX.4.4|9=83|35=0|34=145|49=SERVER|52=20260414-03:00:13.285|56=f2c11b00bf3d41fca072225f328ce98e|10=240|
[2026-04-14 10:00:42] [DEBUG] [TO ADMIN] 8=FIX.4.4|9=102|35=0|34=146|49=f2c11b00bf3d41fca072225f328ce98e|52=20260414-03:00:42.000|56=SERVER|1=main|553=Group13|10=108|
[2026-04-14 10:00:43] [DEBUG] [FROM ADMIN] 8=FIX.4.4|9=83|35=0|34=146|49=SERVER|52=20260414-03:00:43.284|56=f2c11b00bf3d41fca072225f328ce98e|10=243|
[2026-04-14 10:01:12] [DEBUG] [TO ADMIN] 8=FIX.4.4|9=102|35=0|34=147|49=f2c11b00bf3d41fca072225f328ce98e|52=20260414-03:01:12.000|56=SERVER|1=main|553=Group13|10=107|
[2026-04-14 10:01:13] [DEBUG] [FROM ADMIN] 8=FIX.4.4|9=83|35=0|34=147|49=SERVER|52=20260414-03:01:13.284|56=f2c11b00bf3d41fca072225f328ce98e|10=242|
[2026-04-14 10:01:42] [DEBUG] [TO ADMIN] 8=FIX.4.4|9=102|35=0|34=148|49=f2c11b00bf3d41fca072225f328ce98e|52=20260414-03:01:42.000|56=SERVER|1=main|553=Group13|10=111|
[2026-04-14 10:01:43] [DEBUG] [FROM ADMIN] 8=FIX.4.4|9=83|35=0|34=148|49=SERVER|52=20260414-03:01:43.284|56=f2c11b00bf3d41fca072225f328ce98e|10=246|
[2026-04-14 10:02:12] [DEBUG] [TO ADMIN] 8=FIX.4.4|9=102|35=0|34=149|49=f2c11b00bf3d41fca072225f328ce98e|52=20260414-03:02:12.000|56=SERVER|1=main|553=Group13|10=110|
[2026-04-14 10:02:13] [DEBUG] [FROM ADMIN] 8=FIX.4.4|9=83|35=0|34=149|49=SERVER|52=20260414-03:02:13.284|56=f2c11b00bf3d41fca072225f328ce98e|10=245|
[2026-04-14 10:02:42] [DEBUG] [TO ADMIN] 8=FIX.4.4|9=102|35=0|34=150|49=f2c11b00bf3d41fca072225f328ce98e|52=20260414-03:02:42.000|56=SERVER|1=main|553=Group13|10=105|
[2026-04-14 10:02:43] [DEBUG] [FROM ADMIN] 8=FIX.4.4|9=83|35=0|34=150|49=SERVER|52=20260414-03:02:43.284|56=f2c11b00bf3d41fca072225f328ce98e|10=240|
[2026-04-14 10:03:12] [DEBUG] [TO ADMIN] 8=FIX.4.4|9=102|35=0|34=151|49=f2c11b00bf3d41fca072225f328ce98e|52=20260414-03:03:12.000|56=SERVER|1=main|553=Group13|10=104|
[2026-04-14 10:03:13] [DEBUG] [FROM ADMIN] 8=FIX.4.4|9=83|35=0|34=151|49=SERVER|52=20260414-03:03:13.284|56=f2c11b00bf3d41fca072225f328ce98e|10=239|
[2026-04-14 10:03:42] [DEBUG] [TO ADMIN] 8=FIX.4.4|9=102|35=0|34=152|49=f2c11b00bf3d41fca072225f328ce98e|52=20260414-03:03:42.000|56=SERVER|1=main|553=Group13|10=108|
[2026-04-14 10:03:43] [DEBUG] [FROM ADMIN] 8=FIX.4.4|9=83|35=0|34=152|49=SERVER|52=20260414-03:03:43.284|56=f2c11b00bf3d41fca072225f328ce98e|10=243|
[2026-04-14 10:04:12] [DEBUG] [TO ADMIN] 8=FIX.4.4|9=102|35=0|34=153|49=f2c11b00bf3d41fca072225f328ce98e|52=20260414-03:04:12.000|56=SERVER|1=main|553=Group13|10=107|
[2026-04-14 10:04:13] [DEBUG] [FROM ADMIN] 8=FIX.4.4|9=83|35=0|34=153|49=SERVER|52=20260414-03:04:13.284|56=f2c11b00bf3d41fca072225f328ce98e|10=242|
[2026-04-14 10:04:42] [DEBUG] [TO ADMIN] 8=FIX.4.4|9=102|35=0|34=154|49=f2c11b00bf3d41fca072225f328ce98e|52=20260414-03:04:42.000|56=SERVER|1=main|553=Group13|10=111|
[2026-04-14 10:04:43] [DEBUG] [FROM ADMIN] 8=FIX.4.4|9=83|35=0|34=154|49=SERVER|52=20260414-03:04:43.284|56=f2c11b00bf3d41fca072225f328ce98e|10=246|
[2026-04-14 10:05:12] [DEBUG] [TO ADMIN] 8=FIX.4.4|9=102|35=0|34=155|49=f2c11b00bf3d41fca072225f328ce98e|52=20260414-03:05:12.000|56=SERVER|1=main|553=Group13|10=110|
[2026-04-14 10:05:13] [DEBUG] [FROM ADMIN] 8=FIX.4.4|9=83|35=0|34=155|49=SERVER|52=20260414-03:05:13.284|56=f2c11b00bf3d41fca072225f328ce98e|10=245|
[2026-04-14 10:05:42] [DEBUG] [TO ADMIN] 8=FIX.4.4|9=102|35=0|34=156|49=f2c11b00bf3d41fca072225f328ce98e|52=20260414-03:05:42.000|56=SERVER|1=main|553=Group13|10=114|
[2026-04-14 10:05:43] [DEBUG] [FROM ADMIN] 8=FIX.4.4|9=83|35=0|34=156|49=SERVER|52=20260414-03:05:43.284|56=f2c11b00bf3d41fca072225f328ce98e|10=249|
[2026-04-14 10:06:12] [DEBUG] [TO ADMIN] 8=FIX.4.4|9=102|35=0|34=157|49=f2c11b00bf3d41fca072225f328ce98e|52=20260414-03:06:12.000|56=SERVER|1=main|553=Group13|10=113|
[2026-04-14 10:06:13] [DEBUG] [FROM ADMIN] 8=FIX.4.4|9=83|35=0|34=157|49=SERVER|52=20260414-03:06:13.284|56=f2c11b00bf3d41fca072225f328ce98e|10=248|
[2026-04-14 10:06:42] [DEBUG] [TO ADMIN] 8=FIX.4.4|9=102|35=0|34=158|49=f2c11b00bf3d41fca072225f328ce98e|52=20260414-03:06:42.000|56=SERVER|1=main|553=Group13|10=117|
[2026-04-14 10:06:43] [DEBUG] [FROM ADMIN] 8=FIX.4.4|9=83|35=0|34=158|49=SERVER|52=20260414-03:06:43.284|56=f2c11b00bf3d41fca072225f328ce98e|10=252|
[2026-04-14 10:07:12] [DEBUG] [TO ADMIN] 8=FIX.4.4|9=102|35=0|34=159|49=f2c11b00bf3d41fca072225f328ce98e|52=20260414-03:07:12.000|56=SERVER|1=main|553=Group13|10=116|
[2026-04-14 10:07:13] [DEBUG] [FROM ADMIN] 8=FIX.4.4|9=83|35=0|34=159|49=SERVER|52=20260414-03:07:13.284|56=f2c11b00bf3d41fca072225f328ce98e|10=251|
[2026-04-14 10:07:42] [DEBUG] [TO ADMIN] 8=FIX.4.4|9=102|35=0|34=160|49=f2c11b00bf3d41fca072225f328ce98e|52=20260414-03:07:42.000|56=SERVER|1=main|553=Group13|10=111|
[2026-04-14 10:07:43] [DEBUG] [FROM ADMIN] 8=FIX.4.4|9=83|35=0|34=160|49=SERVER|52=20260414-03:07:43.284|56=f2c11b00bf3d41fca072225f328ce98e|10=246|
[2026-04-14 10:08:12] [DEBUG] [TO ADMIN] 8=FIX.4.4|9=102|35=0|34=161|49=f2c11b00bf3d41fca072225f328ce98e|52=20260414-03:08:12.000|56=SERVER|1=main|553=Group13|10=110|
[2026-04-14 10:08:13] [DEBUG] [FROM ADMIN] 8=FIX.4.4|9=83|35=0|34=161|49=SERVER|52=20260414-03:08:13.284|56=f2c11b00bf3d41fca072225f328ce98e|10=245|
[2026-04-14 10:08:42] [DEBUG] [TO ADMIN] 8=FIX.4.4|9=102|35=0|34=162|49=f2c11b00bf3d41fca072225f328ce98e|52=20260414-03:08:42.000|56=SERVER|1=main|553=Group13|10=114|
[2026-04-14 10:08:43] [DEBUG] [FROM ADMIN] 8=FIX.4.4|9=83|35=0|34=162|49=SERVER|52=20260414-03:08:43.284|56=f2c11b00bf3d41fca072225f328ce98e|10=249|
[2026-04-14 10:09:12] [DEBUG] [TO ADMIN] 8=FIX.4.4|9=102|35=0|34=163|49=f2c11b00bf3d41fca072225f328ce98e|52=20260414-03:09:12.000|56=SERVER|1=main|553=Group13|10=113|
[2026-04-14 10:09:13] [DEBUG] [FROM ADMIN] 8=FIX.4.4|9=83|35=0|34=163|49=SERVER|52=20260414-03:09:13.284|56=f2c11b00bf3d41fca072225f328ce98e|10=248|
[2026-04-14 10:09:42] [DEBUG] [TO ADMIN] 8=FIX.4.4|9=102|35=0|34=164|49=f2c11b00bf3d41fca072225f328ce98e|52=20260414-03:09:42.000|56=SERVER|1=main|553=Group13|10=117|
[2026-04-14 10:09:43] [DEBUG] [FROM ADMIN] 8=FIX.4.4|9=83|35=0|34=164|49=SERVER|52=20260414-03:09:43.285|56=f2c11b00bf3d41fca072225f328ce98e|10=253|
[2026-04-14 10:10:12] [DEBUG] [TO ADMIN] 8=FIX.4.4|9=102|35=0|34=165|49=f2c11b00bf3d41fca072225f328ce98e|52=20260414-03:10:12.000|56=SERVER|1=main|553=Group13|10=107|
[2026-04-14 10:10:13] [DEBUG] [FROM ADMIN] 8=FIX.4.4|9=83|35=0|34=165|49=SERVER|52=20260414-03:10:13.284|56=f2c11b00bf3d41fca072225f328ce98e|10=242|
[2026-04-14 10:10:42] [DEBUG] [TO ADMIN] 8=FIX.4.4|9=102|35=0|34=166|49=f2c11b00bf3d41fca072225f328ce98e|52=20260414-03:10:42.000|56=SERVER|1=main|553=Group13|10=111|
[2026-04-14 10:10:43] [DEBUG] [FROM ADMIN] 8=FIX.4.4|9=83|35=0|34=166|49=SERVER|52=20260414-03:10:43.284|56=f2c11b00bf3d41fca072225f328ce98e|10=246|
[2026-04-14 10:11:12] [DEBUG] [TO ADMIN] 8=FIX.4.4|9=102|35=0|34=167|49=f2c11b00bf3d41fca072225f328ce98e|52=20260414-03:11:12.000|56=SERVER|1=main|553=Group13|10=110|
[2026-04-14 10:11:13] [DEBUG] [FROM ADMIN] 8=FIX.4.4|9=83|35=0|34=167|49=SERVER|52=20260414-03:11:13.284|56=f2c11b00bf3d41fca072225f328ce98e|10=245|
[2026-04-14 10:11:42] [DEBUG] [TO ADMIN] 8=FIX.4.4|9=102|35=0|34=168|49=f2c11b00bf3d41fca072225f328ce98e|52=20260414-03:11:42.000|56=SERVER|1=main|553=Group13|10=114|
[2026-04-14 10:11:43] [DEBUG] [FROM ADMIN] 8=FIX.4.4|9=83|35=0|34=168|49=SERVER|52=20260414-03:11:43.284|56=f2c11b00bf3d41fca072225f328ce98e|10=249|
[2026-04-14 10:12:12] [DEBUG] [TO ADMIN] 8=FIX.4.4|9=102|35=0|34=169|49=f2c11b00bf3d41fca072225f328ce98e|52=20260414-03:12:12.000|56=SERVER|1=main|553=Group13|10=113|
[2026-04-14 10:12:13] [DEBUG] [FROM ADMIN] 8=FIX.4.4|9=83|35=0|34=169|49=SERVER|52=20260414-03:12:13.286|56=f2c11b00bf3d41fca072225f328ce98e|10=250|
[2026-04-14 10:12:42] [DEBUG] [TO ADMIN] 8=FIX.4.4|9=102|35=0|34=170|49=f2c11b00bf3d41fca072225f328ce98e|52=20260414-03:12:42.000|56=SERVER|1=main|553=Group13|10=108|
[2026-04-14 10:12:43] [DEBUG] [FROM ADMIN] 8=FIX.4.4|9=83|35=0|34=170|49=SERVER|52=20260414-03:12:43.284|56=f2c11b00bf3d41fca072225f328ce98e|10=243|
[2026-04-14 10:13:12] [DEBUG] [TO ADMIN] 8=FIX.4.4|9=102|35=0|34=171|49=f2c11b00bf3d41fca072225f328ce98e|52=20260414-03:13:12.000|56=SERVER|1=main|553=Group13|10=107|
[2026-04-14 10:13:13] [DEBUG] [FROM ADMIN] 8=FIX.4.4|9=83|35=0|34=171|49=SERVER|52=20260414-03:13:13.284|56=f2c11b00bf3d41fca072225f328ce98e|10=242|
[2026-04-14 10:13:42] [DEBUG] [TO ADMIN] 8=FIX.4.4|9=102|35=0|34=172|49=f2c11b00bf3d41fca072225f328ce98e|52=20260414-03:13:42.000|56=SERVER|1=main|553=Group13|10=111|
[2026-04-14 10:13:43] [DEBUG] [FROM ADMIN] 8=FIX.4.4|9=83|35=0|34=172|49=SERVER|52=20260414-03:13:43.284|56=f2c11b00bf3d41fca072225f328ce98e|10=246|
[2026-04-14 10:14:12] [DEBUG] [TO ADMIN] 8=FIX.4.4|9=102|35=0|34=173|49=f2c11b00bf3d41fca072225f328ce98e|52=20260414-03:14:12.000|56=SERVER|1=main|553=Group13|10=110|
[2026-04-14 10:14:13] [DEBUG] [FROM ADMIN] 8=FIX.4.4|9=83|35=0|34=173|49=SERVER|52=20260414-03:14:13.284|56=f2c11b00bf3d41fca072225f328ce98e|10=245|
[2026-04-14 10:14:42] [DEBUG] [TO ADMIN] 8=FIX.4.4|9=102|35=0|34=174|49=f2c11b00bf3d41fca072225f328ce98e|52=20260414-03:14:42.000|56=SERVER|1=main|553=Group13|10=114|
[2026-04-14 10:14:43] [DEBUG] [FROM ADMIN] 8=FIX.4.4|9=83|35=0|34=174|49=SERVER|52=20260414-03:14:43.284|56=f2c11b00bf3d41fca072225f328ce98e|10=249|
[2026-04-14 10:15:04] [DEBUG] POST https://papertrade.algotrade.vn/accounting/api/portfolio-by-sub/basic payload_keys=['fixAccountID', 'subAccountID']
[2026-04-14 10:15:05] [DEBUG] POST https://papertrade.algotrade.vn/accounting/api/portfolio-by-sub/basic succeeded status_code=200
[2026-04-14 10:15:05] [INFO] event=portfolio_resolved fixAccountID=f72030f52dc94e38b4c32ee0d7f9a03b subAccountID=main instrument_count=0
[2026-04-14 10:15:05] [DEBUG] POST https://papertrade.algotrade.vn/accounting/api/account-info-by-sub/remain-cash payload_keys=['fixAccountID', 'subAccountID']
[2026-04-14 10:15:05] [DEBUG] POST https://papertrade.algotrade.vn/accounting/api/account-info-by-sub/remain-cash succeeded status_code=200
[2026-04-14 10:15:05] [INFO] event=remain_cash_resolved fixAccountID=f72030f52dc94e38b4c32ee0d7f9a03b subAccountID=main remainCash=472210000
[2026-04-14 10:15:12] [DEBUG] [TO ADMIN] 8=FIX.4.4|9=102|35=0|34=175|49=f2c11b00bf3d41fca072225f328ce98e|52=20260414-03:15:12.000|56=SERVER|1=main|553=Group13|10=113|
[2026-04-14 10:15:13] [DEBUG] [FROM ADMIN] 8=FIX.4.4|9=83|35=0|34=175|49=SERVER|52=20260414-03:15:13.284|56=f2c11b00bf3d41fca072225f328ce98e|10=248|
[2026-04-14 10:15:42] [DEBUG] [TO ADMIN] 8=FIX.4.4|9=102|35=0|34=176|49=f2c11b00bf3d41fca072225f328ce98e|52=20260414-03:15:42.000|56=SERVER|1=main|553=Group13|10=117|
[2026-04-14 10:15:43] [DEBUG] [FROM ADMIN] 8=FIX.4.4|9=83|35=0|34=176|49=SERVER|52=20260414-03:15:43.284|56=f2c11b00bf3d41fca072225f328ce98e|10=252|
[2026-04-14 10:16:12] [DEBUG] [TO ADMIN] 8=FIX.4.4|9=102|35=0|34=177|49=f2c11b00bf3d41fca072225f328ce98e|52=20260414-03:16:12.000|56=SERVER|1=main|553=Group13|10=116|
[2026-04-14 10:16:13] [DEBUG] [FROM ADMIN] 8=FIX.4.4|9=83|35=0|34=177|49=SERVER|52=20260414-03:16:13.284|56=f2c11b00bf3d41fca072225f328ce98e|10=251|
[2026-04-14 10:16:42] [DEBUG] [TO ADMIN] 8=FIX.4.4|9=102|35=0|34=178|49=f2c11b00bf3d41fca072225f328ce98e|52=20260414-03:16:42.000|56=SERVER|1=main|553=Group13|10=120|
[2026-04-14 10:16:43] [DEBUG] [FROM ADMIN] 8=FIX.4.4|9=83|35=0|34=178|49=SERVER|52=20260414-03:16:43.284|56=f2c11b00bf3d41fca072225f328ce98e|10=255|
[2026-04-14 10:17:12] [DEBUG] [TO ADMIN] 8=FIX.4.4|9=102|35=0|34=179|49=f2c11b00bf3d41fca072225f328ce98e|52=20260414-03:17:12.000|56=SERVER|1=main|553=Group13|10=119|
[2026-04-14 10:17:13] [DEBUG] [FROM ADMIN] 8=FIX.4.4|9=83|35=0|34=179|49=SERVER|52=20260414-03:17:13.284|56=f2c11b00bf3d41fca072225f328ce98e|10=254|
[2026-04-14 10:17:42] [DEBUG] [TO ADMIN] 8=FIX.4.4|9=102|35=0|34=180|49=f2c11b00bf3d41fca072225f328ce98e|52=20260414-03:17:42.000|56=SERVER|1=main|553=Group13|10=114|
[2026-04-14 10:17:43] [DEBUG] [FROM ADMIN] 8=FIX.4.4|9=83|35=0|34=180|49=SERVER|52=20260414-03:17:43.284|56=f2c11b00bf3d41fca072225f328ce98e|10=249|
[2026-04-14 10:18:12] [DEBUG] [TO ADMIN] 8=FIX.4.4|9=102|35=0|34=181|49=f2c11b00bf3d41fca072225f328ce98e|52=20260414-03:18:12.000|56=SERVER|1=main|553=Group13|10=113|
[2026-04-14 10:18:13] [DEBUG] [FROM ADMIN] 8=FIX.4.4|9=83|35=0|34=181|49=SERVER|52=20260414-03:18:13.284|56=f2c11b00bf3d41fca072225f328ce98e|10=248|
[2026-04-14 10:18:42] [DEBUG] [TO ADMIN] 8=FIX.4.4|9=102|35=0|34=182|49=f2c11b00bf3d41fca072225f328ce98e|52=20260414-03:18:42.000|56=SERVER|1=main|553=Group13|10=117|
[2026-04-14 10:18:43] [DEBUG] [FROM ADMIN] 8=FIX.4.4|9=83|35=0|34=182|49=SERVER|52=20260414-03:18:43.284|56=f2c11b00bf3d41fca072225f328ce98e|10=252|
[2026-04-14 10:19:12] [DEBUG] [TO ADMIN] 8=FIX.4.4|9=102|35=0|34=183|49=f2c11b00bf3d41fca072225f328ce98e|52=20260414-03:19:12.000|56=SERVER|1=main|553=Group13|10=116|
[2026-04-14 10:19:13] [DEBUG] [FROM ADMIN] 8=FIX.4.4|9=83|35=0|34=183|49=SERVER|52=20260414-03:19:13.284|56=f2c11b00bf3d41fca072225f328ce98e|10=251|
[2026-04-14 10:19:42] [DEBUG] [TO ADMIN] 8=FIX.4.4|9=102|35=0|34=184|49=f2c11b00bf3d41fca072225f328ce98e|52=20260414-03:19:42.000|56=SERVER|1=main|553=Group13|10=120|
[2026-04-14 10:19:43] [DEBUG] [FROM ADMIN] 8=FIX.4.4|9=83|35=0|34=184|49=SERVER|52=20260414-03:19:43.284|56=f2c11b00bf3d41fca072225f328ce98e|10=255|
[2026-04-14 10:20:12] [DEBUG] [TO ADMIN] 8=FIX.4.4|9=102|35=0|34=185|49=f2c11b00bf3d41fca072225f328ce98e|52=20260414-03:20:12.000|56=SERVER|1=main|553=Group13|10=110|
[2026-04-14 10:20:13] [DEBUG] [FROM ADMIN] 8=FIX.4.4|9=83|35=0|34=185|49=SERVER|52=20260414-03:20:13.284|56=f2c11b00bf3d41fca072225f328ce98e|10=245|
[2026-04-14 10:20:42] [DEBUG] [TO ADMIN] 8=FIX.4.4|9=102|35=0|34=186|49=f2c11b00bf3d41fca072225f328ce98e|52=20260414-03:20:42.000|56=SERVER|1=main|553=Group13|10=114|
[2026-04-14 10:20:43] [DEBUG] [FROM ADMIN] 8=FIX.4.4|9=83|35=0|34=186|49=SERVER|52=20260414-03:20:43.285|56=f2c11b00bf3d41fca072225f328ce98e|10=250|
[2026-04-14 10:21:12] [DEBUG] [TO ADMIN] 8=FIX.4.4|9=102|35=0|34=187|49=f2c11b00bf3d41fca072225f328ce98e|52=20260414-03:21:12.000|56=SERVER|1=main|553=Group13|10=113|
[2026-04-14 10:21:13] [DEBUG] [FROM ADMIN] 8=FIX.4.4|9=83|35=0|34=187|49=SERVER|52=20260414-03:21:13.284|56=f2c11b00bf3d41fca072225f328ce98e|10=248|
[2026-04-14 10:21:42] [DEBUG] [TO ADMIN] 8=FIX.4.4|9=102|35=0|34=188|49=f2c11b00bf3d41fca072225f328ce98e|52=20260414-03:21:42.000|56=SERVER|1=main|553=Group13|10=117|
[2026-04-14 10:21:43] [DEBUG] [FROM ADMIN] 8=FIX.4.4|9=83|35=0|34=188|49=SERVER|52=20260414-03:21:43.284|56=f2c11b00bf3d41fca072225f328ce98e|10=252|
[2026-04-14 10:22:12] [DEBUG] [TO ADMIN] 8=FIX.4.4|9=102|35=0|34=189|49=f2c11b00bf3d41fca072225f328ce98e|52=20260414-03:22:12.000|56=SERVER|1=main|553=Group13|10=116|
[2026-04-14 10:22:13] [DEBUG] [FROM ADMIN] 8=FIX.4.4|9=83|35=0|34=189|49=SERVER|52=20260414-03:22:13.284|56=f2c11b00bf3d41fca072225f328ce98e|10=251|
[2026-04-14 10:22:42] [DEBUG] [TO ADMIN] 8=FIX.4.4|9=102|35=0|34=190|49=f2c11b00bf3d41fca072225f328ce98e|52=20260414-03:22:42.000|56=SERVER|1=main|553=Group13|10=111|
[2026-04-14 10:22:43] [DEBUG] [FROM ADMIN] 8=FIX.4.4|9=83|35=0|34=190|49=SERVER|52=20260414-03:22:43.284|56=f2c11b00bf3d41fca072225f328ce98e|10=246|
[2026-04-14 10:23:12] [DEBUG] [TO ADMIN] 8=FIX.4.4|9=102|35=0|34=191|49=f2c11b00bf3d41fca072225f328ce98e|52=20260414-03:23:12.000|56=SERVER|1=main|553=Group13|10=110|
[2026-04-14 10:23:13] [DEBUG] [FROM ADMIN] 8=FIX.4.4|9=83|35=0|34=191|49=SERVER|52=20260414-03:23:13.284|56=f2c11b00bf3d41fca072225f328ce98e|10=245|
[2026-04-14 10:23:42] [DEBUG] [TO ADMIN] 8=FIX.4.4|9=102|35=0|34=192|49=f2c11b00bf3d41fca072225f328ce98e|52=20260414-03:23:42.000|56=SERVER|1=main|553=Group13|10=114|
[2026-04-14 10:23:43] [DEBUG] [FROM ADMIN] 8=FIX.4.4|9=83|35=0|34=192|49=SERVER|52=20260414-03:23:43.284|56=f2c11b00bf3d41fca072225f328ce98e|10=249|
[2026-04-14 10:24:12] [DEBUG] [TO ADMIN] 8=FIX.4.4|9=102|35=0|34=193|49=f2c11b00bf3d41fca072225f328ce98e|52=20260414-03:24:12.000|56=SERVER|1=main|553=Group13|10=113|
[2026-04-14 10:24:13] [DEBUG] [FROM ADMIN] 8=FIX.4.4|9=83|35=0|34=193|49=SERVER|52=20260414-03:24:13.284|56=f2c11b00bf3d41fca072225f328ce98e|10=248|
[2026-04-14 10:24:42] [DEBUG] [TO ADMIN] 8=FIX.4.4|9=102|35=0|34=194|49=f2c11b00bf3d41fca072225f328ce98e|52=20260414-03:24:42.000|56=SERVER|1=main|553=Group13|10=117|
[2026-04-14 10:24:43] [DEBUG] [FROM ADMIN] 8=FIX.4.4|9=83|35=0|34=194|49=SERVER|52=20260414-03:24:43.284|56=f2c11b00bf3d41fca072225f328ce98e|10=252|
[2026-04-14 10:25:12] [DEBUG] [TO ADMIN] 8=FIX.4.4|9=102|35=0|34=195|49=f2c11b00bf3d41fca072225f328ce98e|52=20260414-03:25:12.000|56=SERVER|1=main|553=Group13|10=116|
[2026-04-14 10:25:13] [DEBUG] [FROM ADMIN] 8=FIX.4.4|9=83|35=0|34=195|49=SERVER|52=20260414-03:25:13.284|56=f2c11b00bf3d41fca072225f328ce98e|10=251|
[2026-04-14 10:25:42] [DEBUG] [TO ADMIN] 8=FIX.4.4|9=102|35=0|34=196|49=f2c11b00bf3d41fca072225f328ce98e|52=20260414-03:25:42.000|56=SERVER|1=main|553=Group13|10=120|
[2026-04-14 10:25:43] [DEBUG] [FROM ADMIN] 8=FIX.4.4|9=83|35=0|34=196|49=SERVER|52=20260414-03:25:43.284|56=f2c11b00bf3d41fca072225f328ce98e|10=255|
[2026-04-14 10:26:12] [DEBUG] [TO ADMIN] 8=FIX.4.4|9=102|35=0|34=197|49=f2c11b00bf3d41fca072225f328ce98e|52=20260414-03:26:12.000|56=SERVER|1=main|553=Group13|10=119|
[2026-04-14 10:26:13] [DEBUG] [FROM ADMIN] 8=FIX.4.4|9=83|35=0|34=197|49=SERVER|52=20260414-03:26:13.284|56=f2c11b00bf3d41fca072225f328ce98e|10=254|
[2026-04-14 10:26:42] [DEBUG] [TO ADMIN] 8=FIX.4.4|9=102|35=0|34=198|49=f2c11b00bf3d41fca072225f328ce98e|52=20260414-03:26:42.000|56=SERVER|1=main|553=Group13|10=123|
[2026-04-14 10:26:43] [DEBUG] [FROM ADMIN] 8=FIX.4.4|9=83|35=0|34=198|49=SERVER|52=20260414-03:26:43.285|56=f2c11b00bf3d41fca072225f328ce98e|10=003|
[2026-04-14 10:27:12] [DEBUG] [TO ADMIN] 8=FIX.4.4|9=102|35=0|34=199|49=f2c11b00bf3d41fca072225f328ce98e|52=20260414-03:27:12.000|56=SERVER|1=main|553=Group13|10=122|
[2026-04-14 10:27:13] [DEBUG] [FROM ADMIN] 8=FIX.4.4|9=83|35=0|34=199|49=SERVER|52=20260414-03:27:13.284|56=f2c11b00bf3d41fca072225f328ce98e|10=001|
[2026-04-14 10:27:42] [DEBUG] [TO ADMIN] 8=FIX.4.4|9=102|35=0|34=200|49=f2c11b00bf3d41fca072225f328ce98e|52=20260414-03:27:42.000|56=SERVER|1=main|553=Group13|10=108|
[2026-04-14 10:27:43] [DEBUG] [FROM ADMIN] 8=FIX.4.4|9=83|35=0|34=200|49=SERVER|52=20260414-03:27:43.284|56=f2c11b00bf3d41fca072225f328ce98e|10=243|
[2026-04-14 10:28:12] [DEBUG] [TO ADMIN] 8=FIX.4.4|9=102|35=0|34=201|49=f2c11b00bf3d41fca072225f328ce98e|52=20260414-03:28:12.000|56=SERVER|1=main|553=Group13|10=107|
[2026-04-14 10:28:13] [DEBUG] [FROM ADMIN] 8=FIX.4.4|9=83|35=0|34=201|49=SERVER|52=20260414-03:28:13.284|56=f2c11b00bf3d41fca072225f328ce98e|10=242|
[2026-04-14 10:28:42] [DEBUG] [TO ADMIN] 8=FIX.4.4|9=102|35=0|34=202|49=f2c11b00bf3d41fca072225f328ce98e|52=20260414-03:28:42.000|56=SERVER|1=main|553=Group13|10=111|
[2026-04-14 10:28:43] [DEBUG] [FROM ADMIN] 8=FIX.4.4|9=83|35=0|34=202|49=SERVER|52=20260414-03:28:43.284|56=f2c11b00bf3d41fca072225f328ce98e|10=246|
[2026-04-14 10:29:12] [DEBUG] [TO ADMIN] 8=FIX.4.4|9=102|35=0|34=203|49=f2c11b00bf3d41fca072225f328ce98e|52=20260414-03:29:12.000|56=SERVER|1=main|553=Group13|10=110|
[2026-04-14 10:29:13] [DEBUG] [FROM ADMIN] 8=FIX.4.4|9=83|35=0|34=203|49=SERVER|52=20260414-03:29:13.284|56=f2c11b00bf3d41fca072225f328ce98e|10=245|
[2026-04-14 10:29:42] [DEBUG] [TO ADMIN] 8=FIX.4.4|9=102|35=0|34=204|49=f2c11b00bf3d41fca072225f328ce98e|52=20260414-03:29:42.000|56=SERVER|1=main|553=Group13|10=114|
[2026-04-14 10:29:43] [DEBUG] [FROM ADMIN] 8=FIX.4.4|9=83|35=0|34=204|49=SERVER|52=20260414-03:29:43.284|56=f2c11b00bf3d41fca072225f328ce98e|10=249|
[2026-04-14 10:30:05] [DEBUG] POST https://papertrade.algotrade.vn/accounting/api/portfolio-by-sub/basic payload_keys=['fixAccountID', 'subAccountID']
[2026-04-14 10:30:05] [DEBUG] POST https://papertrade.algotrade.vn/accounting/api/portfolio-by-sub/basic succeeded status_code=200
[2026-04-14 10:30:05] [INFO] event=portfolio_resolved fixAccountID=f72030f52dc94e38b4c32ee0d7f9a03b subAccountID=main instrument_count=0
[2026-04-14 10:30:05] [DEBUG] POST https://papertrade.algotrade.vn/accounting/api/account-info-by-sub/remain-cash payload_keys=['fixAccountID', 'subAccountID']
[2026-04-14 10:30:05] [DEBUG] POST https://papertrade.algotrade.vn/accounting/api/account-info-by-sub/remain-cash succeeded status_code=200
[2026-04-14 10:30:05] [INFO] event=remain_cash_resolved fixAccountID=f72030f52dc94e38b4c32ee0d7f9a03b subAccountID=main remainCash=472210000
[2026-04-14 10:30:12] [DEBUG] [TO ADMIN] 8=FIX.4.4|9=102|35=0|34=205|49=f2c11b00bf3d41fca072225f328ce98e|52=20260414-03:30:12.000|56=SERVER|1=main|553=Group13|10=104|
[2026-04-14 10:30:13] [DEBUG] [FROM ADMIN] 8=FIX.4.4|9=83|35=0|34=205|49=SERVER|52=20260414-03:30:13.284|56=f2c11b00bf3d41fca072225f328ce98e|10=239|
[2026-04-14 10:30:42] [DEBUG] [TO ADMIN] 8=FIX.4.4|9=102|35=0|34=206|49=f2c11b00bf3d41fca072225f328ce98e|52=20260414-03:30:42.000|56=SERVER|1=main|553=Group13|10=108|
[2026-04-14 10:30:43] [DEBUG] [FROM ADMIN] 8=FIX.4.4|9=83|35=0|34=206|49=SERVER|52=20260414-03:30:43.284|56=f2c11b00bf3d41fca072225f328ce98e|10=243|
[2026-04-14 10:31:12] [DEBUG] [TO ADMIN] 8=FIX.4.4|9=102|35=0|34=207|49=f2c11b00bf3d41fca072225f328ce98e|52=20260414-03:31:12.000|56=SERVER|1=main|553=Group13|10=107|
[2026-04-14 10:31:13] [DEBUG] [FROM ADMIN] 8=FIX.4.4|9=83|35=0|34=207|49=SERVER|52=20260414-03:31:13.284|56=f2c11b00bf3d41fca072225f328ce98e|10=242|
[2026-04-14 10:31:42] [DEBUG] [TO ADMIN] 8=FIX.4.4|9=102|35=0|34=208|49=f2c11b00bf3d41fca072225f328ce98e|52=20260414-03:31:42.000|56=SERVER|1=main|553=Group13|10=111|
[2026-04-14 10:31:43] [DEBUG] [FROM ADMIN] 8=FIX.4.4|9=83|35=0|34=208|49=SERVER|52=20260414-03:31:43.284|56=f2c11b00bf3d41fca072225f328ce98e|10=246|
[2026-04-14 10:32:12] [DEBUG] [TO ADMIN] 8=FIX.4.4|9=102|35=0|34=209|49=f2c11b00bf3d41fca072225f328ce98e|52=20260414-03:32:12.000|56=SERVER|1=main|553=Group13|10=110|
[2026-04-14 10:32:13] [DEBUG] [FROM ADMIN] 8=FIX.4.4|9=83|35=0|34=209|49=SERVER|52=20260414-03:32:13.284|56=f2c11b00bf3d41fca072225f328ce98e|10=245|
[2026-04-14 10:32:42] [DEBUG] [TO ADMIN] 8=FIX.4.4|9=102|35=0|34=210|49=f2c11b00bf3d41fca072225f328ce98e|52=20260414-03:32:42.000|56=SERVER|1=main|553=Group13|10=105|
[2026-04-14 10:32:43] [DEBUG] [FROM ADMIN] 8=FIX.4.4|9=83|35=0|34=210|49=SERVER|52=20260414-03:32:43.284|56=f2c11b00bf3d41fca072225f328ce98e|10=240|
[2026-04-14 10:33:12] [DEBUG] [TO ADMIN] 8=FIX.4.4|9=102|35=0|34=211|49=f2c11b00bf3d41fca072225f328ce98e|52=20260414-03:33:12.000|56=SERVER|1=main|553=Group13|10=104|
[2026-04-14 10:33:13] [DEBUG] [FROM ADMIN] 8=FIX.4.4|9=83|35=0|34=211|49=SERVER|52=20260414-03:33:13.284|56=f2c11b00bf3d41fca072225f328ce98e|10=239|
[2026-04-14 10:33:42] [DEBUG] [TO ADMIN] 8=FIX.4.4|9=102|35=0|34=212|49=f2c11b00bf3d41fca072225f328ce98e|52=20260414-03:33:42.000|56=SERVER|1=main|553=Group13|10=108|
[2026-04-14 10:33:43] [DEBUG] [FROM ADMIN] 8=FIX.4.4|9=83|35=0|34=212|49=SERVER|52=20260414-03:33:43.284|56=f2c11b00bf3d41fca072225f328ce98e|10=243|
[2026-04-14 10:34:12] [DEBUG] [TO ADMIN] 8=FIX.4.4|9=102|35=0|34=213|49=f2c11b00bf3d41fca072225f328ce98e|52=20260414-03:34:12.000|56=SERVER|1=main|553=Group13|10=107|
[2026-04-14 10:34:13] [DEBUG] [FROM ADMIN] 8=FIX.4.4|9=83|35=0|34=213|49=SERVER|52=20260414-03:34:13.284|56=f2c11b00bf3d41fca072225f328ce98e|10=242|
[2026-04-14 10:34:42] [DEBUG] [TO ADMIN] 8=FIX.4.4|9=102|35=0|34=214|49=f2c11b00bf3d41fca072225f328ce98e|52=20260414-03:34:42.000|56=SERVER|1=main|553=Group13|10=111|
[2026-04-14 10:34:43] [DEBUG] [FROM ADMIN] 8=FIX.4.4|9=83|35=0|34=214|49=SERVER|52=20260414-03:34:43.284|56=f2c11b00bf3d41fca072225f328ce98e|10=246|
[2026-04-14 10:35:12] [DEBUG] [TO ADMIN] 8=FIX.4.4|9=102|35=0|34=215|49=f2c11b00bf3d41fca072225f328ce98e|52=20260414-03:35:12.000|56=SERVER|1=main|553=Group13|10=110|
[2026-04-14 10:35:13] [DEBUG] [FROM ADMIN] 8=FIX.4.4|9=83|35=0|34=215|49=SERVER|52=20260414-03:35:13.284|56=f2c11b00bf3d41fca072225f328ce98e|10=245|
[2026-04-14 10:35:42] [DEBUG] [TO ADMIN] 8=FIX.4.4|9=102|35=0|34=216|49=f2c11b00bf3d41fca072225f328ce98e|52=20260414-03:35:42.000|56=SERVER|1=main|553=Group13|10=114|
[2026-04-14 10:35:43] [DEBUG] [FROM ADMIN] 8=FIX.4.4|9=83|35=0|34=216|49=SERVER|52=20260414-03:35:43.284|56=f2c11b00bf3d41fca072225f328ce98e|10=249|
[2026-04-14 10:36:12] [DEBUG] [TO ADMIN] 8=FIX.4.4|9=102|35=0|34=217|49=f2c11b00bf3d41fca072225f328ce98e|52=20260414-03:36:12.000|56=SERVER|1=main|553=Group13|10=113|
[2026-04-14 10:36:13] [DEBUG] [FROM ADMIN] 8=FIX.4.4|9=83|35=0|34=217|49=SERVER|52=20260414-03:36:13.284|56=f2c11b00bf3d41fca072225f328ce98e|10=248|
[2026-04-14 10:36:42] [DEBUG] [TO ADMIN] 8=FIX.4.4|9=102|35=0|34=218|49=f2c11b00bf3d41fca072225f328ce98e|52=20260414-03:36:42.000|56=SERVER|1=main|553=Group13|10=117|
[2026-04-14 10:36:43] [DEBUG] [FROM ADMIN] 8=FIX.4.4|9=83|35=0|34=218|49=SERVER|52=20260414-03:36:43.284|56=f2c11b00bf3d41fca072225f328ce98e|10=252|
[2026-04-14 10:37:12] [DEBUG] [TO ADMIN] 8=FIX.4.4|9=102|35=0|34=219|49=f2c11b00bf3d41fca072225f328ce98e|52=20260414-03:37:12.000|56=SERVER|1=main|553=Group13|10=116|
[2026-04-14 10:37:13] [DEBUG] [FROM ADMIN] 8=FIX.4.4|9=83|35=0|34=219|49=SERVER|52=20260414-03:37:13.284|56=f2c11b00bf3d41fca072225f328ce98e|10=251|
[2026-04-14 10:37:42] [DEBUG] [TO ADMIN] 8=FIX.4.4|9=102|35=0|34=220|49=f2c11b00bf3d41fca072225f328ce98e|52=20260414-03:37:42.000|56=SERVER|1=main|553=Group13|10=111|
[2026-04-14 10:37:43] [DEBUG] [FROM ADMIN] 8=FIX.4.4|9=83|35=0|34=220|49=SERVER|52=20260414-03:37:43.284|56=f2c11b00bf3d41fca072225f328ce98e|10=246|
[2026-04-14 10:38:12] [DEBUG] [TO ADMIN] 8=FIX.4.4|9=102|35=0|34=221|49=f2c11b00bf3d41fca072225f328ce98e|52=20260414-03:38:12.000|56=SERVER|1=main|553=Group13|10=110|
[2026-04-14 10:38:13] [DEBUG] [FROM ADMIN] 8=FIX.4.4|9=83|35=0|34=221|49=SERVER|52=20260414-03:38:13.284|56=f2c11b00bf3d41fca072225f328ce98e|10=245|
[2026-04-14 10:38:42] [DEBUG] [TO ADMIN] 8=FIX.4.4|9=102|35=0|34=222|49=f2c11b00bf3d41fca072225f328ce98e|52=20260414-03:38:42.000|56=SERVER|1=main|553=Group13|10=114|
[2026-04-14 10:38:43] [DEBUG] [FROM ADMIN] 8=FIX.4.4|9=83|35=0|34=222|49=SERVER|52=20260414-03:38:43.284|56=f2c11b00bf3d41fca072225f328ce98e|10=249|
[2026-04-14 10:39:12] [DEBUG] [TO ADMIN] 8=FIX.4.4|9=102|35=0|34=223|49=f2c11b00bf3d41fca072225f328ce98e|52=20260414-03:39:12.000|56=SERVER|1=main|553=Group13|10=113|
[2026-04-14 10:39:13] [DEBUG] [FROM ADMIN] 8=FIX.4.4|9=83|35=0|34=223|49=SERVER|52=20260414-03:39:13.285|56=f2c11b00bf3d41fca072225f328ce98e|10=249|
[2026-04-14 10:39:42] [DEBUG] [TO ADMIN] 8=FIX.4.4|9=102|35=0|34=224|49=f2c11b00bf3d41fca072225f328ce98e|52=20260414-03:39:42.000|56=SERVER|1=main|553=Group13|10=117|
[2026-04-14 10:39:43] [DEBUG] [FROM ADMIN] 8=FIX.4.4|9=83|35=0|34=224|49=SERVER|52=20260414-03:39:43.284|56=f2c11b00bf3d41fca072225f328ce98e|10=252|
[2026-04-14 10:40:12] [DEBUG] [TO ADMIN] 8=FIX.4.4|9=102|35=0|34=225|49=f2c11b00bf3d41fca072225f328ce98e|52=20260414-03:40:12.000|56=SERVER|1=main|553=Group13|10=107|
[2026-04-14 10:40:13] [DEBUG] [FROM ADMIN] 8=FIX.4.4|9=83|35=0|34=225|49=SERVER|52=20260414-03:40:13.284|56=f2c11b00bf3d41fca072225f328ce98e|10=242|
[2026-04-14 10:40:42] [DEBUG] [TO ADMIN] 8=FIX.4.4|9=102|35=0|34=226|49=f2c11b00bf3d41fca072225f328ce98e|52=20260414-03:40:42.000|56=SERVER|1=main|553=Group13|10=111|
[2026-04-14 10:40:43] [DEBUG] [FROM ADMIN] 8=FIX.4.4|9=83|35=0|34=226|49=SERVER|52=20260414-03:40:43.284|56=f2c11b00bf3d41fca072225f328ce98e|10=246|
[2026-04-14 10:41:12] [DEBUG] [TO ADMIN] 8=FIX.4.4|9=102|35=0|34=227|49=f2c11b00bf3d41fca072225f328ce98e|52=20260414-03:41:12.000|56=SERVER|1=main|553=Group13|10=110|
[2026-04-14 10:41:13] [DEBUG] [FROM ADMIN] 8=FIX.4.4|9=83|35=0|34=227|49=SERVER|52=20260414-03:41:13.284|56=f2c11b00bf3d41fca072225f328ce98e|10=245|
[2026-04-14 10:41:42] [DEBUG] [TO ADMIN] 8=FIX.4.4|9=102|35=0|34=228|49=f2c11b00bf3d41fca072225f328ce98e|52=20260414-03:41:42.000|56=SERVER|1=main|553=Group13|10=114|
[2026-04-14 10:41:43] [DEBUG] [FROM ADMIN] 8=FIX.4.4|9=83|35=0|34=228|49=SERVER|52=20260414-03:41:43.284|56=f2c11b00bf3d41fca072225f328ce98e|10=249|
[2026-04-14 10:42:12] [DEBUG] [TO ADMIN] 8=FIX.4.4|9=102|35=0|34=229|49=f2c11b00bf3d41fca072225f328ce98e|52=20260414-03:42:12.000|56=SERVER|1=main|553=Group13|10=113|
[2026-04-14 10:42:13] [DEBUG] [FROM ADMIN] 8=FIX.4.4|9=83|35=0|34=229|49=SERVER|52=20260414-03:42:13.284|56=f2c11b00bf3d41fca072225f328ce98e|10=248|
[2026-04-14 10:42:42] [DEBUG] [TO ADMIN] 8=FIX.4.4|9=102|35=0|34=230|49=f2c11b00bf3d41fca072225f328ce98e|52=20260414-03:42:42.000|56=SERVER|1=main|553=Group13|10=108|
[2026-04-14 10:42:43] [DEBUG] [FROM ADMIN] 8=FIX.4.4|9=83|35=0|34=230|49=SERVER|52=20260414-03:42:43.284|56=f2c11b00bf3d41fca072225f328ce98e|10=243|
[2026-04-14 10:43:12] [DEBUG] [TO ADMIN] 8=FIX.4.4|9=102|35=0|34=231|49=f2c11b00bf3d41fca072225f328ce98e|52=20260414-03:43:12.000|56=SERVER|1=main|553=Group13|10=107|
[2026-04-14 10:43:13] [DEBUG] [FROM ADMIN] 8=FIX.4.4|9=83|35=0|34=231|49=SERVER|52=20260414-03:43:13.285|56=f2c11b00bf3d41fca072225f328ce98e|10=243|
[2026-04-14 10:43:42] [DEBUG] [TO ADMIN] 8=FIX.4.4|9=102|35=0|34=232|49=f2c11b00bf3d41fca072225f328ce98e|52=20260414-03:43:42.000|56=SERVER|1=main|553=Group13|10=111|
[2026-04-14 10:43:43] [DEBUG] [FROM ADMIN] 8=FIX.4.4|9=83|35=0|34=232|49=SERVER|52=20260414-03:43:43.284|56=f2c11b00bf3d41fca072225f328ce98e|10=246|
[2026-04-14 10:44:12] [DEBUG] [TO ADMIN] 8=FIX.4.4|9=102|35=0|34=233|49=f2c11b00bf3d41fca072225f328ce98e|52=20260414-03:44:12.000|56=SERVER|1=main|553=Group13|10=110|
[2026-04-14 10:44:13] [DEBUG] [FROM ADMIN] 8=FIX.4.4|9=83|35=0|34=233|49=SERVER|52=20260414-03:44:13.284|56=f2c11b00bf3d41fca072225f328ce98e|10=245|
[2026-04-14 10:44:42] [DEBUG] [TO ADMIN] 8=FIX.4.4|9=102|35=0|34=234|49=f2c11b00bf3d41fca072225f328ce98e|52=20260414-03:44:42.000|56=SERVER|1=main|553=Group13|10=114|
[2026-04-14 10:44:43] [DEBUG] [FROM ADMIN] 8=FIX.4.4|9=83|35=0|34=234|49=SERVER|52=20260414-03:44:43.284|56=f2c11b00bf3d41fca072225f328ce98e|10=249|
[2026-04-14 10:45:05] [DEBUG] POST https://papertrade.algotrade.vn/accounting/api/portfolio-by-sub/basic payload_keys=['fixAccountID', 'subAccountID']
[2026-04-14 10:45:06] [DEBUG] POST https://papertrade.algotrade.vn/accounting/api/portfolio-by-sub/basic succeeded status_code=200
[2026-04-14 10:45:06] [INFO] event=portfolio_resolved fixAccountID=f72030f52dc94e38b4c32ee0d7f9a03b subAccountID=main instrument_count=0
[2026-04-14 10:45:06] [DEBUG] POST https://papertrade.algotrade.vn/accounting/api/account-info-by-sub/remain-cash payload_keys=['fixAccountID', 'subAccountID']
[2026-04-14 10:45:06] [DEBUG] POST https://papertrade.algotrade.vn/accounting/api/account-info-by-sub/remain-cash succeeded status_code=200
[2026-04-14 10:45:06] [INFO] event=remain_cash_resolved fixAccountID=f72030f52dc94e38b4c32ee0d7f9a03b subAccountID=main remainCash=472210000
[2026-04-14 10:45:12] [DEBUG] [TO ADMIN] 8=FIX.4.4|9=102|35=0|34=235|49=f2c11b00bf3d41fca072225f328ce98e|52=20260414-03:45:12.000|56=SERVER|1=main|553=Group13|10=113|
[2026-04-14 10:45:13] [DEBUG] [FROM ADMIN] 8=FIX.4.4|9=83|35=0|34=235|49=SERVER|52=20260414-03:45:13.284|56=f2c11b00bf3d41fca072225f328ce98e|10=248|
[2026-04-14 10:45:42] [DEBUG] [TO ADMIN] 8=FIX.4.4|9=102|35=0|34=236|49=f2c11b00bf3d41fca072225f328ce98e|52=20260414-03:45:42.000|56=SERVER|1=main|553=Group13|10=117|
[2026-04-14 10:45:43] [DEBUG] [FROM ADMIN] 8=FIX.4.4|9=83|35=0|34=236|49=SERVER|52=20260414-03:45:43.284|56=f2c11b00bf3d41fca072225f328ce98e|10=252|
[2026-04-14 10:46:12] [DEBUG] [TO ADMIN] 8=FIX.4.4|9=102|35=0|34=237|49=f2c11b00bf3d41fca072225f328ce98e|52=20260414-03:46:12.000|56=SERVER|1=main|553=Group13|10=116|
[2026-04-14 10:46:13] [DEBUG] [FROM ADMIN] 8=FIX.4.4|9=83|35=0|34=237|49=SERVER|52=20260414-03:46:13.284|56=f2c11b00bf3d41fca072225f328ce98e|10=251|
[2026-04-14 10:46:42] [DEBUG] [TO ADMIN] 8=FIX.4.4|9=102|35=0|34=238|49=f2c11b00bf3d41fca072225f328ce98e|52=20260414-03:46:42.000|56=SERVER|1=main|553=Group13|10=120|
[2026-04-14 10:46:43] [DEBUG] [FROM ADMIN] 8=FIX.4.4|9=83|35=0|34=238|49=SERVER|52=20260414-03:46:43.284|56=f2c11b00bf3d41fca072225f328ce98e|10=255|
[2026-04-14 10:47:12] [DEBUG] [TO ADMIN] 8=FIX.4.4|9=102|35=0|34=239|49=f2c11b00bf3d41fca072225f328ce98e|52=20260414-03:47:12.000|56=SERVER|1=main|553=Group13|10=119|
[2026-04-14 10:47:13] [DEBUG] [FROM ADMIN] 8=FIX.4.4|9=83|35=0|34=239|49=SERVER|52=20260414-03:47:13.284|56=f2c11b00bf3d41fca072225f328ce98e|10=254|
[2026-04-14 10:47:42] [DEBUG] [TO ADMIN] 8=FIX.4.4|9=102|35=0|34=240|49=f2c11b00bf3d41fca072225f328ce98e|52=20260414-03:47:42.000|56=SERVER|1=main|553=Group13|10=114|
[2026-04-14 10:47:43] [DEBUG] [FROM ADMIN] 8=FIX.4.4|9=83|35=0|34=240|49=SERVER|52=20260414-03:47:43.285|56=f2c11b00bf3d41fca072225f328ce98e|10=250|
[2026-04-14 10:48:12] [DEBUG] [TO ADMIN] 8=FIX.4.4|9=102|35=0|34=241|49=f2c11b00bf3d41fca072225f328ce98e|52=20260414-03:48:12.000|56=SERVER|1=main|553=Group13|10=113|
[2026-04-14 10:48:13] [DEBUG] [FROM ADMIN] 8=FIX.4.4|9=83|35=0|34=241|49=SERVER|52=20260414-03:48:13.284|56=f2c11b00bf3d41fca072225f328ce98e|10=248|
[2026-04-14 10:48:42] [DEBUG] [TO ADMIN] 8=FIX.4.4|9=102|35=0|34=242|49=f2c11b00bf3d41fca072225f328ce98e|52=20260414-03:48:42.000|56=SERVER|1=main|553=Group13|10=117|
[2026-04-14 10:48:43] [DEBUG] [FROM ADMIN] 8=FIX.4.4|9=83|35=0|34=242|49=SERVER|52=20260414-03:48:43.284|56=f2c11b00bf3d41fca072225f328ce98e|10=252|
[2026-04-14 10:49:12] [DEBUG] [TO ADMIN] 8=FIX.4.4|9=102|35=0|34=243|49=f2c11b00bf3d41fca072225f328ce98e|52=20260414-03:49:12.000|56=SERVER|1=main|553=Group13|10=116|
[2026-04-14 10:49:13] [DEBUG] [FROM ADMIN] 8=FIX.4.4|9=83|35=0|34=243|49=SERVER|52=20260414-03:49:13.284|56=f2c11b00bf3d41fca072225f328ce98e|10=251|
[2026-04-14 10:49:42] [DEBUG] [TO ADMIN] 8=FIX.4.4|9=102|35=0|34=244|49=f2c11b00bf3d41fca072225f328ce98e|52=20260414-03:49:42.000|56=SERVER|1=main|553=Group13|10=120|
[2026-04-14 10:49:43] [DEBUG] [FROM ADMIN] 8=FIX.4.4|9=83|35=0|34=244|49=SERVER|52=20260414-03:49:43.284|56=f2c11b00bf3d41fca072225f328ce98e|10=255|
[2026-04-14 10:50:12] [DEBUG] [TO ADMIN] 8=FIX.4.4|9=102|35=0|34=245|49=f2c11b00bf3d41fca072225f328ce98e|52=20260414-03:50:12.000|56=SERVER|1=main|553=Group13|10=110|
[2026-04-14 10:50:13] [DEBUG] [FROM ADMIN] 8=FIX.4.4|9=83|35=0|34=245|49=SERVER|52=20260414-03:50:13.284|56=f2c11b00bf3d41fca072225f328ce98e|10=245|
[2026-04-14 10:50:42] [DEBUG] [TO ADMIN] 8=FIX.4.4|9=102|35=0|34=246|49=f2c11b00bf3d41fca072225f328ce98e|52=20260414-03:50:42.000|56=SERVER|1=main|553=Group13|10=114|
[2026-04-14 10:50:43] [DEBUG] [FROM ADMIN] 8=FIX.4.4|9=83|35=0|34=246|49=SERVER|52=20260414-03:50:43.284|56=f2c11b00bf3d41fca072225f328ce98e|10=249|
[2026-04-14 10:51:12] [DEBUG] [TO ADMIN] 8=FIX.4.4|9=102|35=0|34=247|49=f2c11b00bf3d41fca072225f328ce98e|52=20260414-03:51:12.000|56=SERVER|1=main|553=Group13|10=113|
[2026-04-14 10:51:13] [DEBUG] [FROM ADMIN] 8=FIX.4.4|9=83|35=0|34=247|49=SERVER|52=20260414-03:51:13.284|56=f2c11b00bf3d41fca072225f328ce98e|10=248|
[2026-04-14 10:51:42] [DEBUG] [TO ADMIN] 8=FIX.4.4|9=102|35=0|34=248|49=f2c11b00bf3d41fca072225f328ce98e|52=20260414-03:51:42.000|56=SERVER|1=main|553=Group13|10=117|
[2026-04-14 10:51:43] [DEBUG] [FROM ADMIN] 8=FIX.4.4|9=83|35=0|34=248|49=SERVER|52=20260414-03:51:43.284|56=f2c11b00bf3d41fca072225f328ce98e|10=252|
[2026-04-14 10:52:12] [DEBUG] [TO ADMIN] 8=FIX.4.4|9=102|35=0|34=249|49=f2c11b00bf3d41fca072225f328ce98e|52=20260414-03:52:12.000|56=SERVER|1=main|553=Group13|10=116|
[2026-04-14 10:52:13] [DEBUG] [FROM ADMIN] 8=FIX.4.4|9=83|35=0|34=249|49=SERVER|52=20260414-03:52:13.284|56=f2c11b00bf3d41fca072225f328ce98e|10=251|
[2026-04-14 10:52:42] [DEBUG] [TO ADMIN] 8=FIX.4.4|9=102|35=0|34=250|49=f2c11b00bf3d41fca072225f328ce98e|52=20260414-03:52:42.000|56=SERVER|1=main|553=Group13|10=111|
[2026-04-14 10:52:43] [DEBUG] [FROM ADMIN] 8=FIX.4.4|9=83|35=0|34=250|49=SERVER|52=20260414-03:52:43.284|56=f2c11b00bf3d41fca072225f328ce98e|10=246|
[2026-04-14 10:53:12] [DEBUG] [TO ADMIN] 8=FIX.4.4|9=102|35=0|34=251|49=f2c11b00bf3d41fca072225f328ce98e|52=20260414-03:53:12.000|56=SERVER|1=main|553=Group13|10=110|
[2026-04-14 10:53:13] [DEBUG] [FROM ADMIN] 8=FIX.4.4|9=83|35=0|34=251|49=SERVER|52=20260414-03:53:13.284|56=f2c11b00bf3d41fca072225f328ce98e|10=245|
[2026-04-14 10:53:42] [DEBUG] [TO ADMIN] 8=FIX.4.4|9=102|35=0|34=252|49=f2c11b00bf3d41fca072225f328ce98e|52=20260414-03:53:42.000|56=SERVER|1=main|553=Group13|10=114|
[2026-04-14 10:53:43] [DEBUG] [FROM ADMIN] 8=FIX.4.4|9=83|35=0|34=252|49=SERVER|52=20260414-03:53:43.284|56=f2c11b00bf3d41fca072225f328ce98e|10=249|
[2026-04-14 10:54:12] [DEBUG] [TO ADMIN] 8=FIX.4.4|9=102|35=0|34=253|49=f2c11b00bf3d41fca072225f328ce98e|52=20260414-03:54:12.000|56=SERVER|1=main|553=Group13|10=113|
[2026-04-14 10:54:13] [DEBUG] [FROM ADMIN] 8=FIX.4.4|9=83|35=0|34=253|49=SERVER|52=20260414-03:54:13.284|56=f2c11b00bf3d41fca072225f328ce98e|10=248|
[2026-04-14 10:54:42] [DEBUG] [TO ADMIN] 8=FIX.4.4|9=102|35=0|34=254|49=f2c11b00bf3d41fca072225f328ce98e|52=20260414-03:54:42.000|56=SERVER|1=main|553=Group13|10=117|
[2026-04-14 10:54:43] [DEBUG] [FROM ADMIN] 8=FIX.4.4|9=83|35=0|34=254|49=SERVER|52=20260414-03:54:43.284|56=f2c11b00bf3d41fca072225f328ce98e|10=252|
[2026-04-14 10:55:12] [DEBUG] [TO ADMIN] 8=FIX.4.4|9=102|35=0|34=255|49=f2c11b00bf3d41fca072225f328ce98e|52=20260414-03:55:12.000|56=SERVER|1=main|553=Group13|10=116|
[2026-04-14 10:55:13] [DEBUG] [FROM ADMIN] 8=FIX.4.4|9=83|35=0|34=255|49=SERVER|52=20260414-03:55:13.284|56=f2c11b00bf3d41fca072225f328ce98e|10=251|
[2026-04-14 10:55:42] [DEBUG] [TO ADMIN] 8=FIX.4.4|9=102|35=0|34=256|49=f2c11b00bf3d41fca072225f328ce98e|52=20260414-03:55:42.000|56=SERVER|1=main|553=Group13|10=120|
[2026-04-14 10:55:43] [DEBUG] [FROM ADMIN] 8=FIX.4.4|9=83|35=0|34=256|49=SERVER|52=20260414-03:55:43.284|56=f2c11b00bf3d41fca072225f328ce98e|10=255|
[2026-04-14 10:56:12] [DEBUG] [TO ADMIN] 8=FIX.4.4|9=102|35=0|34=257|49=f2c11b00bf3d41fca072225f328ce98e|52=20260414-03:56:12.000|56=SERVER|1=main|553=Group13|10=119|
[2026-04-14 10:56:13] [DEBUG] [FROM ADMIN] 8=FIX.4.4|9=83|35=0|34=257|49=SERVER|52=20260414-03:56:13.284|56=f2c11b00bf3d41fca072225f328ce98e|10=254|
[2026-04-14 10:56:42] [DEBUG] [TO ADMIN] 8=FIX.4.4|9=102|35=0|34=258|49=f2c11b00bf3d41fca072225f328ce98e|52=20260414-03:56:42.000|56=SERVER|1=main|553=Group13|10=123|
[2026-04-14 10:56:43] [DEBUG] [FROM ADMIN] 8=FIX.4.4|9=83|35=0|34=258|49=SERVER|52=20260414-03:56:43.284|56=f2c11b00bf3d41fca072225f328ce98e|10=002|
[2026-04-14 10:57:12] [DEBUG] [TO ADMIN] 8=FIX.4.4|9=102|35=0|34=259|49=f2c11b00bf3d41fca072225f328ce98e|52=20260414-03:57:12.000|56=SERVER|1=main|553=Group13|10=122|
[2026-04-14 10:57:13] [DEBUG] [FROM ADMIN] 8=FIX.4.4|9=83|35=0|34=259|49=SERVER|52=20260414-03:57:13.284|56=f2c11b00bf3d41fca072225f328ce98e|10=001|
[2026-04-14 10:57:42] [DEBUG] [TO ADMIN] 8=FIX.4.4|9=102|35=0|34=260|49=f2c11b00bf3d41fca072225f328ce98e|52=20260414-03:57:42.000|56=SERVER|1=main|553=Group13|10=117|
[2026-04-14 10:57:43] [DEBUG] [FROM ADMIN] 8=FIX.4.4|9=83|35=0|34=260|49=SERVER|52=20260414-03:57:43.284|56=f2c11b00bf3d41fca072225f328ce98e|10=252|
[2026-04-14 10:58:12] [DEBUG] [TO ADMIN] 8=FIX.4.4|9=102|35=0|34=261|49=f2c11b00bf3d41fca072225f328ce98e|52=20260414-03:58:12.000|56=SERVER|1=main|553=Group13|10=116|
[2026-04-14 10:58:13] [DEBUG] [FROM ADMIN] 8=FIX.4.4|9=83|35=0|34=261|49=SERVER|52=20260414-03:58:13.284|56=f2c11b00bf3d41fca072225f328ce98e|10=251|
[2026-04-14 10:58:42] [DEBUG] [TO ADMIN] 8=FIX.4.4|9=102|35=0|34=262|49=f2c11b00bf3d41fca072225f328ce98e|52=20260414-03:58:42.000|56=SERVER|1=main|553=Group13|10=120|
[2026-04-14 10:58:43] [DEBUG] [FROM ADMIN] 8=FIX.4.4|9=83|35=0|34=262|49=SERVER|52=20260414-03:58:43.284|56=f2c11b00bf3d41fca072225f328ce98e|10=255|
[2026-04-14 10:59:12] [DEBUG] [TO ADMIN] 8=FIX.4.4|9=102|35=0|34=263|49=f2c11b00bf3d41fca072225f328ce98e|52=20260414-03:59:12.000|56=SERVER|1=main|553=Group13|10=119|
[2026-04-14 10:59:13] [DEBUG] [FROM ADMIN] 8=FIX.4.4|9=83|35=0|34=263|49=SERVER|52=20260414-03:59:13.284|56=f2c11b00bf3d41fca072225f328ce98e|10=254|
[2026-04-14 10:59:42] [DEBUG] [TO ADMIN] 8=FIX.4.4|9=102|35=0|34=264|49=f2c11b00bf3d41fca072225f328ce98e|52=20260414-03:59:42.000|56=SERVER|1=main|553=Group13|10=123|
[2026-04-14 10:59:43] [DEBUG] [FROM ADMIN] 8=FIX.4.4|9=83|35=0|34=264|49=SERVER|52=20260414-03:59:43.284|56=f2c11b00bf3d41fca072225f328ce98e|10=002|
[2026-04-14 11:00:05] [DEBUG] POST https://papertrade.algotrade.vn/accounting/api/portfolio-by-sub/basic payload_keys=['fixAccountID', 'subAccountID']
[2026-04-14 11:00:05] [DEBUG] POST https://papertrade.algotrade.vn/accounting/api/portfolio-by-sub/basic succeeded status_code=200
[2026-04-14 11:00:05] [INFO] event=portfolio_resolved fixAccountID=f72030f52dc94e38b4c32ee0d7f9a03b subAccountID=main instrument_count=0
[2026-04-14 11:00:05] [DEBUG] POST https://papertrade.algotrade.vn/accounting/api/account-info-by-sub/remain-cash payload_keys=['fixAccountID', 'subAccountID']
[2026-04-14 11:00:05] [DEBUG] POST https://papertrade.algotrade.vn/accounting/api/account-info-by-sub/remain-cash succeeded status_code=200
[2026-04-14 11:00:05] [INFO] event=remain_cash_resolved fixAccountID=f72030f52dc94e38b4c32ee0d7f9a03b subAccountID=main remainCash=472210000
[2026-04-14 11:00:12] [DEBUG] [TO ADMIN] 8=FIX.4.4|9=102|35=0|34=265|49=f2c11b00bf3d41fca072225f328ce98e|52=20260414-04:00:12.000|56=SERVER|1=main|553=Group13|10=108|
[2026-04-14 11:00:13] [DEBUG] [FROM ADMIN] 8=FIX.4.4|9=83|35=0|34=265|49=SERVER|52=20260414-04:00:13.284|56=f2c11b00bf3d41fca072225f328ce98e|10=243|
[2026-04-14 11:00:42] [DEBUG] [TO ADMIN] 8=FIX.4.4|9=102|35=0|34=266|49=f2c11b00bf3d41fca072225f328ce98e|52=20260414-04:00:42.000|56=SERVER|1=main|553=Group13|10=112|
[2026-04-14 11:00:43] [DEBUG] [FROM ADMIN] 8=FIX.4.4|9=83|35=0|34=266|49=SERVER|52=20260414-04:00:43.284|56=f2c11b00bf3d41fca072225f328ce98e|10=247|
[2026-04-14 11:01:12] [DEBUG] [TO ADMIN] 8=FIX.4.4|9=102|35=0|34=267|49=f2c11b00bf3d41fca072225f328ce98e|52=20260414-04:01:12.000|56=SERVER|1=main|553=Group13|10=111|
[2026-04-14 11:01:13] [DEBUG] [FROM ADMIN] 8=FIX.4.4|9=83|35=0|34=267|49=SERVER|52=20260414-04:01:13.284|56=f2c11b00bf3d41fca072225f328ce98e|10=246|
[2026-04-14 11:01:42] [DEBUG] [TO ADMIN] 8=FIX.4.4|9=102|35=0|34=268|49=f2c11b00bf3d41fca072225f328ce98e|52=20260414-04:01:42.000|56=SERVER|1=main|553=Group13|10=115|
[2026-04-14 11:01:43] [DEBUG] [FROM ADMIN] 8=FIX.4.4|9=83|35=0|34=268|49=SERVER|52=20260414-04:01:43.284|56=f2c11b00bf3d41fca072225f328ce98e|10=250|
[2026-04-14 11:02:12] [DEBUG] [TO ADMIN] 8=FIX.4.4|9=102|35=0|34=269|49=f2c11b00bf3d41fca072225f328ce98e|52=20260414-04:02:12.000|56=SERVER|1=main|553=Group13|10=114|
[2026-04-14 11:02:13] [DEBUG] [FROM ADMIN] 8=FIX.4.4|9=83|35=0|34=269|49=SERVER|52=20260414-04:02:13.284|56=f2c11b00bf3d41fca072225f328ce98e|10=249|
[2026-04-14 11:02:42] [DEBUG] [TO ADMIN] 8=FIX.4.4|9=102|35=0|34=270|49=f2c11b00bf3d41fca072225f328ce98e|52=20260414-04:02:42.000|56=SERVER|1=main|553=Group13|10=109|
